{
  "contracts/conduit/ConduitController.sol": {
    "ConduitController": {
      "abi": [
        {
          "inputs": [],
          "stateMutability": "nonpayable",
          "type": "constructor"
        },
        {
          "inputs": [
            {
              "internalType": "address",
              "name": "conduit",
              "type": "address"
            }
          ],
          "name": "CallerIsNotNewPotentialOwner",
          "type": "error"
        },
        {
          "inputs": [
            {
              "internalType": "address",
              "name": "conduit",
              "type": "address"
            }
          ],
          "name": "CallerIsNotOwner",
          "type": "error"
        },
        {
          "inputs": [
            {
              "internalType": "address",
              "name": "conduit",
              "type": "address"
            }
          ],
          "name": "ChannelOutOfRange",
          "type": "error"
        },
        {
          "inputs": [
            {
              "internalType": "address",
              "name": "conduit",
              "type": "address"
            }
          ],
          "name": "ConduitAlreadyExists",
          "type": "error"
        },
        {
          "inputs": [],
          "name": "InvalidCreator",
          "type": "error"
        },
        {
          "inputs": [
            {
              "internalType": "address",
              "name": "conduit",
              "type": "address"
            }
          ],
          "name": "NewPotentialOwnerIsZeroAddress",
          "type": "error"
        },
        {
          "inputs": [],
          "name": "NoConduit",
          "type": "error"
        },
        {
          "anonymous": false,
          "inputs": [
            {
              "indexed": false,
              "internalType": "address",
              "name": "conduit",
              "type": "address"
            },
            {
              "indexed": false,
              "internalType": "bytes32",
              "name": "conduitKey",
              "type": "bytes32"
            }
          ],
          "name": "NewConduit",
          "type": "event"
        },
        {
          "anonymous": false,
          "inputs": [
            {
              "indexed": true,
              "internalType": "address",
              "name": "conduit",
              "type": "address"
            },
            {
              "indexed": true,
              "internalType": "address",
              "name": "previousOwner",
              "type": "address"
            },
            {
              "indexed": true,
              "internalType": "address",
              "name": "newOwner",
              "type": "address"
            }
          ],
          "name": "OwnershipTransferred",
          "type": "event"
        },
        {
          "anonymous": false,
          "inputs": [
            {
              "indexed": true,
              "internalType": "address",
              "name": "conduit",
              "type": "address"
            },
            {
              "indexed": true,
              "internalType": "address",
              "name": "newPotentialOwner",
              "type": "address"
            }
          ],
          "name": "PotentialOwnerUpdated",
          "type": "event"
        },
        {
          "inputs": [
            {
              "internalType": "address",
              "name": "conduit",
              "type": "address"
            }
          ],
          "name": "acceptOwnership",
          "outputs": [],
          "stateMutability": "nonpayable",
          "type": "function"
        },
        {
          "inputs": [
            {
              "internalType": "address",
              "name": "conduit",
              "type": "address"
            }
          ],
          "name": "cancelOwnershipTransfer",
          "outputs": [],
          "stateMutability": "nonpayable",
          "type": "function"
        },
        {
          "inputs": [
            {
              "internalType": "bytes32",
              "name": "conduitKey",
              "type": "bytes32"
            },
            {
              "internalType": "address",
              "name": "initialOwner",
              "type": "address"
            }
          ],
          "name": "createConduit",
          "outputs": [
            {
              "internalType": "address",
              "name": "conduit",
              "type": "address"
            }
          ],
          "stateMutability": "nonpayable",
          "type": "function"
        },
        {
          "inputs": [
            {
              "internalType": "address",
              "name": "conduit",
              "type": "address"
            },
            {
              "internalType": "uint256",
              "name": "channelIndex",
              "type": "uint256"
            }
          ],
          "name": "getChannel",
          "outputs": [
            {
              "internalType": "address",
              "name": "channel",
              "type": "address"
            }
          ],
          "stateMutability": "view",
          "type": "function"
        },
        {
          "inputs": [
            {
              "internalType": "address",
              "name": "conduit",
              "type": "address"
            },
            {
              "internalType": "address",
              "name": "channel",
              "type": "address"
            }
          ],
          "name": "getChannelStatus",
          "outputs": [
            {
              "internalType": "bool",
              "name": "isOpen",
              "type": "bool"
            }
          ],
          "stateMutability": "view",
          "type": "function"
        },
        {
          "inputs": [
            {
              "internalType": "address",
              "name": "conduit",
              "type": "address"
            }
          ],
          "name": "getChannels",
          "outputs": [
            {
              "internalType": "address[]",
              "name": "channels",
              "type": "address[]"
            }
          ],
          "stateMutability": "view",
          "type": "function"
        },
        {
          "inputs": [
            {
              "internalType": "bytes32",
              "name": "conduitKey",
              "type": "bytes32"
            }
          ],
          "name": "getConduit",
          "outputs": [
            {
              "internalType": "address",
              "name": "conduit",
              "type": "address"
            },
            {
              "internalType": "bool",
              "name": "exists",
              "type": "bool"
            }
          ],
          "stateMutability": "view",
          "type": "function"
        },
        {
          "inputs": [],
          "name": "getConduitCodeHashes",
          "outputs": [
            {
              "internalType": "bytes32",
              "name": "creationCodeHash",
              "type": "bytes32"
            },
            {
              "internalType": "bytes32",
              "name": "runtimeCodeHash",
              "type": "bytes32"
            }
          ],
          "stateMutability": "view",
          "type": "function"
        },
        {
          "inputs": [
            {
              "internalType": "address",
              "name": "conduit",
              "type": "address"
            }
          ],
          "name": "getKey",
          "outputs": [
            {
              "internalType": "bytes32",
              "name": "conduitKey",
              "type": "bytes32"
            }
          ],
          "stateMutability": "view",
          "type": "function"
        },
        {
          "inputs": [
            {
              "internalType": "address",
              "name": "conduit",
              "type": "address"
            }
          ],
          "name": "getPotentialOwner",
          "outputs": [
            {
              "internalType": "address",
              "name": "potentialOwner",
              "type": "address"
            }
          ],
          "stateMutability": "view",
          "type": "function"
        },
        {
          "inputs": [
            {
              "internalType": "address",
              "name": "conduit",
              "type": "address"
            }
          ],
          "name": "getTotalChannels",
          "outputs": [
            {
              "internalType": "uint256",
              "name": "totalChannels",
              "type": "uint256"
            }
          ],
          "stateMutability": "view",
          "type": "function"
        },
        {
          "inputs": [
            {
              "internalType": "address",
              "name": "conduit",
              "type": "address"
            }
          ],
          "name": "ownerOf",
          "outputs": [
            {
              "internalType": "address",
              "name": "owner",
              "type": "address"
            }
          ],
          "stateMutability": "view",
          "type": "function"
        },
        {
          "inputs": [
            {
              "internalType": "address",
              "name": "conduit",
              "type": "address"
            },
            {
              "internalType": "address",
              "name": "newPotentialOwner",
              "type": "address"
            }
          ],
          "name": "transferOwnership",
          "outputs": [],
          "stateMutability": "nonpayable",
          "type": "function"
        },
        {
          "inputs": [
            {
              "internalType": "address",
              "name": "conduit",
              "type": "address"
            },
            {
              "internalType": "address",
              "name": "channel",
              "type": "address"
            },
            {
              "internalType": "bool",
              "name": "isOpen",
              "type": "bool"
            }
          ],
          "name": "updateChannel",
          "outputs": [],
          "stateMutability": "nonpayable",
          "type": "function"
        }
      ],
      "evm": {
        "bytecode": {
          "linkReferences": {},
          "object": "60c08060405234620000ea57600090610c34906001600160401b03603f8301601f1916820181811183821017620000da575b604052828252620021f19160208101908484833951902060805260405192839281840192831184841017620000ca575b8339039082f58015620000ba575b6001600160a01b03163f60a0526040516120dd90816200011482396080518181816102b101528181610b530152610c6f015260a0518181816102d401528181610be90152610d120152f35b620000c462000106565b6200006f565b620000d4620000ef565b62000061565b620000e4620000ef565b62000031565b600080fd5b50634e487b7160e01b600052604160045260246000fd5b506040513d6000823e3d90fdfe60806040526004361015610013575b600080fd5b60003560e01c8063027cc7641461012b5780630a96ad391461012257806313ad9cab1461011957806314afd79e1461011057806333bc8572146101075780634e3f9580146100fe57806351710e45146100f55780636d435421146100ec5780636e9bfd9f146100e3578063794593bc146100da5780637b37e561146100d15780638b9e028b146100c8578063906c87cc146100bf576393790f44146100b757600080fd5b61000e611142565b5061000e6110ce565b5061000e611010565b5061000e610f07565b5061000e610c11565b5061000e610ac3565b5061000e6109a7565b5061000e61074b565b5061000e6106d9565b5061000e610635565b5061000e6105c1565b5061000e6102fa565b5061000e61027b565b5061000e61017a565b6004359073ffffffffffffffffffffffffffffffffffffffff8216820361000e57565b6024359073ffffffffffffffffffffffffffffffffffffffff8216820361000e57565b503461000e5760407ffffffffffffffffffffffffffffffffffffffffffffffffffffffffffffffffc36011261000e576101b2610134565b602435906101bf81611448565b73ffffffffffffffffffffffffffffffffffffffff80911691600083815280602052600360408220015482101561023f5790600360408361023b9661020a95528060205220016112d4565b90549060031b1c166040519182918291909173ffffffffffffffffffffffffffffffffffffffff6020820193169052565b0390f35b602484604051907f6ceb340b0000000000000000000000000000000000000000000000000000000082526004820152fd5b600091031261000e57565b503461000e5760007ffffffffffffffffffffffffffffffffffffffffffffffffffffffffffffffffc36011261000e57604080517f000000000000000000000000000000000000000000000000000000000000000081527f00000000000000000000000000000000000000000000000000000000000000006020820152f35b503461000e5760607ffffffffffffffffffffffffffffffffffffffffffffffffffffffffffffffffc36011261000e57610332610134565b61033a610157565b90604435918215918215840361000e57610353816113d9565b73ffffffffffffffffffffffffffffffffffffffff811690813b1561000e576040517fc4e8fcb500000000000000000000000000000000000000000000000000000000815273ffffffffffffffffffffffffffffffffffffffff841660048201528515156024820152610401926000908290604490829084905af180156105b4575b61059b575b5073ffffffffffffffffffffffffffffffffffffffff166000526000602052604060002090565b92600484019261043183859073ffffffffffffffffffffffffffffffffffffffff16600052602052604060002090565b549182159080610594575b1561048157505050600361047d92930161045682826113a2565b54929073ffffffffffffffffffffffffffffffffffffffff16600052602052604060002090565b555b005b919493918161058b575b5061049257005b6104c561047d938560036104a7600098611278565b9201916104b48354611278565b908082036104ea575b50505061131b565b9073ffffffffffffffffffffffffffffffffffffffff16600052602052604060002090565b61055c61052a9161052161050161058295886112d4565b905473ffffffffffffffffffffffffffffffffffffffff9160031b1c1690565b928391876112d4565b90919082549060031b9173ffffffffffffffffffffffffffffffffffffffff9283811b93849216901b16911916179055565b859073ffffffffffffffffffffffffffffffffffffffff16600052602052604060002090565b553880806104bd565b9050153861048b565b508061043c565b806105a86105ae92611209565b80610270565b386103da565b6105bc61126b565b6103d5565b503461000e5760207ffffffffffffffffffffffffffffffffffffffffffffffffffffffffffffffffc36011261000e5760206105fb610134565b61060481611448565b73ffffffffffffffffffffffffffffffffffffffff8091166000526000825260016040600020015416604051908152f35b503461000e5760407ffffffffffffffffffffffffffffffffffffffffffffffffffffffffffffffffc36011261000e5760206106ce610672610134565b73ffffffffffffffffffffffffffffffffffffffff61068f610157565b9161069981611448565b166000526000835260046040600020019073ffffffffffffffffffffffffffffffffffffffff16600052602052604060002090565b541515604051908152f35b503461000e5760207ffffffffffffffffffffffffffffffffffffffffffffffffffffffffffffffffc36011261000e5773ffffffffffffffffffffffffffffffffffffffff610726610134565b61072f81611448565b1660005260006020526020600360406000200154604051908152f35b503461000e5760207ffffffffffffffffffffffffffffffffffffffffffffffffffffffffffffffffc36011261000e57610783610134565b61078c81611448565b6107f26107d960026107be8473ffffffffffffffffffffffffffffffffffffffff166000526000602052604060002090565b015473ffffffffffffffffffffffffffffffffffffffff1690565b73ffffffffffffffffffffffffffffffffffffffff1690565b330361095e578073ffffffffffffffffffffffffffffffffffffffff61047f92166000817fd4116aaf34f80123d0229f02f46f776b386a377dbb3404be10fdf4e81ba9cdb682604051a3610894600261086b8473ffffffffffffffffffffffffffffffffffffffff166000526000602052604060002090565b017fffffffffffffffffffffffff00000000000000000000000000000000000000008154169055565b33906108c86107d960016107be8673ffffffffffffffffffffffffffffffffffffffff166000526000602052604060002090565b907fc8894f26f396ce8c004245c8b7cd1b92103a6e4302fcbab883987149ac01b7ec6000604051a4600161091d339273ffffffffffffffffffffffffffffffffffffffff166000526000602052604060002090565b019073ffffffffffffffffffffffffffffffffffffffff167fffffffffffffffffffffffff0000000000000000000000000000000000000000825416179055565b6040517f88c3a11500000000000000000000000000000000000000000000000000000000815273ffffffffffffffffffffffffffffffffffffffff919091166004820152602490fd5b503461000e5760407ffffffffffffffffffffffffffffffffffffffffffffffffffffffffffffffffc36011261000e576109df610134565b6109e7610157565b906109f1816113d9565b73ffffffffffffffffffffffffffffffffffffffff808316918215610a915792610a8f916000941660405193817fd4116aaf34f80123d0229f02f46f776b386a377dbb3404be10fdf4e81ba9cdb68787a3845283602052600260408520019073ffffffffffffffffffffffffffffffffffffffff167fffffffffffffffffffffffff0000000000000000000000000000000000000000825416179055565bf35b602491604051917fa388d263000000000000000000000000000000000000000000000000000000008352166004820152fd5b503461000e5760207ffffffffffffffffffffffffffffffffffffffffffffffffffffffffffffffffc36011261000e576040517fff00000000000000000000000000000000000000000000000000000000000000602082019081523060601b7fffffffffffffffffffffffffffffffffffffffff00000000000000000000000016602183015260043560358301527f0000000000000000000000000000000000000000000000000000000000000000605583015273ffffffffffffffffffffffffffffffffffffffff91610bc281607581015b037fffffffffffffffffffffffffffffffffffffffffffffffffffffffffffffffe0810183528261122a565b519020604080519290911673ffffffffffffffffffffffffffffffffffffffff811683523f7f000000000000000000000000000000000000000000000000000000000000000014602083015290f35b503461000e576040807ffffffffffffffffffffffffffffffffffffffffffffffffffffffffffffffffc36011261000e5760043590610c4e610157565b90338360601c03610ede57610d0d6107d982516020810190610cf181610b967f00000000000000000000000000000000000000000000000000000000000000008a3087917fffffffffffffffffffffffffffffffffffffffff000000000000000000000000605594927fff00000000000000000000000000000000000000000000000000000000000000855260601b166001840152601583015260358201520190565b51902073ffffffffffffffffffffffffffffffffffffffff1690565b92833f7f000000000000000000000000000000000000000000000000000000000000000014610e9857907f4397af6128d529b8ae0442f99db1296d5136062597a15bbc61c1b2a6431a7d15610e178361023b94845180610c348082019082821067ffffffffffffffff831117610e8b575b611474833903906000f515610e7e575b610dbe86600161091d8a73ffffffffffffffffffffffffffffffffffffffff166000526000602052604060002090565b80610de98873ffffffffffffffffffffffffffffffffffffffff166000526000602052604060002090565b55835173ffffffffffffffffffffffffffffffffffffffff8816815260208101919091529081906040820190565b0390a151928392600073ffffffffffffffffffffffffffffffffffffffff8092169183167fc8894f26f396ce8c004245c8b7cd1b92103a6e4302fcbab883987149ac01b7ec8287a473ffffffffffffffffffffffffffffffffffffffff1682526020820190565b610e8661126b565b610d8e565b610e936111d9565b610d7e565b81517f6328ccb200000000000000000000000000000000000000000000000000000000815273ffffffffffffffffffffffffffffffffffffffff85166004820152602490fd5b600490517fcb6e5344000000000000000000000000000000000000000000000000000000008152fd5b503461000e5760207ffffffffffffffffffffffffffffffffffffffffffffffffffffffffffffffffc36011261000e5773ffffffffffffffffffffffffffffffffffffffff610f54610134565b610f5d816113d9565b1660405160009182817fd4116aaf34f80123d0229f02f46f776b386a377dbb3404be10fdf4e81ba9cdb68285a3825281602052600260408320017fffffffffffffffffffffffff00000000000000000000000000000000000000008154169055f35b6020908160408183019282815285518094520193019160005b828110610fe6575050505090565b835173ffffffffffffffffffffffffffffffffffffffff1685529381019392810192600101610fd8565b503461000e576020807ffffffffffffffffffffffffffffffffffffffffffffffffffffffffffffffffc36011261000e57611049610134565b9061105382611448565b73ffffffffffffffffffffffffffffffffffffffff91826000911681528082526003604082200192604051908193808654938481520195845280842093915b8383106110b55761023b866110a9818a038261122a565b60405191829182610fbf565b8454811687529581019560019485019490920191611092565b503461000e5760207ffffffffffffffffffffffffffffffffffffffffffffffffffffffffffffffffc36011261000e576020611108610134565b61111181611448565b73ffffffffffffffffffffffffffffffffffffffff8091166000526000825260026040600020015416604051908152f35b503461000e5760207ffffffffffffffffffffffffffffffffffffffffffffffffffffffffffffffffc36011261000e5773ffffffffffffffffffffffffffffffffffffffff61118f610134565b16600052600060205260406000205480156111af57602090604051908152f35b60046040517f4ca82090000000000000000000000000000000000000000000000000000000008152fd5b507f4e487b7100000000000000000000000000000000000000000000000000000000600052604160045260246000fd5b67ffffffffffffffff811161121d57604052565b6112256111d9565b604052565b90601f7fffffffffffffffffffffffffffffffffffffffffffffffffffffffffffffffe0910116810190811067ffffffffffffffff82111761121d57604052565b506040513d6000823e3d90fd5b600181106112a5577fffffffffffffffffffffffffffffffffffffffffffffffffffffffffffffffff0190565b7f4e487b7100000000000000000000000000000000000000000000000000000000600052601160045260246000fd5b80548210156112ec5760005260206000200190600090565b7f4e487b7100000000000000000000000000000000000000000000000000000000600052603260045260246000fd5b80548015611373577fffffffffffffffffffffffffffffffffffffffffffffffffffffffffffffffff019061135082826112d4565b73ffffffffffffffffffffffffffffffffffffffff82549160031b1b1916905555565b7f4e487b7100000000000000000000000000000000000000000000000000000000600052603160045260246000fd5b9061052a6113ca92805490680100000000000000008210156113cc575b6001820181556112d4565b565b6113d46111d9565b6113bf565b6113e281611448565b73ffffffffffffffffffffffffffffffffffffffff809116908160005260006020526001604060002001541633036114175750565b602490604051907fd4ed9a170000000000000000000000000000000000000000000000000000000082526004820152fd5b73ffffffffffffffffffffffffffffffffffffffff166000526000602052604060002054156111af5756fe60a080604052346100235733608052610c0b90816100298239608051816103dd0152f35b600080fdfe60806040526004361015610013575b600080fd5b6000803560e01c9081634ce34aa21461006657508063899e104c1461005d5780638df25d92146100545763c4e8fcb51461004c57600080fd5b61000e610378565b5061000e6102c0565b5061000e6101b4565b3461014f5760207ffffffffffffffffffffffffffffffffffffffffffffffffffffffffffffffffc36011261014f5760043567ffffffffffffffff811161014b576100b5903690600401610152565b91338152806020526100ce60ff60408320541615151590565b610121575b828110610105576040517f4ce34aa2000000000000000000000000000000000000000000000000000000008152602090f35b8061011b6101166001938686610498565b61052a565b016100d3565b7f6821b7df0000000000000000000000000000000000000000000000000000000060805260046080fd5b5080fd5b80fd5b9181601f8401121561000e5782359167ffffffffffffffff831161000e5760208085019460c0850201011161000e57565b9181601f8401121561000e5782359167ffffffffffffffff831161000e576020808501948460051b01011161000e57565b503461000e5760407ffffffffffffffffffffffffffffffffffffffffffffffffffffffffffffffffc36011261000e5767ffffffffffffffff60043581811161000e57610205903690600401610152565b9160243590811161000e5761021e903690600401610183565b91909233600052600060205261023c60ff6040600020541615151590565b6102965760005b81811061027f576102548486610a28565b6040517f899e104c000000000000000000000000000000000000000000000000000000008152602090f35b806102906101166001938587610498565b01610243565b60046040517f6821b7df000000000000000000000000000000000000000000000000000000008152fd5b503461000e5760207ffffffffffffffffffffffffffffffffffffffffffffffffffffffffffffffffc36011261000e5760043567ffffffffffffffff811161000e57610310903690600401610183565b33600052600060205260ff60406000205416156102965761033091610a28565b60206040517f8df25d92000000000000000000000000000000000000000000000000000000008152f35b73ffffffffffffffffffffffffffffffffffffffff81160361000e57565b503461000e576040807ffffffffffffffffffffffffffffffffffffffffffffffffffffffffffffffffc36011261000e57600435906103b68261035a565b6024359182151580930361000e5773ffffffffffffffffffffffffffffffffffffffff90817f000000000000000000000000000000000000000000000000000000000000000016330361046f576000937fae63067d43ac07563b7eb8db6595635fc77f1578a2a5ea06ba91b63e2afa37e29284921690818652856020528286207fffffffffffffffffffffffffffffffffffffffffffffffffffffffffffffff0081541660ff831617905582519182526020820152a151f35b600483517f6d5769be000000000000000000000000000000000000000000000000000000008152fd5b91908110156104a85760c0020190565b7f4e487b7100000000000000000000000000000000000000000000000000000000600052603260045260246000fd5b600411156104e157565b7f4e487b7100000000000000000000000000000000000000000000000000000000600052602160045260246000fd5b35600481101561000e5790565b356105278161035a565b90565b600161053582610510565b61053e816104d7565b0361057957806105536020610577930161051d565b906105606040820161051d565b60a061056e6060840161051d565b92013592610678565b565b600261058482610510565b61058d816104d7565b036105fc57600160a0820135036105d257806105ae6020610577930161051d565b906105bb6040820161051d565b60806105c96060840161051d565b920135926107e5565b60046040517fefcc00b1000000000000000000000000000000000000000000000000000000008152fd5b600361060782610510565b610610816104d7565b0361064e57806106256020610577930161051d565b6106316040830161051d565b61063d6060840161051d565b90608060a0850135940135926108f0565b60046040517f7932f1fc000000000000000000000000000000000000000000000000000000008152fd5b9092604051926000947f23b872dd00000000000000000000000000000000000000000000000000000000865280600452816024528260445260208660648180885af1803d15601f3d1160018a51141617163d15158116156106e2575b505050505050604052606052565b80863b1515166106d45790879596911561072257602486887f5f15d672000000000000000000000000000000000000000000000000000000008252600452fd5b1561075c57506084947f98891923000000000000000000000000000000000000000000000000000000008552600452602452604452606452fd5b3d61079b575b5060a4947ff486bc8700000000000000000000000000000000000000000000000000000000855260045260245260445281606452608452fd5b3d60051c9060051c9080600302918082116107cc575b505060205a9101106107c35785610762565b833d81803e3d90fd5b8080600392028380020360091c920302010186806107b1565b9092813b156108c257604051926000947f23b872dd000000000000000000000000000000000000000000000000000000008652806004528160245282604452858060648180885af11561083e5750505050604052606052565b8593943d610881575b5060a4947ff486bc870000000000000000000000000000000000000000000000000000000085526004526024526044526064526001608452fd5b3d60051c9060051c9080600302918082116108a9575b505060205a9101106107c35785610847565b8080600392028380020360091c92030201018680610897565b507f5f15d6720000000000000000000000000000000000000000000000000000000060005260045260246000fd5b929093833b156109fa57604051936080519160a0519360c051956000987ff242432a000000000000000000000000000000000000000000000000000000008a528060045281602452826044528360645260a06084528960a452898060c48180895af11561096d57505050505060805260a05260c052604052606052565b89949550883d6109b0575b5060a4957ff486bc87000000000000000000000000000000000000000000000000000000008652600452602452604452606452608452fd5b3d60051c9060051c9080600302918082116109e1575b505060205a9101106109d85786610978565b843d81803e3d90fd5b8080600392028380020360091c920302010187806109c6565b837f5f15d6720000000000000000000000000000000000000000000000000000000060005260045260246000fd5b9190826020937f2eb2c2d600000000000000000000000000000000000000000000000000000000855260005b838110610a68575050505090506080604052565b82860192602490358301608080828a01843760a0918281018035918260061b9460e0860160a4526000610144870152856101040192866040019060c43760059380851b9160c090838201888601351490606086013514169284010135141615610bab573594853b15610b7f5750600080828d82895af115610af0575050505050600101610a54565b908a92913d610b37575b5050610128937fafc445e2000000000000000000000000000000000000000000000000000000006000526004526044526084908151019052016000fd5b3d821c911c90600381810292808311610b68575b505050825a910110610b5e578480610afa565b3d6000803e3d6000fd5b8080028380020360091c9203020101858080610b4b565b857f5f15d672000000000000000000000000000000000000000000000000000000006000526004526000fd5b7feba2084c0000000000000000000000000000000000000000000000000000000060005260046000fdfea26469706673582212202e490d93d744ec3c60513ff515e1b5ba4801751166dfb42cd53a25d76767d3ae64736f6c634300080d0033a2646970667358221220658abd754f34c828e06ba61269abdc5a62196b84f8bc78d46c0a10ef13a8aa9364736f6c634300080d003360a080604052346100235733608052610c0b90816100298239608051816103dd0152f35b600080fdfe60806040526004361015610013575b600080fd5b6000803560e01c9081634ce34aa21461006657508063899e104c1461005d5780638df25d92146100545763c4e8fcb51461004c57600080fd5b61000e610378565b5061000e6102c0565b5061000e6101b4565b3461014f5760207ffffffffffffffffffffffffffffffffffffffffffffffffffffffffffffffffc36011261014f5760043567ffffffffffffffff811161014b576100b5903690600401610152565b91338152806020526100ce60ff60408320541615151590565b610121575b828110610105576040517f4ce34aa2000000000000000000000000000000000000000000000000000000008152602090f35b8061011b6101166001938686610498565b61052a565b016100d3565b7f6821b7df0000000000000000000000000000000000000000000000000000000060805260046080fd5b5080fd5b80fd5b9181601f8401121561000e5782359167ffffffffffffffff831161000e5760208085019460c0850201011161000e57565b9181601f8401121561000e5782359167ffffffffffffffff831161000e576020808501948460051b01011161000e57565b503461000e5760407ffffffffffffffffffffffffffffffffffffffffffffffffffffffffffffffffc36011261000e5767ffffffffffffffff60043581811161000e57610205903690600401610152565b9160243590811161000e5761021e903690600401610183565b91909233600052600060205261023c60ff6040600020541615151590565b6102965760005b81811061027f576102548486610a28565b6040517f899e104c000000000000000000000000000000000000000000000000000000008152602090f35b806102906101166001938587610498565b01610243565b60046040517f6821b7df000000000000000000000000000000000000000000000000000000008152fd5b503461000e5760207ffffffffffffffffffffffffffffffffffffffffffffffffffffffffffffffffc36011261000e5760043567ffffffffffffffff811161000e57610310903690600401610183565b33600052600060205260ff60406000205416156102965761033091610a28565b60206040517f8df25d92000000000000000000000000000000000000000000000000000000008152f35b73ffffffffffffffffffffffffffffffffffffffff81160361000e57565b503461000e576040807ffffffffffffffffffffffffffffffffffffffffffffffffffffffffffffffffc36011261000e57600435906103b68261035a565b6024359182151580930361000e5773ffffffffffffffffffffffffffffffffffffffff90817f000000000000000000000000000000000000000000000000000000000000000016330361046f576000937fae63067d43ac07563b7eb8db6595635fc77f1578a2a5ea06ba91b63e2afa37e29284921690818652856020528286207fffffffffffffffffffffffffffffffffffffffffffffffffffffffffffffff0081541660ff831617905582519182526020820152a151f35b600483517f6d5769be000000000000000000000000000000000000000000000000000000008152fd5b91908110156104a85760c0020190565b7f4e487b7100000000000000000000000000000000000000000000000000000000600052603260045260246000fd5b600411156104e157565b7f4e487b7100000000000000000000000000000000000000000000000000000000600052602160045260246000fd5b35600481101561000e5790565b356105278161035a565b90565b600161053582610510565b61053e816104d7565b0361057957806105536020610577930161051d565b906105606040820161051d565b60a061056e6060840161051d565b92013592610678565b565b600261058482610510565b61058d816104d7565b036105fc57600160a0820135036105d257806105ae6020610577930161051d565b906105bb6040820161051d565b60806105c96060840161051d565b920135926107e5565b60046040517fefcc00b1000000000000000000000000000000000000000000000000000000008152fd5b600361060782610510565b610610816104d7565b0361064e57806106256020610577930161051d565b6106316040830161051d565b61063d6060840161051d565b90608060a0850135940135926108f0565b60046040517f7932f1fc000000000000000000000000000000000000000000000000000000008152fd5b9092604051926000947f23b872dd00000000000000000000000000000000000000000000000000000000865280600452816024528260445260208660648180885af1803d15601f3d1160018a51141617163d15158116156106e2575b505050505050604052606052565b80863b1515166106d45790879596911561072257602486887f5f15d672000000000000000000000000000000000000000000000000000000008252600452fd5b1561075c57506084947f98891923000000000000000000000000000000000000000000000000000000008552600452602452604452606452fd5b3d61079b575b5060a4947ff486bc8700000000000000000000000000000000000000000000000000000000855260045260245260445281606452608452fd5b3d60051c9060051c9080600302918082116107cc575b505060205a9101106107c35785610762565b833d81803e3d90fd5b8080600392028380020360091c920302010186806107b1565b9092813b156108c257604051926000947f23b872dd000000000000000000000000000000000000000000000000000000008652806004528160245282604452858060648180885af11561083e5750505050604052606052565b8593943d610881575b5060a4947ff486bc870000000000000000000000000000000000000000000000000000000085526004526024526044526064526001608452fd5b3d60051c9060051c9080600302918082116108a9575b505060205a9101106107c35785610847565b8080600392028380020360091c92030201018680610897565b507f5f15d6720000000000000000000000000000000000000000000000000000000060005260045260246000fd5b929093833b156109fa57604051936080519160a0519360c051956000987ff242432a000000000000000000000000000000000000000000000000000000008a528060045281602452826044528360645260a06084528960a452898060c48180895af11561096d57505050505060805260a05260c052604052606052565b89949550883d6109b0575b5060a4957ff486bc87000000000000000000000000000000000000000000000000000000008652600452602452604452606452608452fd5b3d60051c9060051c9080600302918082116109e1575b505060205a9101106109d85786610978565b843d81803e3d90fd5b8080600392028380020360091c920302010187806109c6565b837f5f15d6720000000000000000000000000000000000000000000000000000000060005260045260246000fd5b9190826020937f2eb2c2d600000000000000000000000000000000000000000000000000000000855260005b838110610a68575050505090506080604052565b82860192602490358301608080828a01843760a0918281018035918260061b9460e0860160a4526000610144870152856101040192866040019060c43760059380851b9160c090838201888601351490606086013514169284010135141615610bab573594853b15610b7f5750600080828d82895af115610af0575050505050600101610a54565b908a92913d610b37575b5050610128937fafc445e2000000000000000000000000000000000000000000000000000000006000526004526044526084908151019052016000fd5b3d821c911c90600381810292808311610b68575b505050825a910110610b5e578480610afa565b3d6000803e3d6000fd5b8080028380020360091c9203020101858080610b4b565b857f5f15d672000000000000000000000000000000000000000000000000000000006000526004526000fd5b7feba2084c0000000000000000000000000000000000000000000000000000000060005260046000fdfea26469706673582212202e490d93d744ec3c60513ff515e1b5ba4801751166dfb42cd53a25d76767d3ae64736f6c634300080d0033",
          "opcodes": "PUSH1 0xC0 DUP1 PUSH1 0x40 MSTORE CALLVALUE PUSH3 0xEA JUMPI PUSH1 0x0 SWAP1 PUSH2 0xC34 SWAP1 PUSH1 0x1 PUSH1 0x1 PUSH1 0x40 SHL SUB PUSH1 0x3F DUP4 ADD PUSH1 0x1F NOT AND DUP3 ADD DUP2 DUP2 GT DUP4 DUP3 LT OR PUSH3 0xDA JUMPI JUMPDEST PUSH1 0x40 MSTORE DUP3 DUP3 MSTORE PUSH3 0x21F1 SWAP2 PUSH1 0x20 DUP2 ADD SWAP1 DUP5 DUP5 DUP4 CODECOPY MLOAD SWAP1 KECCAK256 PUSH1 0x80 MSTORE PUSH1 0x40 MLOAD SWAP3 DUP4 SWAP3 DUP2 DUP5 ADD SWAP3 DUP4 GT DUP5 DUP5 LT OR PUSH3 0xCA JUMPI JUMPDEST DUP4 CODECOPY SUB SWAP1 DUP3 CREATE2 DUP1 ISZERO PUSH3 0xBA JUMPI JUMPDEST PUSH1 0x1 PUSH1 0x1 PUSH1 0xA0 SHL SUB AND EXTCODEHASH PUSH1 0xA0 MSTORE PUSH1 0x40 MLOAD PUSH2 0x20DD SWAP1 DUP2 PUSH3 0x114 DUP3 CODECOPY PUSH1 0x80 MLOAD DUP2 DUP2 DUP2 PUSH2 0x2B1 ADD MSTORE DUP2 DUP2 PUSH2 0xB53 ADD MSTORE PUSH2 0xC6F ADD MSTORE PUSH1 0xA0 MLOAD DUP2 DUP2 DUP2 PUSH2 0x2D4 ADD MSTORE DUP2 DUP2 PUSH2 0xBE9 ADD MSTORE PUSH2 0xD12 ADD MSTORE RETURN JUMPDEST PUSH3 0xC4 PUSH3 0x106 JUMP JUMPDEST PUSH3 0x6F JUMP JUMPDEST PUSH3 0xD4 PUSH3 0xEF JUMP JUMPDEST PUSH3 0x61 JUMP JUMPDEST PUSH3 0xE4 PUSH3 0xEF JUMP JUMPDEST PUSH3 0x31 JUMP JUMPDEST PUSH1 0x0 DUP1 REVERT JUMPDEST POP PUSH4 0x4E487B71 PUSH1 0xE0 SHL PUSH1 0x0 MSTORE PUSH1 0x41 PUSH1 0x4 MSTORE PUSH1 0x24 PUSH1 0x0 REVERT JUMPDEST POP PUSH1 0x40 MLOAD RETURNDATASIZE PUSH1 0x0 DUP3 RETURNDATACOPY RETURNDATASIZE SWAP1 REVERT INVALID PUSH1 0x80 PUSH1 0x40 MSTORE PUSH1 0x4 CALLDATASIZE LT ISZERO PUSH2 0x13 JUMPI JUMPDEST PUSH1 0x0 DUP1 REVERT JUMPDEST PUSH1 0x0 CALLDATALOAD PUSH1 0xE0 SHR DUP1 PUSH4 0x27CC764 EQ PUSH2 0x12B JUMPI DUP1 PUSH4 0xA96AD39 EQ PUSH2 0x122 JUMPI DUP1 PUSH4 0x13AD9CAB EQ PUSH2 0x119 JUMPI DUP1 PUSH4 0x14AFD79E EQ PUSH2 0x110 JUMPI DUP1 PUSH4 0x33BC8572 EQ PUSH2 0x107 JUMPI DUP1 PUSH4 0x4E3F9580 EQ PUSH2 0xFE JUMPI DUP1 PUSH4 0x51710E45 EQ PUSH2 0xF5 JUMPI DUP1 PUSH4 0x6D435421 EQ PUSH2 0xEC JUMPI DUP1 PUSH4 0x6E9BFD9F EQ PUSH2 0xE3 JUMPI DUP1 PUSH4 0x794593BC EQ PUSH2 0xDA JUMPI DUP1 PUSH4 0x7B37E561 EQ PUSH2 0xD1 JUMPI DUP1 PUSH4 0x8B9E028B EQ PUSH2 0xC8 JUMPI DUP1 PUSH4 0x906C87CC EQ PUSH2 0xBF JUMPI PUSH4 0x93790F44 EQ PUSH2 0xB7 JUMPI PUSH1 0x0 DUP1 REVERT JUMPDEST PUSH2 0xE PUSH2 0x1142 JUMP JUMPDEST POP PUSH2 0xE PUSH2 0x10CE JUMP JUMPDEST POP PUSH2 0xE PUSH2 0x1010 JUMP JUMPDEST POP PUSH2 0xE PUSH2 0xF07 JUMP JUMPDEST POP PUSH2 0xE PUSH2 0xC11 JUMP JUMPDEST POP PUSH2 0xE PUSH2 0xAC3 JUMP JUMPDEST POP PUSH2 0xE PUSH2 0x9A7 JUMP JUMPDEST POP PUSH2 0xE PUSH2 0x74B JUMP JUMPDEST POP PUSH2 0xE PUSH2 0x6D9 JUMP JUMPDEST POP PUSH2 0xE PUSH2 0x635 JUMP JUMPDEST POP PUSH2 0xE PUSH2 0x5C1 JUMP JUMPDEST POP PUSH2 0xE PUSH2 0x2FA JUMP JUMPDEST POP PUSH2 0xE PUSH2 0x27B JUMP JUMPDEST POP PUSH2 0xE PUSH2 0x17A JUMP JUMPDEST PUSH1 0x4 CALLDATALOAD SWAP1 PUSH20 0xFFFFFFFFFFFFFFFFFFFFFFFFFFFFFFFFFFFFFFFF DUP3 AND DUP3 SUB PUSH2 0xE JUMPI JUMP JUMPDEST PUSH1 0x24 CALLDATALOAD SWAP1 PUSH20 0xFFFFFFFFFFFFFFFFFFFFFFFFFFFFFFFFFFFFFFFF DUP3 AND DUP3 SUB PUSH2 0xE JUMPI JUMP JUMPDEST POP CALLVALUE PUSH2 0xE JUMPI PUSH1 0x40 PUSH32 0xFFFFFFFFFFFFFFFFFFFFFFFFFFFFFFFFFFFFFFFFFFFFFFFFFFFFFFFFFFFFFFFC CALLDATASIZE ADD SLT PUSH2 0xE JUMPI PUSH2 0x1B2 PUSH2 0x134 JUMP JUMPDEST PUSH1 0x24 CALLDATALOAD SWAP1 PUSH2 0x1BF DUP2 PUSH2 0x1448 JUMP JUMPDEST PUSH20 0xFFFFFFFFFFFFFFFFFFFFFFFFFFFFFFFFFFFFFFFF DUP1 SWAP2 AND SWAP2 PUSH1 0x0 DUP4 DUP2 MSTORE DUP1 PUSH1 0x20 MSTORE PUSH1 0x3 PUSH1 0x40 DUP3 KECCAK256 ADD SLOAD DUP3 LT ISZERO PUSH2 0x23F JUMPI SWAP1 PUSH1 0x3 PUSH1 0x40 DUP4 PUSH2 0x23B SWAP7 PUSH2 0x20A SWAP6 MSTORE DUP1 PUSH1 0x20 MSTORE KECCAK256 ADD PUSH2 0x12D4 JUMP JUMPDEST SWAP1 SLOAD SWAP1 PUSH1 0x3 SHL SHR AND PUSH1 0x40 MLOAD SWAP2 DUP3 SWAP2 DUP3 SWAP2 SWAP1 SWAP2 PUSH20 0xFFFFFFFFFFFFFFFFFFFFFFFFFFFFFFFFFFFFFFFF PUSH1 0x20 DUP3 ADD SWAP4 AND SWAP1 MSTORE JUMP JUMPDEST SUB SWAP1 RETURN JUMPDEST PUSH1 0x24 DUP5 PUSH1 0x40 MLOAD SWAP1 PUSH32 0x6CEB340B00000000000000000000000000000000000000000000000000000000 DUP3 MSTORE PUSH1 0x4 DUP3 ADD MSTORE REVERT JUMPDEST PUSH1 0x0 SWAP2 SUB SLT PUSH2 0xE JUMPI JUMP JUMPDEST POP CALLVALUE PUSH2 0xE JUMPI PUSH1 0x0 PUSH32 0xFFFFFFFFFFFFFFFFFFFFFFFFFFFFFFFFFFFFFFFFFFFFFFFFFFFFFFFFFFFFFFFC CALLDATASIZE ADD SLT PUSH2 0xE JUMPI PUSH1 0x40 DUP1 MLOAD PUSH32 0x0 DUP2 MSTORE PUSH32 0x0 PUSH1 0x20 DUP3 ADD MSTORE RETURN JUMPDEST POP CALLVALUE PUSH2 0xE JUMPI PUSH1 0x60 PUSH32 0xFFFFFFFFFFFFFFFFFFFFFFFFFFFFFFFFFFFFFFFFFFFFFFFFFFFFFFFFFFFFFFFC CALLDATASIZE ADD SLT PUSH2 0xE JUMPI PUSH2 0x332 PUSH2 0x134 JUMP JUMPDEST PUSH2 0x33A PUSH2 0x157 JUMP JUMPDEST SWAP1 PUSH1 0x44 CALLDATALOAD SWAP2 DUP3 ISZERO SWAP2 DUP3 ISZERO DUP5 SUB PUSH2 0xE JUMPI PUSH2 0x353 DUP2 PUSH2 0x13D9 JUMP JUMPDEST PUSH20 0xFFFFFFFFFFFFFFFFFFFFFFFFFFFFFFFFFFFFFFFF DUP2 AND SWAP1 DUP2 EXTCODESIZE ISZERO PUSH2 0xE JUMPI PUSH1 0x40 MLOAD PUSH32 0xC4E8FCB500000000000000000000000000000000000000000000000000000000 DUP2 MSTORE PUSH20 0xFFFFFFFFFFFFFFFFFFFFFFFFFFFFFFFFFFFFFFFF DUP5 AND PUSH1 0x4 DUP3 ADD MSTORE DUP6 ISZERO ISZERO PUSH1 0x24 DUP3 ADD MSTORE PUSH2 0x401 SWAP3 PUSH1 0x0 SWAP1 DUP3 SWAP1 PUSH1 0x44 SWAP1 DUP3 SWAP1 DUP5 SWAP1 GAS CALL DUP1 ISZERO PUSH2 0x5B4 JUMPI JUMPDEST PUSH2 0x59B JUMPI JUMPDEST POP PUSH20 0xFFFFFFFFFFFFFFFFFFFFFFFFFFFFFFFFFFFFFFFF AND PUSH1 0x0 MSTORE PUSH1 0x0 PUSH1 0x20 MSTORE PUSH1 0x40 PUSH1 0x0 KECCAK256 SWAP1 JUMP JUMPDEST SWAP3 PUSH1 0x4 DUP5 ADD SWAP3 PUSH2 0x431 DUP4 DUP6 SWAP1 PUSH20 0xFFFFFFFFFFFFFFFFFFFFFFFFFFFFFFFFFFFFFFFF AND PUSH1 0x0 MSTORE PUSH1 0x20 MSTORE PUSH1 0x40 PUSH1 0x0 KECCAK256 SWAP1 JUMP JUMPDEST SLOAD SWAP2 DUP3 ISZERO SWAP1 DUP1 PUSH2 0x594 JUMPI JUMPDEST ISZERO PUSH2 0x481 JUMPI POP POP POP PUSH1 0x3 PUSH2 0x47D SWAP3 SWAP4 ADD PUSH2 0x456 DUP3 DUP3 PUSH2 0x13A2 JUMP JUMPDEST SLOAD SWAP3 SWAP1 PUSH20 0xFFFFFFFFFFFFFFFFFFFFFFFFFFFFFFFFFFFFFFFF AND PUSH1 0x0 MSTORE PUSH1 0x20 MSTORE PUSH1 0x40 PUSH1 0x0 KECCAK256 SWAP1 JUMP JUMPDEST SSTORE JUMPDEST STOP JUMPDEST SWAP2 SWAP5 SWAP4 SWAP2 DUP2 PUSH2 0x58B JUMPI JUMPDEST POP PUSH2 0x492 JUMPI STOP JUMPDEST PUSH2 0x4C5 PUSH2 0x47D SWAP4 DUP6 PUSH1 0x3 PUSH2 0x4A7 PUSH1 0x0 SWAP9 PUSH2 0x1278 JUMP JUMPDEST SWAP3 ADD SWAP2 PUSH2 0x4B4 DUP4 SLOAD PUSH2 0x1278 JUMP JUMPDEST SWAP1 DUP1 DUP3 SUB PUSH2 0x4EA JUMPI JUMPDEST POP POP POP PUSH2 0x131B JUMP JUMPDEST SWAP1 PUSH20 0xFFFFFFFFFFFFFFFFFFFFFFFFFFFFFFFFFFFFFFFF AND PUSH1 0x0 MSTORE PUSH1 0x20 MSTORE PUSH1 0x40 PUSH1 0x0 KECCAK256 SWAP1 JUMP JUMPDEST PUSH2 0x55C PUSH2 0x52A SWAP2 PUSH2 0x521 PUSH2 0x501 PUSH2 0x582 SWAP6 DUP9 PUSH2 0x12D4 JUMP JUMPDEST SWAP1 SLOAD PUSH20 0xFFFFFFFFFFFFFFFFFFFFFFFFFFFFFFFFFFFFFFFF SWAP2 PUSH1 0x3 SHL SHR AND SWAP1 JUMP JUMPDEST SWAP3 DUP4 SWAP2 DUP8 PUSH2 0x12D4 JUMP JUMPDEST SWAP1 SWAP2 SWAP1 DUP3 SLOAD SWAP1 PUSH1 0x3 SHL SWAP2 PUSH20 0xFFFFFFFFFFFFFFFFFFFFFFFFFFFFFFFFFFFFFFFF SWAP3 DUP4 DUP2 SHL SWAP4 DUP5 SWAP3 AND SWAP1 SHL AND SWAP2 NOT AND OR SWAP1 SSTORE JUMP JUMPDEST DUP6 SWAP1 PUSH20 0xFFFFFFFFFFFFFFFFFFFFFFFFFFFFFFFFFFFFFFFF AND PUSH1 0x0 MSTORE PUSH1 0x20 MSTORE PUSH1 0x40 PUSH1 0x0 KECCAK256 SWAP1 JUMP JUMPDEST SSTORE CODESIZE DUP1 DUP1 PUSH2 0x4BD JUMP JUMPDEST SWAP1 POP ISZERO CODESIZE PUSH2 0x48B JUMP JUMPDEST POP DUP1 PUSH2 0x43C JUMP JUMPDEST DUP1 PUSH2 0x5A8 PUSH2 0x5AE SWAP3 PUSH2 0x1209 JUMP JUMPDEST DUP1 PUSH2 0x270 JUMP JUMPDEST CODESIZE PUSH2 0x3DA JUMP JUMPDEST PUSH2 0x5BC PUSH2 0x126B JUMP JUMPDEST PUSH2 0x3D5 JUMP JUMPDEST POP CALLVALUE PUSH2 0xE JUMPI PUSH1 0x20 PUSH32 0xFFFFFFFFFFFFFFFFFFFFFFFFFFFFFFFFFFFFFFFFFFFFFFFFFFFFFFFFFFFFFFFC CALLDATASIZE ADD SLT PUSH2 0xE JUMPI PUSH1 0x20 PUSH2 0x5FB PUSH2 0x134 JUMP JUMPDEST PUSH2 0x604 DUP2 PUSH2 0x1448 JUMP JUMPDEST PUSH20 0xFFFFFFFFFFFFFFFFFFFFFFFFFFFFFFFFFFFFFFFF DUP1 SWAP2 AND PUSH1 0x0 MSTORE PUSH1 0x0 DUP3 MSTORE PUSH1 0x1 PUSH1 0x40 PUSH1 0x0 KECCAK256 ADD SLOAD AND PUSH1 0x40 MLOAD SWAP1 DUP2 MSTORE RETURN JUMPDEST POP CALLVALUE PUSH2 0xE JUMPI PUSH1 0x40 PUSH32 0xFFFFFFFFFFFFFFFFFFFFFFFFFFFFFFFFFFFFFFFFFFFFFFFFFFFFFFFFFFFFFFFC CALLDATASIZE ADD SLT PUSH2 0xE JUMPI PUSH1 0x20 PUSH2 0x6CE PUSH2 0x672 PUSH2 0x134 JUMP JUMPDEST PUSH20 0xFFFFFFFFFFFFFFFFFFFFFFFFFFFFFFFFFFFFFFFF PUSH2 0x68F PUSH2 0x157 JUMP JUMPDEST SWAP2 PUSH2 0x699 DUP2 PUSH2 0x1448 JUMP JUMPDEST AND PUSH1 0x0 MSTORE PUSH1 0x0 DUP4 MSTORE PUSH1 0x4 PUSH1 0x40 PUSH1 0x0 KECCAK256 ADD SWAP1 PUSH20 0xFFFFFFFFFFFFFFFFFFFFFFFFFFFFFFFFFFFFFFFF AND PUSH1 0x0 MSTORE PUSH1 0x20 MSTORE PUSH1 0x40 PUSH1 0x0 KECCAK256 SWAP1 JUMP JUMPDEST SLOAD ISZERO ISZERO PUSH1 0x40 MLOAD SWAP1 DUP2 MSTORE RETURN JUMPDEST POP CALLVALUE PUSH2 0xE JUMPI PUSH1 0x20 PUSH32 0xFFFFFFFFFFFFFFFFFFFFFFFFFFFFFFFFFFFFFFFFFFFFFFFFFFFFFFFFFFFFFFFC CALLDATASIZE ADD SLT PUSH2 0xE JUMPI PUSH20 0xFFFFFFFFFFFFFFFFFFFFFFFFFFFFFFFFFFFFFFFF PUSH2 0x726 PUSH2 0x134 JUMP JUMPDEST PUSH2 0x72F DUP2 PUSH2 0x1448 JUMP JUMPDEST AND PUSH1 0x0 MSTORE PUSH1 0x0 PUSH1 0x20 MSTORE PUSH1 0x20 PUSH1 0x3 PUSH1 0x40 PUSH1 0x0 KECCAK256 ADD SLOAD PUSH1 0x40 MLOAD SWAP1 DUP2 MSTORE RETURN JUMPDEST POP CALLVALUE PUSH2 0xE JUMPI PUSH1 0x20 PUSH32 0xFFFFFFFFFFFFFFFFFFFFFFFFFFFFFFFFFFFFFFFFFFFFFFFFFFFFFFFFFFFFFFFC CALLDATASIZE ADD SLT PUSH2 0xE JUMPI PUSH2 0x783 PUSH2 0x134 JUMP JUMPDEST PUSH2 0x78C DUP2 PUSH2 0x1448 JUMP JUMPDEST PUSH2 0x7F2 PUSH2 0x7D9 PUSH1 0x2 PUSH2 0x7BE DUP5 PUSH20 0xFFFFFFFFFFFFFFFFFFFFFFFFFFFFFFFFFFFFFFFF AND PUSH1 0x0 MSTORE PUSH1 0x0 PUSH1 0x20 MSTORE PUSH1 0x40 PUSH1 0x0 KECCAK256 SWAP1 JUMP JUMPDEST ADD SLOAD PUSH20 0xFFFFFFFFFFFFFFFFFFFFFFFFFFFFFFFFFFFFFFFF AND SWAP1 JUMP JUMPDEST PUSH20 0xFFFFFFFFFFFFFFFFFFFFFFFFFFFFFFFFFFFFFFFF AND SWAP1 JUMP JUMPDEST CALLER SUB PUSH2 0x95E JUMPI DUP1 PUSH20 0xFFFFFFFFFFFFFFFFFFFFFFFFFFFFFFFFFFFFFFFF PUSH2 0x47F SWAP3 AND PUSH1 0x0 DUP2 PUSH32 0xD4116AAF34F80123D0229F02F46F776B386A377DBB3404BE10FDF4E81BA9CDB6 DUP3 PUSH1 0x40 MLOAD LOG3 PUSH2 0x894 PUSH1 0x2 PUSH2 0x86B DUP5 PUSH20 0xFFFFFFFFFFFFFFFFFFFFFFFFFFFFFFFFFFFFFFFF AND PUSH1 0x0 MSTORE PUSH1 0x0 PUSH1 0x20 MSTORE PUSH1 0x40 PUSH1 0x0 KECCAK256 SWAP1 JUMP JUMPDEST ADD PUSH32 0xFFFFFFFFFFFFFFFFFFFFFFFF0000000000000000000000000000000000000000 DUP2 SLOAD AND SWAP1 SSTORE JUMP JUMPDEST CALLER SWAP1 PUSH2 0x8C8 PUSH2 0x7D9 PUSH1 0x1 PUSH2 0x7BE DUP7 PUSH20 0xFFFFFFFFFFFFFFFFFFFFFFFFFFFFFFFFFFFFFFFF AND PUSH1 0x0 MSTORE PUSH1 0x0 PUSH1 0x20 MSTORE PUSH1 0x40 PUSH1 0x0 KECCAK256 SWAP1 JUMP JUMPDEST SWAP1 PUSH32 0xC8894F26F396CE8C004245C8B7CD1B92103A6E4302FCBAB883987149AC01B7EC PUSH1 0x0 PUSH1 0x40 MLOAD LOG4 PUSH1 0x1 PUSH2 0x91D CALLER SWAP3 PUSH20 0xFFFFFFFFFFFFFFFFFFFFFFFFFFFFFFFFFFFFFFFF AND PUSH1 0x0 MSTORE PUSH1 0x0 PUSH1 0x20 MSTORE PUSH1 0x40 PUSH1 0x0 KECCAK256 SWAP1 JUMP JUMPDEST ADD SWAP1 PUSH20 0xFFFFFFFFFFFFFFFFFFFFFFFFFFFFFFFFFFFFFFFF AND PUSH32 0xFFFFFFFFFFFFFFFFFFFFFFFF0000000000000000000000000000000000000000 DUP3 SLOAD AND OR SWAP1 SSTORE JUMP JUMPDEST PUSH1 0x40 MLOAD PUSH32 0x88C3A11500000000000000000000000000000000000000000000000000000000 DUP2 MSTORE PUSH20 0xFFFFFFFFFFFFFFFFFFFFFFFFFFFFFFFFFFFFFFFF SWAP2 SWAP1 SWAP2 AND PUSH1 0x4 DUP3 ADD MSTORE PUSH1 0x24 SWAP1 REVERT JUMPDEST POP CALLVALUE PUSH2 0xE JUMPI PUSH1 0x40 PUSH32 0xFFFFFFFFFFFFFFFFFFFFFFFFFFFFFFFFFFFFFFFFFFFFFFFFFFFFFFFFFFFFFFFC CALLDATASIZE ADD SLT PUSH2 0xE JUMPI PUSH2 0x9DF PUSH2 0x134 JUMP JUMPDEST PUSH2 0x9E7 PUSH2 0x157 JUMP JUMPDEST SWAP1 PUSH2 0x9F1 DUP2 PUSH2 0x13D9 JUMP JUMPDEST PUSH20 0xFFFFFFFFFFFFFFFFFFFFFFFFFFFFFFFFFFFFFFFF DUP1 DUP4 AND SWAP2 DUP3 ISZERO PUSH2 0xA91 JUMPI SWAP3 PUSH2 0xA8F SWAP2 PUSH1 0x0 SWAP5 AND PUSH1 0x40 MLOAD SWAP4 DUP2 PUSH32 0xD4116AAF34F80123D0229F02F46F776B386A377DBB3404BE10FDF4E81BA9CDB6 DUP8 DUP8 LOG3 DUP5 MSTORE DUP4 PUSH1 0x20 MSTORE PUSH1 0x2 PUSH1 0x40 DUP6 KECCAK256 ADD SWAP1 PUSH20 0xFFFFFFFFFFFFFFFFFFFFFFFFFFFFFFFFFFFFFFFF AND PUSH32 0xFFFFFFFFFFFFFFFFFFFFFFFF0000000000000000000000000000000000000000 DUP3 SLOAD AND OR SWAP1 SSTORE JUMP JUMPDEST RETURN JUMPDEST PUSH1 0x24 SWAP2 PUSH1 0x40 MLOAD SWAP2 PUSH32 0xA388D26300000000000000000000000000000000000000000000000000000000 DUP4 MSTORE AND PUSH1 0x4 DUP3 ADD MSTORE REVERT JUMPDEST POP CALLVALUE PUSH2 0xE JUMPI PUSH1 0x20 PUSH32 0xFFFFFFFFFFFFFFFFFFFFFFFFFFFFFFFFFFFFFFFFFFFFFFFFFFFFFFFFFFFFFFFC CALLDATASIZE ADD SLT PUSH2 0xE JUMPI PUSH1 0x40 MLOAD PUSH32 0xFF00000000000000000000000000000000000000000000000000000000000000 PUSH1 0x20 DUP3 ADD SWAP1 DUP2 MSTORE ADDRESS PUSH1 0x60 SHL PUSH32 0xFFFFFFFFFFFFFFFFFFFFFFFFFFFFFFFFFFFFFFFF000000000000000000000000 AND PUSH1 0x21 DUP4 ADD MSTORE PUSH1 0x4 CALLDATALOAD PUSH1 0x35 DUP4 ADD MSTORE PUSH32 0x0 PUSH1 0x55 DUP4 ADD MSTORE PUSH20 0xFFFFFFFFFFFFFFFFFFFFFFFFFFFFFFFFFFFFFFFF SWAP2 PUSH2 0xBC2 DUP2 PUSH1 0x75 DUP2 ADD JUMPDEST SUB PUSH32 0xFFFFFFFFFFFFFFFFFFFFFFFFFFFFFFFFFFFFFFFFFFFFFFFFFFFFFFFFFFFFFFE0 DUP2 ADD DUP4 MSTORE DUP3 PUSH2 0x122A JUMP JUMPDEST MLOAD SWAP1 KECCAK256 PUSH1 0x40 DUP1 MLOAD SWAP3 SWAP1 SWAP2 AND PUSH20 0xFFFFFFFFFFFFFFFFFFFFFFFFFFFFFFFFFFFFFFFF DUP2 AND DUP4 MSTORE EXTCODEHASH PUSH32 0x0 EQ PUSH1 0x20 DUP4 ADD MSTORE SWAP1 RETURN JUMPDEST POP CALLVALUE PUSH2 0xE JUMPI PUSH1 0x40 DUP1 PUSH32 0xFFFFFFFFFFFFFFFFFFFFFFFFFFFFFFFFFFFFFFFFFFFFFFFFFFFFFFFFFFFFFFFC CALLDATASIZE ADD SLT PUSH2 0xE JUMPI PUSH1 0x4 CALLDATALOAD SWAP1 PUSH2 0xC4E PUSH2 0x157 JUMP JUMPDEST SWAP1 CALLER DUP4 PUSH1 0x60 SHR SUB PUSH2 0xEDE JUMPI PUSH2 0xD0D PUSH2 0x7D9 DUP3 MLOAD PUSH1 0x20 DUP2 ADD SWAP1 PUSH2 0xCF1 DUP2 PUSH2 0xB96 PUSH32 0x0 DUP11 ADDRESS DUP8 SWAP2 PUSH32 0xFFFFFFFFFFFFFFFFFFFFFFFFFFFFFFFFFFFFFFFF000000000000000000000000 PUSH1 0x55 SWAP5 SWAP3 PUSH32 0xFF00000000000000000000000000000000000000000000000000000000000000 DUP6 MSTORE PUSH1 0x60 SHL AND PUSH1 0x1 DUP5 ADD MSTORE PUSH1 0x15 DUP4 ADD MSTORE PUSH1 0x35 DUP3 ADD MSTORE ADD SWAP1 JUMP JUMPDEST MLOAD SWAP1 KECCAK256 PUSH20 0xFFFFFFFFFFFFFFFFFFFFFFFFFFFFFFFFFFFFFFFF AND SWAP1 JUMP JUMPDEST SWAP3 DUP4 EXTCODEHASH PUSH32 0x0 EQ PUSH2 0xE98 JUMPI SWAP1 PUSH32 0x4397AF6128D529B8AE0442F99DB1296D5136062597A15BBC61C1B2A6431A7D15 PUSH2 0xE17 DUP4 PUSH2 0x23B SWAP5 DUP5 MLOAD DUP1 PUSH2 0xC34 DUP1 DUP3 ADD SWAP1 DUP3 DUP3 LT PUSH8 0xFFFFFFFFFFFFFFFF DUP4 GT OR PUSH2 0xE8B JUMPI JUMPDEST PUSH2 0x1474 DUP4 CODECOPY SUB SWAP1 PUSH1 0x0 CREATE2 ISZERO PUSH2 0xE7E JUMPI JUMPDEST PUSH2 0xDBE DUP7 PUSH1 0x1 PUSH2 0x91D DUP11 PUSH20 0xFFFFFFFFFFFFFFFFFFFFFFFFFFFFFFFFFFFFFFFF AND PUSH1 0x0 MSTORE PUSH1 0x0 PUSH1 0x20 MSTORE PUSH1 0x40 PUSH1 0x0 KECCAK256 SWAP1 JUMP JUMPDEST DUP1 PUSH2 0xDE9 DUP9 PUSH20 0xFFFFFFFFFFFFFFFFFFFFFFFFFFFFFFFFFFFFFFFF AND PUSH1 0x0 MSTORE PUSH1 0x0 PUSH1 0x20 MSTORE PUSH1 0x40 PUSH1 0x0 KECCAK256 SWAP1 JUMP JUMPDEST SSTORE DUP4 MLOAD PUSH20 0xFFFFFFFFFFFFFFFFFFFFFFFFFFFFFFFFFFFFFFFF DUP9 AND DUP2 MSTORE PUSH1 0x20 DUP2 ADD SWAP2 SWAP1 SWAP2 MSTORE SWAP1 DUP2 SWAP1 PUSH1 0x40 DUP3 ADD SWAP1 JUMP JUMPDEST SUB SWAP1 LOG1 MLOAD SWAP3 DUP4 SWAP3 PUSH1 0x0 PUSH20 0xFFFFFFFFFFFFFFFFFFFFFFFFFFFFFFFFFFFFFFFF DUP1 SWAP3 AND SWAP2 DUP4 AND PUSH32 0xC8894F26F396CE8C004245C8B7CD1B92103A6E4302FCBAB883987149AC01B7EC DUP3 DUP8 LOG4 PUSH20 0xFFFFFFFFFFFFFFFFFFFFFFFFFFFFFFFFFFFFFFFF AND DUP3 MSTORE PUSH1 0x20 DUP3 ADD SWAP1 JUMP JUMPDEST PUSH2 0xE86 PUSH2 0x126B JUMP JUMPDEST PUSH2 0xD8E JUMP JUMPDEST PUSH2 0xE93 PUSH2 0x11D9 JUMP JUMPDEST PUSH2 0xD7E JUMP JUMPDEST DUP2 MLOAD PUSH32 0x6328CCB200000000000000000000000000000000000000000000000000000000 DUP2 MSTORE PUSH20 0xFFFFFFFFFFFFFFFFFFFFFFFFFFFFFFFFFFFFFFFF DUP6 AND PUSH1 0x4 DUP3 ADD MSTORE PUSH1 0x24 SWAP1 REVERT JUMPDEST PUSH1 0x4 SWAP1 MLOAD PUSH32 0xCB6E534400000000000000000000000000000000000000000000000000000000 DUP2 MSTORE REVERT JUMPDEST POP CALLVALUE PUSH2 0xE JUMPI PUSH1 0x20 PUSH32 0xFFFFFFFFFFFFFFFFFFFFFFFFFFFFFFFFFFFFFFFFFFFFFFFFFFFFFFFFFFFFFFFC CALLDATASIZE ADD SLT PUSH2 0xE JUMPI PUSH20 0xFFFFFFFFFFFFFFFFFFFFFFFFFFFFFFFFFFFFFFFF PUSH2 0xF54 PUSH2 0x134 JUMP JUMPDEST PUSH2 0xF5D DUP2 PUSH2 0x13D9 JUMP JUMPDEST AND PUSH1 0x40 MLOAD PUSH1 0x0 SWAP2 DUP3 DUP2 PUSH32 0xD4116AAF34F80123D0229F02F46F776B386A377DBB3404BE10FDF4E81BA9CDB6 DUP3 DUP6 LOG3 DUP3 MSTORE DUP2 PUSH1 0x20 MSTORE PUSH1 0x2 PUSH1 0x40 DUP4 KECCAK256 ADD PUSH32 0xFFFFFFFFFFFFFFFFFFFFFFFF0000000000000000000000000000000000000000 DUP2 SLOAD AND SWAP1 SSTORE RETURN JUMPDEST PUSH1 0x20 SWAP1 DUP2 PUSH1 0x40 DUP2 DUP4 ADD SWAP3 DUP3 DUP2 MSTORE DUP6 MLOAD DUP1 SWAP5 MSTORE ADD SWAP4 ADD SWAP2 PUSH1 0x0 JUMPDEST DUP3 DUP2 LT PUSH2 0xFE6 JUMPI POP POP POP POP SWAP1 JUMP JUMPDEST DUP4 MLOAD PUSH20 0xFFFFFFFFFFFFFFFFFFFFFFFFFFFFFFFFFFFFFFFF AND DUP6 MSTORE SWAP4 DUP2 ADD SWAP4 SWAP3 DUP2 ADD SWAP3 PUSH1 0x1 ADD PUSH2 0xFD8 JUMP JUMPDEST POP CALLVALUE PUSH2 0xE JUMPI PUSH1 0x20 DUP1 PUSH32 0xFFFFFFFFFFFFFFFFFFFFFFFFFFFFFFFFFFFFFFFFFFFFFFFFFFFFFFFFFFFFFFFC CALLDATASIZE ADD SLT PUSH2 0xE JUMPI PUSH2 0x1049 PUSH2 0x134 JUMP JUMPDEST SWAP1 PUSH2 0x1053 DUP3 PUSH2 0x1448 JUMP JUMPDEST PUSH20 0xFFFFFFFFFFFFFFFFFFFFFFFFFFFFFFFFFFFFFFFF SWAP2 DUP3 PUSH1 0x0 SWAP2 AND DUP2 MSTORE DUP1 DUP3 MSTORE PUSH1 0x3 PUSH1 0x40 DUP3 KECCAK256 ADD SWAP3 PUSH1 0x40 MLOAD SWAP1 DUP2 SWAP4 DUP1 DUP7 SLOAD SWAP4 DUP5 DUP2 MSTORE ADD SWAP6 DUP5 MSTORE DUP1 DUP5 KECCAK256 SWAP4 SWAP2 JUMPDEST DUP4 DUP4 LT PUSH2 0x10B5 JUMPI PUSH2 0x23B DUP7 PUSH2 0x10A9 DUP2 DUP11 SUB DUP3 PUSH2 0x122A JUMP JUMPDEST PUSH1 0x40 MLOAD SWAP2 DUP3 SWAP2 DUP3 PUSH2 0xFBF JUMP JUMPDEST DUP5 SLOAD DUP2 AND DUP8 MSTORE SWAP6 DUP2 ADD SWAP6 PUSH1 0x1 SWAP5 DUP6 ADD SWAP5 SWAP1 SWAP3 ADD SWAP2 PUSH2 0x1092 JUMP JUMPDEST POP CALLVALUE PUSH2 0xE JUMPI PUSH1 0x20 PUSH32 0xFFFFFFFFFFFFFFFFFFFFFFFFFFFFFFFFFFFFFFFFFFFFFFFFFFFFFFFFFFFFFFFC CALLDATASIZE ADD SLT PUSH2 0xE JUMPI PUSH1 0x20 PUSH2 0x1108 PUSH2 0x134 JUMP JUMPDEST PUSH2 0x1111 DUP2 PUSH2 0x1448 JUMP JUMPDEST PUSH20 0xFFFFFFFFFFFFFFFFFFFFFFFFFFFFFFFFFFFFFFFF DUP1 SWAP2 AND PUSH1 0x0 MSTORE PUSH1 0x0 DUP3 MSTORE PUSH1 0x2 PUSH1 0x40 PUSH1 0x0 KECCAK256 ADD SLOAD AND PUSH1 0x40 MLOAD SWAP1 DUP2 MSTORE RETURN JUMPDEST POP CALLVALUE PUSH2 0xE JUMPI PUSH1 0x20 PUSH32 0xFFFFFFFFFFFFFFFFFFFFFFFFFFFFFFFFFFFFFFFFFFFFFFFFFFFFFFFFFFFFFFFC CALLDATASIZE ADD SLT PUSH2 0xE JUMPI PUSH20 0xFFFFFFFFFFFFFFFFFFFFFFFFFFFFFFFFFFFFFFFF PUSH2 0x118F PUSH2 0x134 JUMP JUMPDEST AND PUSH1 0x0 MSTORE PUSH1 0x0 PUSH1 0x20 MSTORE PUSH1 0x40 PUSH1 0x0 KECCAK256 SLOAD DUP1 ISZERO PUSH2 0x11AF JUMPI PUSH1 0x20 SWAP1 PUSH1 0x40 MLOAD SWAP1 DUP2 MSTORE RETURN JUMPDEST PUSH1 0x4 PUSH1 0x40 MLOAD PUSH32 0x4CA8209000000000000000000000000000000000000000000000000000000000 DUP2 MSTORE REVERT JUMPDEST POP PUSH32 0x4E487B7100000000000000000000000000000000000000000000000000000000 PUSH1 0x0 MSTORE PUSH1 0x41 PUSH1 0x4 MSTORE PUSH1 0x24 PUSH1 0x0 REVERT JUMPDEST PUSH8 0xFFFFFFFFFFFFFFFF DUP2 GT PUSH2 0x121D JUMPI PUSH1 0x40 MSTORE JUMP JUMPDEST PUSH2 0x1225 PUSH2 0x11D9 JUMP JUMPDEST PUSH1 0x40 MSTORE JUMP JUMPDEST SWAP1 PUSH1 0x1F PUSH32 0xFFFFFFFFFFFFFFFFFFFFFFFFFFFFFFFFFFFFFFFFFFFFFFFFFFFFFFFFFFFFFFE0 SWAP2 ADD AND DUP2 ADD SWAP1 DUP2 LT PUSH8 0xFFFFFFFFFFFFFFFF DUP3 GT OR PUSH2 0x121D JUMPI PUSH1 0x40 MSTORE JUMP JUMPDEST POP PUSH1 0x40 MLOAD RETURNDATASIZE PUSH1 0x0 DUP3 RETURNDATACOPY RETURNDATASIZE SWAP1 REVERT JUMPDEST PUSH1 0x1 DUP2 LT PUSH2 0x12A5 JUMPI PUSH32 0xFFFFFFFFFFFFFFFFFFFFFFFFFFFFFFFFFFFFFFFFFFFFFFFFFFFFFFFFFFFFFFFF ADD SWAP1 JUMP JUMPDEST PUSH32 0x4E487B7100000000000000000000000000000000000000000000000000000000 PUSH1 0x0 MSTORE PUSH1 0x11 PUSH1 0x4 MSTORE PUSH1 0x24 PUSH1 0x0 REVERT JUMPDEST DUP1 SLOAD DUP3 LT ISZERO PUSH2 0x12EC JUMPI PUSH1 0x0 MSTORE PUSH1 0x20 PUSH1 0x0 KECCAK256 ADD SWAP1 PUSH1 0x0 SWAP1 JUMP JUMPDEST PUSH32 0x4E487B7100000000000000000000000000000000000000000000000000000000 PUSH1 0x0 MSTORE PUSH1 0x32 PUSH1 0x4 MSTORE PUSH1 0x24 PUSH1 0x0 REVERT JUMPDEST DUP1 SLOAD DUP1 ISZERO PUSH2 0x1373 JUMPI PUSH32 0xFFFFFFFFFFFFFFFFFFFFFFFFFFFFFFFFFFFFFFFFFFFFFFFFFFFFFFFFFFFFFFFF ADD SWAP1 PUSH2 0x1350 DUP3 DUP3 PUSH2 0x12D4 JUMP JUMPDEST PUSH20 0xFFFFFFFFFFFFFFFFFFFFFFFFFFFFFFFFFFFFFFFF DUP3 SLOAD SWAP2 PUSH1 0x3 SHL SHL NOT AND SWAP1 SSTORE SSTORE JUMP JUMPDEST PUSH32 0x4E487B7100000000000000000000000000000000000000000000000000000000 PUSH1 0x0 MSTORE PUSH1 0x31 PUSH1 0x4 MSTORE PUSH1 0x24 PUSH1 0x0 REVERT JUMPDEST SWAP1 PUSH2 0x52A PUSH2 0x13CA SWAP3 DUP1 SLOAD SWAP1 PUSH9 0x10000000000000000 DUP3 LT ISZERO PUSH2 0x13CC JUMPI JUMPDEST PUSH1 0x1 DUP3 ADD DUP2 SSTORE PUSH2 0x12D4 JUMP JUMPDEST JUMP JUMPDEST PUSH2 0x13D4 PUSH2 0x11D9 JUMP JUMPDEST PUSH2 0x13BF JUMP JUMPDEST PUSH2 0x13E2 DUP2 PUSH2 0x1448 JUMP JUMPDEST PUSH20 0xFFFFFFFFFFFFFFFFFFFFFFFFFFFFFFFFFFFFFFFF DUP1 SWAP2 AND SWAP1 DUP2 PUSH1 0x0 MSTORE PUSH1 0x0 PUSH1 0x20 MSTORE PUSH1 0x1 PUSH1 0x40 PUSH1 0x0 KECCAK256 ADD SLOAD AND CALLER SUB PUSH2 0x1417 JUMPI POP JUMP JUMPDEST PUSH1 0x24 SWAP1 PUSH1 0x40 MLOAD SWAP1 PUSH32 0xD4ED9A1700000000000000000000000000000000000000000000000000000000 DUP3 MSTORE PUSH1 0x4 DUP3 ADD MSTORE REVERT JUMPDEST PUSH20 0xFFFFFFFFFFFFFFFFFFFFFFFFFFFFFFFFFFFFFFFF AND PUSH1 0x0 MSTORE PUSH1 0x0 PUSH1 0x20 MSTORE PUSH1 0x40 PUSH1 0x0 KECCAK256 SLOAD ISZERO PUSH2 0x11AF JUMPI JUMP INVALID PUSH1 0xA0 DUP1 PUSH1 0x40 MSTORE CALLVALUE PUSH2 0x23 JUMPI CALLER PUSH1 0x80 MSTORE PUSH2 0xC0B SWAP1 DUP2 PUSH2 0x29 DUP3 CODECOPY PUSH1 0x80 MLOAD DUP2 PUSH2 0x3DD ADD MSTORE RETURN JUMPDEST PUSH1 0x0 DUP1 REVERT INVALID PUSH1 0x80 PUSH1 0x40 MSTORE PUSH1 0x4 CALLDATASIZE LT ISZERO PUSH2 0x13 JUMPI JUMPDEST PUSH1 0x0 DUP1 REVERT JUMPDEST PUSH1 0x0 DUP1 CALLDATALOAD PUSH1 0xE0 SHR SWAP1 DUP2 PUSH4 0x4CE34AA2 EQ PUSH2 0x66 JUMPI POP DUP1 PUSH4 0x899E104C EQ PUSH2 0x5D JUMPI DUP1 PUSH4 0x8DF25D92 EQ PUSH2 0x54 JUMPI PUSH4 0xC4E8FCB5 EQ PUSH2 0x4C JUMPI PUSH1 0x0 DUP1 REVERT JUMPDEST PUSH2 0xE PUSH2 0x378 JUMP JUMPDEST POP PUSH2 0xE PUSH2 0x2C0 JUMP JUMPDEST POP PUSH2 0xE PUSH2 0x1B4 JUMP JUMPDEST CALLVALUE PUSH2 0x14F JUMPI PUSH1 0x20 PUSH32 0xFFFFFFFFFFFFFFFFFFFFFFFFFFFFFFFFFFFFFFFFFFFFFFFFFFFFFFFFFFFFFFFC CALLDATASIZE ADD SLT PUSH2 0x14F JUMPI PUSH1 0x4 CALLDATALOAD PUSH8 0xFFFFFFFFFFFFFFFF DUP2 GT PUSH2 0x14B JUMPI PUSH2 0xB5 SWAP1 CALLDATASIZE SWAP1 PUSH1 0x4 ADD PUSH2 0x152 JUMP JUMPDEST SWAP2 CALLER DUP2 MSTORE DUP1 PUSH1 0x20 MSTORE PUSH2 0xCE PUSH1 0xFF PUSH1 0x40 DUP4 KECCAK256 SLOAD AND ISZERO ISZERO ISZERO SWAP1 JUMP JUMPDEST PUSH2 0x121 JUMPI JUMPDEST DUP3 DUP2 LT PUSH2 0x105 JUMPI PUSH1 0x40 MLOAD PUSH32 0x4CE34AA200000000000000000000000000000000000000000000000000000000 DUP2 MSTORE PUSH1 0x20 SWAP1 RETURN JUMPDEST DUP1 PUSH2 0x11B PUSH2 0x116 PUSH1 0x1 SWAP4 DUP7 DUP7 PUSH2 0x498 JUMP JUMPDEST PUSH2 0x52A JUMP JUMPDEST ADD PUSH2 0xD3 JUMP JUMPDEST PUSH32 0x6821B7DF00000000000000000000000000000000000000000000000000000000 PUSH1 0x80 MSTORE PUSH1 0x4 PUSH1 0x80 REVERT JUMPDEST POP DUP1 REVERT JUMPDEST DUP1 REVERT JUMPDEST SWAP2 DUP2 PUSH1 0x1F DUP5 ADD SLT ISZERO PUSH2 0xE JUMPI DUP3 CALLDATALOAD SWAP2 PUSH8 0xFFFFFFFFFFFFFFFF DUP4 GT PUSH2 0xE JUMPI PUSH1 0x20 DUP1 DUP6 ADD SWAP5 PUSH1 0xC0 DUP6 MUL ADD ADD GT PUSH2 0xE JUMPI JUMP JUMPDEST SWAP2 DUP2 PUSH1 0x1F DUP5 ADD SLT ISZERO PUSH2 0xE JUMPI DUP3 CALLDATALOAD SWAP2 PUSH8 0xFFFFFFFFFFFFFFFF DUP4 GT PUSH2 0xE JUMPI PUSH1 0x20 DUP1 DUP6 ADD SWAP5 DUP5 PUSH1 0x5 SHL ADD ADD GT PUSH2 0xE JUMPI JUMP JUMPDEST POP CALLVALUE PUSH2 0xE JUMPI PUSH1 0x40 PUSH32 0xFFFFFFFFFFFFFFFFFFFFFFFFFFFFFFFFFFFFFFFFFFFFFFFFFFFFFFFFFFFFFFFC CALLDATASIZE ADD SLT PUSH2 0xE JUMPI PUSH8 0xFFFFFFFFFFFFFFFF PUSH1 0x4 CALLDATALOAD DUP2 DUP2 GT PUSH2 0xE JUMPI PUSH2 0x205 SWAP1 CALLDATASIZE SWAP1 PUSH1 0x4 ADD PUSH2 0x152 JUMP JUMPDEST SWAP2 PUSH1 0x24 CALLDATALOAD SWAP1 DUP2 GT PUSH2 0xE JUMPI PUSH2 0x21E SWAP1 CALLDATASIZE SWAP1 PUSH1 0x4 ADD PUSH2 0x183 JUMP JUMPDEST SWAP2 SWAP1 SWAP3 CALLER PUSH1 0x0 MSTORE PUSH1 0x0 PUSH1 0x20 MSTORE PUSH2 0x23C PUSH1 0xFF PUSH1 0x40 PUSH1 0x0 KECCAK256 SLOAD AND ISZERO ISZERO ISZERO SWAP1 JUMP JUMPDEST PUSH2 0x296 JUMPI PUSH1 0x0 JUMPDEST DUP2 DUP2 LT PUSH2 0x27F JUMPI PUSH2 0x254 DUP5 DUP7 PUSH2 0xA28 JUMP JUMPDEST PUSH1 0x40 MLOAD PUSH32 0x899E104C00000000000000000000000000000000000000000000000000000000 DUP2 MSTORE PUSH1 0x20 SWAP1 RETURN JUMPDEST DUP1 PUSH2 0x290 PUSH2 0x116 PUSH1 0x1 SWAP4 DUP6 DUP8 PUSH2 0x498 JUMP JUMPDEST ADD PUSH2 0x243 JUMP JUMPDEST PUSH1 0x4 PUSH1 0x40 MLOAD PUSH32 0x6821B7DF00000000000000000000000000000000000000000000000000000000 DUP2 MSTORE REVERT JUMPDEST POP CALLVALUE PUSH2 0xE JUMPI PUSH1 0x20 PUSH32 0xFFFFFFFFFFFFFFFFFFFFFFFFFFFFFFFFFFFFFFFFFFFFFFFFFFFFFFFFFFFFFFFC CALLDATASIZE ADD SLT PUSH2 0xE JUMPI PUSH1 0x4 CALLDATALOAD PUSH8 0xFFFFFFFFFFFFFFFF DUP2 GT PUSH2 0xE JUMPI PUSH2 0x310 SWAP1 CALLDATASIZE SWAP1 PUSH1 0x4 ADD PUSH2 0x183 JUMP JUMPDEST CALLER PUSH1 0x0 MSTORE PUSH1 0x0 PUSH1 0x20 MSTORE PUSH1 0xFF PUSH1 0x40 PUSH1 0x0 KECCAK256 SLOAD AND ISZERO PUSH2 0x296 JUMPI PUSH2 0x330 SWAP2 PUSH2 0xA28 JUMP JUMPDEST PUSH1 0x20 PUSH1 0x40 MLOAD PUSH32 0x8DF25D9200000000000000000000000000000000000000000000000000000000 DUP2 MSTORE RETURN JUMPDEST PUSH20 0xFFFFFFFFFFFFFFFFFFFFFFFFFFFFFFFFFFFFFFFF DUP2 AND SUB PUSH2 0xE JUMPI JUMP JUMPDEST POP CALLVALUE PUSH2 0xE JUMPI PUSH1 0x40 DUP1 PUSH32 0xFFFFFFFFFFFFFFFFFFFFFFFFFFFFFFFFFFFFFFFFFFFFFFFFFFFFFFFFFFFFFFFC CALLDATASIZE ADD SLT PUSH2 0xE JUMPI PUSH1 0x4 CALLDATALOAD SWAP1 PUSH2 0x3B6 DUP3 PUSH2 0x35A JUMP JUMPDEST PUSH1 0x24 CALLDATALOAD SWAP2 DUP3 ISZERO ISZERO DUP1 SWAP4 SUB PUSH2 0xE JUMPI PUSH20 0xFFFFFFFFFFFFFFFFFFFFFFFFFFFFFFFFFFFFFFFF SWAP1 DUP2 PUSH32 0x0 AND CALLER SUB PUSH2 0x46F JUMPI PUSH1 0x0 SWAP4 PUSH32 0xAE63067D43AC07563B7EB8DB6595635FC77F1578A2A5EA06BA91B63E2AFA37E2 SWAP3 DUP5 SWAP3 AND SWAP1 DUP2 DUP7 MSTORE DUP6 PUSH1 0x20 MSTORE DUP3 DUP7 KECCAK256 PUSH32 0xFFFFFFFFFFFFFFFFFFFFFFFFFFFFFFFFFFFFFFFFFFFFFFFFFFFFFFFFFFFFFF00 DUP2 SLOAD AND PUSH1 0xFF DUP4 AND OR SWAP1 SSTORE DUP3 MLOAD SWAP2 DUP3 MSTORE PUSH1 0x20 DUP3 ADD MSTORE LOG1 MLOAD RETURN JUMPDEST PUSH1 0x4 DUP4 MLOAD PUSH32 0x6D5769BE00000000000000000000000000000000000000000000000000000000 DUP2 MSTORE REVERT JUMPDEST SWAP2 SWAP1 DUP2 LT ISZERO PUSH2 0x4A8 JUMPI PUSH1 0xC0 MUL ADD SWAP1 JUMP JUMPDEST PUSH32 0x4E487B7100000000000000000000000000000000000000000000000000000000 PUSH1 0x0 MSTORE PUSH1 0x32 PUSH1 0x4 MSTORE PUSH1 0x24 PUSH1 0x0 REVERT JUMPDEST PUSH1 0x4 GT ISZERO PUSH2 0x4E1 JUMPI JUMP JUMPDEST PUSH32 0x4E487B7100000000000000000000000000000000000000000000000000000000 PUSH1 0x0 MSTORE PUSH1 0x21 PUSH1 0x4 MSTORE PUSH1 0x24 PUSH1 0x0 REVERT JUMPDEST CALLDATALOAD PUSH1 0x4 DUP2 LT ISZERO PUSH2 0xE JUMPI SWAP1 JUMP JUMPDEST CALLDATALOAD PUSH2 0x527 DUP2 PUSH2 0x35A JUMP JUMPDEST SWAP1 JUMP JUMPDEST PUSH1 0x1 PUSH2 0x535 DUP3 PUSH2 0x510 JUMP JUMPDEST PUSH2 0x53E DUP2 PUSH2 0x4D7 JUMP JUMPDEST SUB PUSH2 0x579 JUMPI DUP1 PUSH2 0x553 PUSH1 0x20 PUSH2 0x577 SWAP4 ADD PUSH2 0x51D JUMP JUMPDEST SWAP1 PUSH2 0x560 PUSH1 0x40 DUP3 ADD PUSH2 0x51D JUMP JUMPDEST PUSH1 0xA0 PUSH2 0x56E PUSH1 0x60 DUP5 ADD PUSH2 0x51D JUMP JUMPDEST SWAP3 ADD CALLDATALOAD SWAP3 PUSH2 0x678 JUMP JUMPDEST JUMP JUMPDEST PUSH1 0x2 PUSH2 0x584 DUP3 PUSH2 0x510 JUMP JUMPDEST PUSH2 0x58D DUP2 PUSH2 0x4D7 JUMP JUMPDEST SUB PUSH2 0x5FC JUMPI PUSH1 0x1 PUSH1 0xA0 DUP3 ADD CALLDATALOAD SUB PUSH2 0x5D2 JUMPI DUP1 PUSH2 0x5AE PUSH1 0x20 PUSH2 0x577 SWAP4 ADD PUSH2 0x51D JUMP JUMPDEST SWAP1 PUSH2 0x5BB PUSH1 0x40 DUP3 ADD PUSH2 0x51D JUMP JUMPDEST PUSH1 0x80 PUSH2 0x5C9 PUSH1 0x60 DUP5 ADD PUSH2 0x51D JUMP JUMPDEST SWAP3 ADD CALLDATALOAD SWAP3 PUSH2 0x7E5 JUMP JUMPDEST PUSH1 0x4 PUSH1 0x40 MLOAD PUSH32 0xEFCC00B100000000000000000000000000000000000000000000000000000000 DUP2 MSTORE REVERT JUMPDEST PUSH1 0x3 PUSH2 0x607 DUP3 PUSH2 0x510 JUMP JUMPDEST PUSH2 0x610 DUP2 PUSH2 0x4D7 JUMP JUMPDEST SUB PUSH2 0x64E JUMPI DUP1 PUSH2 0x625 PUSH1 0x20 PUSH2 0x577 SWAP4 ADD PUSH2 0x51D JUMP JUMPDEST PUSH2 0x631 PUSH1 0x40 DUP4 ADD PUSH2 0x51D JUMP JUMPDEST PUSH2 0x63D PUSH1 0x60 DUP5 ADD PUSH2 0x51D JUMP JUMPDEST SWAP1 PUSH1 0x80 PUSH1 0xA0 DUP6 ADD CALLDATALOAD SWAP5 ADD CALLDATALOAD SWAP3 PUSH2 0x8F0 JUMP JUMPDEST PUSH1 0x4 PUSH1 0x40 MLOAD PUSH32 0x7932F1FC00000000000000000000000000000000000000000000000000000000 DUP2 MSTORE REVERT JUMPDEST SWAP1 SWAP3 PUSH1 0x40 MLOAD SWAP3 PUSH1 0x0 SWAP5 PUSH32 0x23B872DD00000000000000000000000000000000000000000000000000000000 DUP7 MSTORE DUP1 PUSH1 0x4 MSTORE DUP2 PUSH1 0x24 MSTORE DUP3 PUSH1 0x44 MSTORE PUSH1 0x20 DUP7 PUSH1 0x64 DUP2 DUP1 DUP9 GAS CALL DUP1 RETURNDATASIZE ISZERO PUSH1 0x1F RETURNDATASIZE GT PUSH1 0x1 DUP11 MLOAD EQ AND OR AND RETURNDATASIZE ISZERO ISZERO DUP2 AND ISZERO PUSH2 0x6E2 JUMPI JUMPDEST POP POP POP POP POP POP PUSH1 0x40 MSTORE PUSH1 0x60 MSTORE JUMP JUMPDEST DUP1 DUP7 EXTCODESIZE ISZERO ISZERO AND PUSH2 0x6D4 JUMPI SWAP1 DUP8 SWAP6 SWAP7 SWAP2 ISZERO PUSH2 0x722 JUMPI PUSH1 0x24 DUP7 DUP9 PUSH32 0x5F15D67200000000000000000000000000000000000000000000000000000000 DUP3 MSTORE PUSH1 0x4 MSTORE REVERT JUMPDEST ISZERO PUSH2 0x75C JUMPI POP PUSH1 0x84 SWAP5 PUSH32 0x9889192300000000000000000000000000000000000000000000000000000000 DUP6 MSTORE PUSH1 0x4 MSTORE PUSH1 0x24 MSTORE PUSH1 0x44 MSTORE PUSH1 0x64 MSTORE REVERT JUMPDEST RETURNDATASIZE PUSH2 0x79B JUMPI JUMPDEST POP PUSH1 0xA4 SWAP5 PUSH32 0xF486BC8700000000000000000000000000000000000000000000000000000000 DUP6 MSTORE PUSH1 0x4 MSTORE PUSH1 0x24 MSTORE PUSH1 0x44 MSTORE DUP2 PUSH1 0x64 MSTORE PUSH1 0x84 MSTORE REVERT JUMPDEST RETURNDATASIZE PUSH1 0x5 SHR SWAP1 PUSH1 0x5 SHR SWAP1 DUP1 PUSH1 0x3 MUL SWAP2 DUP1 DUP3 GT PUSH2 0x7CC JUMPI JUMPDEST POP POP PUSH1 0x20 GAS SWAP2 ADD LT PUSH2 0x7C3 JUMPI DUP6 PUSH2 0x762 JUMP JUMPDEST DUP4 RETURNDATASIZE DUP2 DUP1 RETURNDATACOPY RETURNDATASIZE SWAP1 REVERT JUMPDEST DUP1 DUP1 PUSH1 0x3 SWAP3 MUL DUP4 DUP1 MUL SUB PUSH1 0x9 SHR SWAP3 SUB MUL ADD ADD DUP7 DUP1 PUSH2 0x7B1 JUMP JUMPDEST SWAP1 SWAP3 DUP2 EXTCODESIZE ISZERO PUSH2 0x8C2 JUMPI PUSH1 0x40 MLOAD SWAP3 PUSH1 0x0 SWAP5 PUSH32 0x23B872DD00000000000000000000000000000000000000000000000000000000 DUP7 MSTORE DUP1 PUSH1 0x4 MSTORE DUP2 PUSH1 0x24 MSTORE DUP3 PUSH1 0x44 MSTORE DUP6 DUP1 PUSH1 0x64 DUP2 DUP1 DUP9 GAS CALL ISZERO PUSH2 0x83E JUMPI POP POP POP POP PUSH1 0x40 MSTORE PUSH1 0x60 MSTORE JUMP JUMPDEST DUP6 SWAP4 SWAP5 RETURNDATASIZE PUSH2 0x881 JUMPI JUMPDEST POP PUSH1 0xA4 SWAP5 PUSH32 0xF486BC8700000000000000000000000000000000000000000000000000000000 DUP6 MSTORE PUSH1 0x4 MSTORE PUSH1 0x24 MSTORE PUSH1 0x44 MSTORE PUSH1 0x64 MSTORE PUSH1 0x1 PUSH1 0x84 MSTORE REVERT JUMPDEST RETURNDATASIZE PUSH1 0x5 SHR SWAP1 PUSH1 0x5 SHR SWAP1 DUP1 PUSH1 0x3 MUL SWAP2 DUP1 DUP3 GT PUSH2 0x8A9 JUMPI JUMPDEST POP POP PUSH1 0x20 GAS SWAP2 ADD LT PUSH2 0x7C3 JUMPI DUP6 PUSH2 0x847 JUMP JUMPDEST DUP1 DUP1 PUSH1 0x3 SWAP3 MUL DUP4 DUP1 MUL SUB PUSH1 0x9 SHR SWAP3 SUB MUL ADD ADD DUP7 DUP1 PUSH2 0x897 JUMP JUMPDEST POP PUSH32 0x5F15D67200000000000000000000000000000000000000000000000000000000 PUSH1 0x0 MSTORE PUSH1 0x4 MSTORE PUSH1 0x24 PUSH1 0x0 REVERT JUMPDEST SWAP3 SWAP1 SWAP4 DUP4 EXTCODESIZE ISZERO PUSH2 0x9FA JUMPI PUSH1 0x40 MLOAD SWAP4 PUSH1 0x80 MLOAD SWAP2 PUSH1 0xA0 MLOAD SWAP4 PUSH1 0xC0 MLOAD SWAP6 PUSH1 0x0 SWAP9 PUSH32 0xF242432A00000000000000000000000000000000000000000000000000000000 DUP11 MSTORE DUP1 PUSH1 0x4 MSTORE DUP2 PUSH1 0x24 MSTORE DUP3 PUSH1 0x44 MSTORE DUP4 PUSH1 0x64 MSTORE PUSH1 0xA0 PUSH1 0x84 MSTORE DUP10 PUSH1 0xA4 MSTORE DUP10 DUP1 PUSH1 0xC4 DUP2 DUP1 DUP10 GAS CALL ISZERO PUSH2 0x96D JUMPI POP POP POP POP POP PUSH1 0x80 MSTORE PUSH1 0xA0 MSTORE PUSH1 0xC0 MSTORE PUSH1 0x40 MSTORE PUSH1 0x60 MSTORE JUMP JUMPDEST DUP10 SWAP5 SWAP6 POP DUP9 RETURNDATASIZE PUSH2 0x9B0 JUMPI JUMPDEST POP PUSH1 0xA4 SWAP6 PUSH32 0xF486BC8700000000000000000000000000000000000000000000000000000000 DUP7 MSTORE PUSH1 0x4 MSTORE PUSH1 0x24 MSTORE PUSH1 0x44 MSTORE PUSH1 0x64 MSTORE PUSH1 0x84 MSTORE REVERT JUMPDEST RETURNDATASIZE PUSH1 0x5 SHR SWAP1 PUSH1 0x5 SHR SWAP1 DUP1 PUSH1 0x3 MUL SWAP2 DUP1 DUP3 GT PUSH2 0x9E1 JUMPI JUMPDEST POP POP PUSH1 0x20 GAS SWAP2 ADD LT PUSH2 0x9D8 JUMPI DUP7 PUSH2 0x978 JUMP JUMPDEST DUP5 RETURNDATASIZE DUP2 DUP1 RETURNDATACOPY RETURNDATASIZE SWAP1 REVERT JUMPDEST DUP1 DUP1 PUSH1 0x3 SWAP3 MUL DUP4 DUP1 MUL SUB PUSH1 0x9 SHR SWAP3 SUB MUL ADD ADD DUP8 DUP1 PUSH2 0x9C6 JUMP JUMPDEST DUP4 PUSH32 0x5F15D67200000000000000000000000000000000000000000000000000000000 PUSH1 0x0 MSTORE PUSH1 0x4 MSTORE PUSH1 0x24 PUSH1 0x0 REVERT JUMPDEST SWAP2 SWAP1 DUP3 PUSH1 0x20 SWAP4 PUSH32 0x2EB2C2D600000000000000000000000000000000000000000000000000000000 DUP6 MSTORE PUSH1 0x0 JUMPDEST DUP4 DUP2 LT PUSH2 0xA68 JUMPI POP POP POP POP SWAP1 POP PUSH1 0x80 PUSH1 0x40 MSTORE JUMP JUMPDEST DUP3 DUP7 ADD SWAP3 PUSH1 0x24 SWAP1 CALLDATALOAD DUP4 ADD PUSH1 0x80 DUP1 DUP3 DUP11 ADD DUP5 CALLDATACOPY PUSH1 0xA0 SWAP2 DUP3 DUP2 ADD DUP1 CALLDATALOAD SWAP2 DUP3 PUSH1 0x6 SHL SWAP5 PUSH1 0xE0 DUP7 ADD PUSH1 0xA4 MSTORE PUSH1 0x0 PUSH2 0x144 DUP8 ADD MSTORE DUP6 PUSH2 0x104 ADD SWAP3 DUP7 PUSH1 0x40 ADD SWAP1 PUSH1 0xC4 CALLDATACOPY PUSH1 0x5 SWAP4 DUP1 DUP6 SHL SWAP2 PUSH1 0xC0 SWAP1 DUP4 DUP3 ADD DUP9 DUP7 ADD CALLDATALOAD EQ SWAP1 PUSH1 0x60 DUP7 ADD CALLDATALOAD EQ AND SWAP3 DUP5 ADD ADD CALLDATALOAD EQ AND ISZERO PUSH2 0xBAB JUMPI CALLDATALOAD SWAP5 DUP6 EXTCODESIZE ISZERO PUSH2 0xB7F JUMPI POP PUSH1 0x0 DUP1 DUP3 DUP14 DUP3 DUP10 GAS CALL ISZERO PUSH2 0xAF0 JUMPI POP POP POP POP POP PUSH1 0x1 ADD PUSH2 0xA54 JUMP JUMPDEST SWAP1 DUP11 SWAP3 SWAP2 RETURNDATASIZE PUSH2 0xB37 JUMPI JUMPDEST POP POP PUSH2 0x128 SWAP4 PUSH32 0xAFC445E200000000000000000000000000000000000000000000000000000000 PUSH1 0x0 MSTORE PUSH1 0x4 MSTORE PUSH1 0x44 MSTORE PUSH1 0x84 SWAP1 DUP2 MLOAD ADD SWAP1 MSTORE ADD PUSH1 0x0 REVERT JUMPDEST RETURNDATASIZE DUP3 SHR SWAP2 SHR SWAP1 PUSH1 0x3 DUP2 DUP2 MUL SWAP3 DUP1 DUP4 GT PUSH2 0xB68 JUMPI JUMPDEST POP POP POP DUP3 GAS SWAP2 ADD LT PUSH2 0xB5E JUMPI DUP5 DUP1 PUSH2 0xAFA JUMP JUMPDEST RETURNDATASIZE PUSH1 0x0 DUP1 RETURNDATACOPY RETURNDATASIZE PUSH1 0x0 REVERT JUMPDEST DUP1 DUP1 MUL DUP4 DUP1 MUL SUB PUSH1 0x9 SHR SWAP3 SUB MUL ADD ADD DUP6 DUP1 DUP1 PUSH2 0xB4B JUMP JUMPDEST DUP6 PUSH32 0x5F15D67200000000000000000000000000000000000000000000000000000000 PUSH1 0x0 MSTORE PUSH1 0x4 MSTORE PUSH1 0x0 REVERT JUMPDEST PUSH32 0xEBA2084C00000000000000000000000000000000000000000000000000000000 PUSH1 0x0 MSTORE PUSH1 0x4 PUSH1 0x0 REVERT INVALID LOG2 PUSH5 0x6970667358 0x22 SLT KECCAK256 0x2E 0x49 0xD SWAP4 0xD7 DIFFICULTY 0xEC EXTCODECOPY PUSH1 0x51 EXTCODEHASH CREATE2 ISZERO 0xE1 0xB5 0xBA BASEFEE ADD PUSH22 0x1166DFB42CD53A25D76767D3AE64736F6C634300080D STOP CALLER LOG2 PUSH5 0x6970667358 0x22 SLT KECCAK256 PUSH6 0x8ABD754F34C8 0x28 0xE0 PUSH12 0xA61269ABDC5A62196B84F8BC PUSH25 0xD46C0A10EF13A8AA9364736F6C634300080D003360A0806040 MSTORE CALLVALUE PUSH2 0x23 JUMPI CALLER PUSH1 0x80 MSTORE PUSH2 0xC0B SWAP1 DUP2 PUSH2 0x29 DUP3 CODECOPY PUSH1 0x80 MLOAD DUP2 PUSH2 0x3DD ADD MSTORE RETURN JUMPDEST PUSH1 0x0 DUP1 REVERT INVALID PUSH1 0x80 PUSH1 0x40 MSTORE PUSH1 0x4 CALLDATASIZE LT ISZERO PUSH2 0x13 JUMPI JUMPDEST PUSH1 0x0 DUP1 REVERT JUMPDEST PUSH1 0x0 DUP1 CALLDATALOAD PUSH1 0xE0 SHR SWAP1 DUP2 PUSH4 0x4CE34AA2 EQ PUSH2 0x66 JUMPI POP DUP1 PUSH4 0x899E104C EQ PUSH2 0x5D JUMPI DUP1 PUSH4 0x8DF25D92 EQ PUSH2 0x54 JUMPI PUSH4 0xC4E8FCB5 EQ PUSH2 0x4C JUMPI PUSH1 0x0 DUP1 REVERT JUMPDEST PUSH2 0xE PUSH2 0x378 JUMP JUMPDEST POP PUSH2 0xE PUSH2 0x2C0 JUMP JUMPDEST POP PUSH2 0xE PUSH2 0x1B4 JUMP JUMPDEST CALLVALUE PUSH2 0x14F JUMPI PUSH1 0x20 PUSH32 0xFFFFFFFFFFFFFFFFFFFFFFFFFFFFFFFFFFFFFFFFFFFFFFFFFFFFFFFFFFFFFFFC CALLDATASIZE ADD SLT PUSH2 0x14F JUMPI PUSH1 0x4 CALLDATALOAD PUSH8 0xFFFFFFFFFFFFFFFF DUP2 GT PUSH2 0x14B JUMPI PUSH2 0xB5 SWAP1 CALLDATASIZE SWAP1 PUSH1 0x4 ADD PUSH2 0x152 JUMP JUMPDEST SWAP2 CALLER DUP2 MSTORE DUP1 PUSH1 0x20 MSTORE PUSH2 0xCE PUSH1 0xFF PUSH1 0x40 DUP4 KECCAK256 SLOAD AND ISZERO ISZERO ISZERO SWAP1 JUMP JUMPDEST PUSH2 0x121 JUMPI JUMPDEST DUP3 DUP2 LT PUSH2 0x105 JUMPI PUSH1 0x40 MLOAD PUSH32 0x4CE34AA200000000000000000000000000000000000000000000000000000000 DUP2 MSTORE PUSH1 0x20 SWAP1 RETURN JUMPDEST DUP1 PUSH2 0x11B PUSH2 0x116 PUSH1 0x1 SWAP4 DUP7 DUP7 PUSH2 0x498 JUMP JUMPDEST PUSH2 0x52A JUMP JUMPDEST ADD PUSH2 0xD3 JUMP JUMPDEST PUSH32 0x6821B7DF00000000000000000000000000000000000000000000000000000000 PUSH1 0x80 MSTORE PUSH1 0x4 PUSH1 0x80 REVERT JUMPDEST POP DUP1 REVERT JUMPDEST DUP1 REVERT JUMPDEST SWAP2 DUP2 PUSH1 0x1F DUP5 ADD SLT ISZERO PUSH2 0xE JUMPI DUP3 CALLDATALOAD SWAP2 PUSH8 0xFFFFFFFFFFFFFFFF DUP4 GT PUSH2 0xE JUMPI PUSH1 0x20 DUP1 DUP6 ADD SWAP5 PUSH1 0xC0 DUP6 MUL ADD ADD GT PUSH2 0xE JUMPI JUMP JUMPDEST SWAP2 DUP2 PUSH1 0x1F DUP5 ADD SLT ISZERO PUSH2 0xE JUMPI DUP3 CALLDATALOAD SWAP2 PUSH8 0xFFFFFFFFFFFFFFFF DUP4 GT PUSH2 0xE JUMPI PUSH1 0x20 DUP1 DUP6 ADD SWAP5 DUP5 PUSH1 0x5 SHL ADD ADD GT PUSH2 0xE JUMPI JUMP JUMPDEST POP CALLVALUE PUSH2 0xE JUMPI PUSH1 0x40 PUSH32 0xFFFFFFFFFFFFFFFFFFFFFFFFFFFFFFFFFFFFFFFFFFFFFFFFFFFFFFFFFFFFFFFC CALLDATASIZE ADD SLT PUSH2 0xE JUMPI PUSH8 0xFFFFFFFFFFFFFFFF PUSH1 0x4 CALLDATALOAD DUP2 DUP2 GT PUSH2 0xE JUMPI PUSH2 0x205 SWAP1 CALLDATASIZE SWAP1 PUSH1 0x4 ADD PUSH2 0x152 JUMP JUMPDEST SWAP2 PUSH1 0x24 CALLDATALOAD SWAP1 DUP2 GT PUSH2 0xE JUMPI PUSH2 0x21E SWAP1 CALLDATASIZE SWAP1 PUSH1 0x4 ADD PUSH2 0x183 JUMP JUMPDEST SWAP2 SWAP1 SWAP3 CALLER PUSH1 0x0 MSTORE PUSH1 0x0 PUSH1 0x20 MSTORE PUSH2 0x23C PUSH1 0xFF PUSH1 0x40 PUSH1 0x0 KECCAK256 SLOAD AND ISZERO ISZERO ISZERO SWAP1 JUMP JUMPDEST PUSH2 0x296 JUMPI PUSH1 0x0 JUMPDEST DUP2 DUP2 LT PUSH2 0x27F JUMPI PUSH2 0x254 DUP5 DUP7 PUSH2 0xA28 JUMP JUMPDEST PUSH1 0x40 MLOAD PUSH32 0x899E104C00000000000000000000000000000000000000000000000000000000 DUP2 MSTORE PUSH1 0x20 SWAP1 RETURN JUMPDEST DUP1 PUSH2 0x290 PUSH2 0x116 PUSH1 0x1 SWAP4 DUP6 DUP8 PUSH2 0x498 JUMP JUMPDEST ADD PUSH2 0x243 JUMP JUMPDEST PUSH1 0x4 PUSH1 0x40 MLOAD PUSH32 0x6821B7DF00000000000000000000000000000000000000000000000000000000 DUP2 MSTORE REVERT JUMPDEST POP CALLVALUE PUSH2 0xE JUMPI PUSH1 0x20 PUSH32 0xFFFFFFFFFFFFFFFFFFFFFFFFFFFFFFFFFFFFFFFFFFFFFFFFFFFFFFFFFFFFFFFC CALLDATASIZE ADD SLT PUSH2 0xE JUMPI PUSH1 0x4 CALLDATALOAD PUSH8 0xFFFFFFFFFFFFFFFF DUP2 GT PUSH2 0xE JUMPI PUSH2 0x310 SWAP1 CALLDATASIZE SWAP1 PUSH1 0x4 ADD PUSH2 0x183 JUMP JUMPDEST CALLER PUSH1 0x0 MSTORE PUSH1 0x0 PUSH1 0x20 MSTORE PUSH1 0xFF PUSH1 0x40 PUSH1 0x0 KECCAK256 SLOAD AND ISZERO PUSH2 0x296 JUMPI PUSH2 0x330 SWAP2 PUSH2 0xA28 JUMP JUMPDEST PUSH1 0x20 PUSH1 0x40 MLOAD PUSH32 0x8DF25D9200000000000000000000000000000000000000000000000000000000 DUP2 MSTORE RETURN JUMPDEST PUSH20 0xFFFFFFFFFFFFFFFFFFFFFFFFFFFFFFFFFFFFFFFF DUP2 AND SUB PUSH2 0xE JUMPI JUMP JUMPDEST POP CALLVALUE PUSH2 0xE JUMPI PUSH1 0x40 DUP1 PUSH32 0xFFFFFFFFFFFFFFFFFFFFFFFFFFFFFFFFFFFFFFFFFFFFFFFFFFFFFFFFFFFFFFFC CALLDATASIZE ADD SLT PUSH2 0xE JUMPI PUSH1 0x4 CALLDATALOAD SWAP1 PUSH2 0x3B6 DUP3 PUSH2 0x35A JUMP JUMPDEST PUSH1 0x24 CALLDATALOAD SWAP2 DUP3 ISZERO ISZERO DUP1 SWAP4 SUB PUSH2 0xE JUMPI PUSH20 0xFFFFFFFFFFFFFFFFFFFFFFFFFFFFFFFFFFFFFFFF SWAP1 DUP2 PUSH32 0x0 AND CALLER SUB PUSH2 0x46F JUMPI PUSH1 0x0 SWAP4 PUSH32 0xAE63067D43AC07563B7EB8DB6595635FC77F1578A2A5EA06BA91B63E2AFA37E2 SWAP3 DUP5 SWAP3 AND SWAP1 DUP2 DUP7 MSTORE DUP6 PUSH1 0x20 MSTORE DUP3 DUP7 KECCAK256 PUSH32 0xFFFFFFFFFFFFFFFFFFFFFFFFFFFFFFFFFFFFFFFFFFFFFFFFFFFFFFFFFFFFFF00 DUP2 SLOAD AND PUSH1 0xFF DUP4 AND OR SWAP1 SSTORE DUP3 MLOAD SWAP2 DUP3 MSTORE PUSH1 0x20 DUP3 ADD MSTORE LOG1 MLOAD RETURN JUMPDEST PUSH1 0x4 DUP4 MLOAD PUSH32 0x6D5769BE00000000000000000000000000000000000000000000000000000000 DUP2 MSTORE REVERT JUMPDEST SWAP2 SWAP1 DUP2 LT ISZERO PUSH2 0x4A8 JUMPI PUSH1 0xC0 MUL ADD SWAP1 JUMP JUMPDEST PUSH32 0x4E487B7100000000000000000000000000000000000000000000000000000000 PUSH1 0x0 MSTORE PUSH1 0x32 PUSH1 0x4 MSTORE PUSH1 0x24 PUSH1 0x0 REVERT JUMPDEST PUSH1 0x4 GT ISZERO PUSH2 0x4E1 JUMPI JUMP JUMPDEST PUSH32 0x4E487B7100000000000000000000000000000000000000000000000000000000 PUSH1 0x0 MSTORE PUSH1 0x21 PUSH1 0x4 MSTORE PUSH1 0x24 PUSH1 0x0 REVERT JUMPDEST CALLDATALOAD PUSH1 0x4 DUP2 LT ISZERO PUSH2 0xE JUMPI SWAP1 JUMP JUMPDEST CALLDATALOAD PUSH2 0x527 DUP2 PUSH2 0x35A JUMP JUMPDEST SWAP1 JUMP JUMPDEST PUSH1 0x1 PUSH2 0x535 DUP3 PUSH2 0x510 JUMP JUMPDEST PUSH2 0x53E DUP2 PUSH2 0x4D7 JUMP JUMPDEST SUB PUSH2 0x579 JUMPI DUP1 PUSH2 0x553 PUSH1 0x20 PUSH2 0x577 SWAP4 ADD PUSH2 0x51D JUMP JUMPDEST SWAP1 PUSH2 0x560 PUSH1 0x40 DUP3 ADD PUSH2 0x51D JUMP JUMPDEST PUSH1 0xA0 PUSH2 0x56E PUSH1 0x60 DUP5 ADD PUSH2 0x51D JUMP JUMPDEST SWAP3 ADD CALLDATALOAD SWAP3 PUSH2 0x678 JUMP JUMPDEST JUMP JUMPDEST PUSH1 0x2 PUSH2 0x584 DUP3 PUSH2 0x510 JUMP JUMPDEST PUSH2 0x58D DUP2 PUSH2 0x4D7 JUMP JUMPDEST SUB PUSH2 0x5FC JUMPI PUSH1 0x1 PUSH1 0xA0 DUP3 ADD CALLDATALOAD SUB PUSH2 0x5D2 JUMPI DUP1 PUSH2 0x5AE PUSH1 0x20 PUSH2 0x577 SWAP4 ADD PUSH2 0x51D JUMP JUMPDEST SWAP1 PUSH2 0x5BB PUSH1 0x40 DUP3 ADD PUSH2 0x51D JUMP JUMPDEST PUSH1 0x80 PUSH2 0x5C9 PUSH1 0x60 DUP5 ADD PUSH2 0x51D JUMP JUMPDEST SWAP3 ADD CALLDATALOAD SWAP3 PUSH2 0x7E5 JUMP JUMPDEST PUSH1 0x4 PUSH1 0x40 MLOAD PUSH32 0xEFCC00B100000000000000000000000000000000000000000000000000000000 DUP2 MSTORE REVERT JUMPDEST PUSH1 0x3 PUSH2 0x607 DUP3 PUSH2 0x510 JUMP JUMPDEST PUSH2 0x610 DUP2 PUSH2 0x4D7 JUMP JUMPDEST SUB PUSH2 0x64E JUMPI DUP1 PUSH2 0x625 PUSH1 0x20 PUSH2 0x577 SWAP4 ADD PUSH2 0x51D JUMP JUMPDEST PUSH2 0x631 PUSH1 0x40 DUP4 ADD PUSH2 0x51D JUMP JUMPDEST PUSH2 0x63D PUSH1 0x60 DUP5 ADD PUSH2 0x51D JUMP JUMPDEST SWAP1 PUSH1 0x80 PUSH1 0xA0 DUP6 ADD CALLDATALOAD SWAP5 ADD CALLDATALOAD SWAP3 PUSH2 0x8F0 JUMP JUMPDEST PUSH1 0x4 PUSH1 0x40 MLOAD PUSH32 0x7932F1FC00000000000000000000000000000000000000000000000000000000 DUP2 MSTORE REVERT JUMPDEST SWAP1 SWAP3 PUSH1 0x40 MLOAD SWAP3 PUSH1 0x0 SWAP5 PUSH32 0x23B872DD00000000000000000000000000000000000000000000000000000000 DUP7 MSTORE DUP1 PUSH1 0x4 MSTORE DUP2 PUSH1 0x24 MSTORE DUP3 PUSH1 0x44 MSTORE PUSH1 0x20 DUP7 PUSH1 0x64 DUP2 DUP1 DUP9 GAS CALL DUP1 RETURNDATASIZE ISZERO PUSH1 0x1F RETURNDATASIZE GT PUSH1 0x1 DUP11 MLOAD EQ AND OR AND RETURNDATASIZE ISZERO ISZERO DUP2 AND ISZERO PUSH2 0x6E2 JUMPI JUMPDEST POP POP POP POP POP POP PUSH1 0x40 MSTORE PUSH1 0x60 MSTORE JUMP JUMPDEST DUP1 DUP7 EXTCODESIZE ISZERO ISZERO AND PUSH2 0x6D4 JUMPI SWAP1 DUP8 SWAP6 SWAP7 SWAP2 ISZERO PUSH2 0x722 JUMPI PUSH1 0x24 DUP7 DUP9 PUSH32 0x5F15D67200000000000000000000000000000000000000000000000000000000 DUP3 MSTORE PUSH1 0x4 MSTORE REVERT JUMPDEST ISZERO PUSH2 0x75C JUMPI POP PUSH1 0x84 SWAP5 PUSH32 0x9889192300000000000000000000000000000000000000000000000000000000 DUP6 MSTORE PUSH1 0x4 MSTORE PUSH1 0x24 MSTORE PUSH1 0x44 MSTORE PUSH1 0x64 MSTORE REVERT JUMPDEST RETURNDATASIZE PUSH2 0x79B JUMPI JUMPDEST POP PUSH1 0xA4 SWAP5 PUSH32 0xF486BC8700000000000000000000000000000000000000000000000000000000 DUP6 MSTORE PUSH1 0x4 MSTORE PUSH1 0x24 MSTORE PUSH1 0x44 MSTORE DUP2 PUSH1 0x64 MSTORE PUSH1 0x84 MSTORE REVERT JUMPDEST RETURNDATASIZE PUSH1 0x5 SHR SWAP1 PUSH1 0x5 SHR SWAP1 DUP1 PUSH1 0x3 MUL SWAP2 DUP1 DUP3 GT PUSH2 0x7CC JUMPI JUMPDEST POP POP PUSH1 0x20 GAS SWAP2 ADD LT PUSH2 0x7C3 JUMPI DUP6 PUSH2 0x762 JUMP JUMPDEST DUP4 RETURNDATASIZE DUP2 DUP1 RETURNDATACOPY RETURNDATASIZE SWAP1 REVERT JUMPDEST DUP1 DUP1 PUSH1 0x3 SWAP3 MUL DUP4 DUP1 MUL SUB PUSH1 0x9 SHR SWAP3 SUB MUL ADD ADD DUP7 DUP1 PUSH2 0x7B1 JUMP JUMPDEST SWAP1 SWAP3 DUP2 EXTCODESIZE ISZERO PUSH2 0x8C2 JUMPI PUSH1 0x40 MLOAD SWAP3 PUSH1 0x0 SWAP5 PUSH32 0x23B872DD00000000000000000000000000000000000000000000000000000000 DUP7 MSTORE DUP1 PUSH1 0x4 MSTORE DUP2 PUSH1 0x24 MSTORE DUP3 PUSH1 0x44 MSTORE DUP6 DUP1 PUSH1 0x64 DUP2 DUP1 DUP9 GAS CALL ISZERO PUSH2 0x83E JUMPI POP POP POP POP PUSH1 0x40 MSTORE PUSH1 0x60 MSTORE JUMP JUMPDEST DUP6 SWAP4 SWAP5 RETURNDATASIZE PUSH2 0x881 JUMPI JUMPDEST POP PUSH1 0xA4 SWAP5 PUSH32 0xF486BC8700000000000000000000000000000000000000000000000000000000 DUP6 MSTORE PUSH1 0x4 MSTORE PUSH1 0x24 MSTORE PUSH1 0x44 MSTORE PUSH1 0x64 MSTORE PUSH1 0x1 PUSH1 0x84 MSTORE REVERT JUMPDEST RETURNDATASIZE PUSH1 0x5 SHR SWAP1 PUSH1 0x5 SHR SWAP1 DUP1 PUSH1 0x3 MUL SWAP2 DUP1 DUP3 GT PUSH2 0x8A9 JUMPI JUMPDEST POP POP PUSH1 0x20 GAS SWAP2 ADD LT PUSH2 0x7C3 JUMPI DUP6 PUSH2 0x847 JUMP JUMPDEST DUP1 DUP1 PUSH1 0x3 SWAP3 MUL DUP4 DUP1 MUL SUB PUSH1 0x9 SHR SWAP3 SUB MUL ADD ADD DUP7 DUP1 PUSH2 0x897 JUMP JUMPDEST POP PUSH32 0x5F15D67200000000000000000000000000000000000000000000000000000000 PUSH1 0x0 MSTORE PUSH1 0x4 MSTORE PUSH1 0x24 PUSH1 0x0 REVERT JUMPDEST SWAP3 SWAP1 SWAP4 DUP4 EXTCODESIZE ISZERO PUSH2 0x9FA JUMPI PUSH1 0x40 MLOAD SWAP4 PUSH1 0x80 MLOAD SWAP2 PUSH1 0xA0 MLOAD SWAP4 PUSH1 0xC0 MLOAD SWAP6 PUSH1 0x0 SWAP9 PUSH32 0xF242432A00000000000000000000000000000000000000000000000000000000 DUP11 MSTORE DUP1 PUSH1 0x4 MSTORE DUP2 PUSH1 0x24 MSTORE DUP3 PUSH1 0x44 MSTORE DUP4 PUSH1 0x64 MSTORE PUSH1 0xA0 PUSH1 0x84 MSTORE DUP10 PUSH1 0xA4 MSTORE DUP10 DUP1 PUSH1 0xC4 DUP2 DUP1 DUP10 GAS CALL ISZERO PUSH2 0x96D JUMPI POP POP POP POP POP PUSH1 0x80 MSTORE PUSH1 0xA0 MSTORE PUSH1 0xC0 MSTORE PUSH1 0x40 MSTORE PUSH1 0x60 MSTORE JUMP JUMPDEST DUP10 SWAP5 SWAP6 POP DUP9 RETURNDATASIZE PUSH2 0x9B0 JUMPI JUMPDEST POP PUSH1 0xA4 SWAP6 PUSH32 0xF486BC8700000000000000000000000000000000000000000000000000000000 DUP7 MSTORE PUSH1 0x4 MSTORE PUSH1 0x24 MSTORE PUSH1 0x44 MSTORE PUSH1 0x64 MSTORE PUSH1 0x84 MSTORE REVERT JUMPDEST RETURNDATASIZE PUSH1 0x5 SHR SWAP1 PUSH1 0x5 SHR SWAP1 DUP1 PUSH1 0x3 MUL SWAP2 DUP1 DUP3 GT PUSH2 0x9E1 JUMPI JUMPDEST POP POP PUSH1 0x20 GAS SWAP2 ADD LT PUSH2 0x9D8 JUMPI DUP7 PUSH2 0x978 JUMP JUMPDEST DUP5 RETURNDATASIZE DUP2 DUP1 RETURNDATACOPY RETURNDATASIZE SWAP1 REVERT JUMPDEST DUP1 DUP1 PUSH1 0x3 SWAP3 MUL DUP4 DUP1 MUL SUB PUSH1 0x9 SHR SWAP3 SUB MUL ADD ADD DUP8 DUP1 PUSH2 0x9C6 JUMP JUMPDEST DUP4 PUSH32 0x5F15D67200000000000000000000000000000000000000000000000000000000 PUSH1 0x0 MSTORE PUSH1 0x4 MSTORE PUSH1 0x24 PUSH1 0x0 REVERT JUMPDEST SWAP2 SWAP1 DUP3 PUSH1 0x20 SWAP4 PUSH32 0x2EB2C2D600000000000000000000000000000000000000000000000000000000 DUP6 MSTORE PUSH1 0x0 JUMPDEST DUP4 DUP2 LT PUSH2 0xA68 JUMPI POP POP POP POP SWAP1 POP PUSH1 0x80 PUSH1 0x40 MSTORE JUMP JUMPDEST DUP3 DUP7 ADD SWAP3 PUSH1 0x24 SWAP1 CALLDATALOAD DUP4 ADD PUSH1 0x80 DUP1 DUP3 DUP11 ADD DUP5 CALLDATACOPY PUSH1 0xA0 SWAP2 DUP3 DUP2 ADD DUP1 CALLDATALOAD SWAP2 DUP3 PUSH1 0x6 SHL SWAP5 PUSH1 0xE0 DUP7 ADD PUSH1 0xA4 MSTORE PUSH1 0x0 PUSH2 0x144 DUP8 ADD MSTORE DUP6 PUSH2 0x104 ADD SWAP3 DUP7 PUSH1 0x40 ADD SWAP1 PUSH1 0xC4 CALLDATACOPY PUSH1 0x5 SWAP4 DUP1 DUP6 SHL SWAP2 PUSH1 0xC0 SWAP1 DUP4 DUP3 ADD DUP9 DUP7 ADD CALLDATALOAD EQ SWAP1 PUSH1 0x60 DUP7 ADD CALLDATALOAD EQ AND SWAP3 DUP5 ADD ADD CALLDATALOAD EQ AND ISZERO PUSH2 0xBAB JUMPI CALLDATALOAD SWAP5 DUP6 EXTCODESIZE ISZERO PUSH2 0xB7F JUMPI POP PUSH1 0x0 DUP1 DUP3 DUP14 DUP3 DUP10 GAS CALL ISZERO PUSH2 0xAF0 JUMPI POP POP POP POP POP PUSH1 0x1 ADD PUSH2 0xA54 JUMP JUMPDEST SWAP1 DUP11 SWAP3 SWAP2 RETURNDATASIZE PUSH2 0xB37 JUMPI JUMPDEST POP POP PUSH2 0x128 SWAP4 PUSH32 0xAFC445E200000000000000000000000000000000000000000000000000000000 PUSH1 0x0 MSTORE PUSH1 0x4 MSTORE PUSH1 0x44 MSTORE PUSH1 0x84 SWAP1 DUP2 MLOAD ADD SWAP1 MSTORE ADD PUSH1 0x0 REVERT JUMPDEST RETURNDATASIZE DUP3 SHR SWAP2 SHR SWAP1 PUSH1 0x3 DUP2 DUP2 MUL SWAP3 DUP1 DUP4 GT PUSH2 0xB68 JUMPI JUMPDEST POP POP POP DUP3 GAS SWAP2 ADD LT PUSH2 0xB5E JUMPI DUP5 DUP1 PUSH2 0xAFA JUMP JUMPDEST RETURNDATASIZE PUSH1 0x0 DUP1 RETURNDATACOPY RETURNDATASIZE PUSH1 0x0 REVERT JUMPDEST DUP1 DUP1 MUL DUP4 DUP1 MUL SUB PUSH1 0x9 SHR SWAP3 SUB MUL ADD ADD DUP6 DUP1 DUP1 PUSH2 0xB4B JUMP JUMPDEST DUP6 PUSH32 0x5F15D67200000000000000000000000000000000000000000000000000000000 PUSH1 0x0 MSTORE PUSH1 0x4 MSTORE PUSH1 0x0 REVERT JUMPDEST PUSH32 0xEBA2084C00000000000000000000000000000000000000000000000000000000 PUSH1 0x0 MSTORE PUSH1 0x4 PUSH1 0x0 REVERT INVALID LOG2 PUSH5 0x6970667358 0x22 SLT KECCAK256 0x2E 0x49 0xD SWAP4 0xD7 DIFFICULTY 0xEC EXTCODECOPY PUSH1 0x51 EXTCODEHASH CREATE2 ISZERO 0xE1 0xB5 0xBA BASEFEE ADD PUSH22 0x1166DFB42CD53A25D76767D3AE64736F6C634300080D STOP CALLER "
        },
        "methodIdentifiers": {
          "acceptOwnership(address)": "51710e45",
          "cancelOwnershipTransfer(address)": "7b37e561",
          "createConduit(bytes32,address)": "794593bc",
          "getChannel(address,uint256)": "027cc764",
          "getChannelStatus(address,address)": "33bc8572",
          "getChannels(address)": "8b9e028b",
          "getConduit(bytes32)": "6e9bfd9f",
          "getConduitCodeHashes()": "0a96ad39",
          "getKey(address)": "93790f44",
          "getPotentialOwner(address)": "906c87cc",
          "getTotalChannels(address)": "4e3f9580",
          "ownerOf(address)": "14afd79e",
          "transferOwnership(address,address)": "6d435421",
          "updateChannel(address,address,bool)": "13ad9cab"
        }
      }
    }
  }
}