{
  "contracts/conduit/Conduit.sol": {
    "Conduit": {
      "abi": [
        {
          "inputs": [],
          "stateMutability": "nonpayable",
          "type": "constructor"
        },
        {
          "inputs": [
            {
              "internalType": "address",
              "name": "token",
              "type": "address"
            },
            {
              "internalType": "address",
              "name": "from",
              "type": "address"
            },
            {
              "internalType": "address",
              "name": "to",
              "type": "address"
            },
            {
              "internalType": "uint256",
              "name": "amount",
              "type": "uint256"
            }
          ],
          "name": "BadReturnValueFromERC20OnTransfer",
          "type": "error"
        },
        {
          "inputs": [],
          "name": "ChannelClosed",
          "type": "error"
        },
        {
          "inputs": [
            {
              "internalType": "address",
              "name": "token",
              "type": "address"
            },
            {
              "internalType": "address",
              "name": "from",
              "type": "address"
            },
            {
              "internalType": "address",
              "name": "to",
              "type": "address"
            },
            {
              "internalType": "uint256[]",
              "name": "identifiers",
              "type": "uint256[]"
            },
            {
              "internalType": "uint256[]",
              "name": "amounts",
              "type": "uint256[]"
            }
          ],
          "name": "ERC1155BatchTransferGenericFailure",
          "type": "error"
        },
        {
          "inputs": [],
          "name": "Invalid1155BatchTransferEncoding",
          "type": "error"
        },
        {
          "inputs": [],
          "name": "InvalidController",
          "type": "error"
        },
        {
          "inputs": [],
          "name": "InvalidERC721TransferAmount",
          "type": "error"
        },
        {
          "inputs": [],
          "name": "InvalidItemType",
          "type": "error"
        },
        {
          "inputs": [],
          "name": "MissingItemAmount",
          "type": "error"
        },
        {
          "inputs": [
            {
              "internalType": "address",
              "name": "account",
              "type": "address"
            }
          ],
          "name": "NoContract",
          "type": "error"
        },
        {
          "inputs": [
            {
              "internalType": "address",
              "name": "token",
              "type": "address"
            },
            {
              "internalType": "address",
              "name": "from",
              "type": "address"
            },
            {
              "internalType": "address",
              "name": "to",
              "type": "address"
            },
            {
              "internalType": "uint256",
              "name": "identifier",
              "type": "uint256"
            },
            {
              "internalType": "uint256",
              "name": "amount",
              "type": "uint256"
            }
          ],
          "name": "TokenTransferGenericFailure",
          "type": "error"
        },
        {
          "anonymous": false,
          "inputs": [
            {
              "indexed": false,
              "internalType": "address",
              "name": "channel",
              "type": "address"
            },
            {
              "indexed": false,
              "internalType": "bool",
              "name": "open",
              "type": "bool"
            }
          ],
          "name": "ChannelUpdated",
          "type": "event"
        },
        {
          "inputs": [
            {
              "components": [
                {
                  "internalType": "enum ConduitItemType",
                  "name": "itemType",
                  "type": "uint8"
                },
                {
                  "internalType": "address",
                  "name": "token",
                  "type": "address"
                },
                {
                  "internalType": "address",
                  "name": "from",
                  "type": "address"
                },
                {
                  "internalType": "address",
                  "name": "to",
                  "type": "address"
                },
                {
                  "internalType": "uint256",
                  "name": "identifier",
                  "type": "uint256"
                },
                {
                  "internalType": "uint256",
                  "name": "amount",
                  "type": "uint256"
                }
              ],
              "internalType": "struct ConduitTransfer[]",
              "name": "transfers",
              "type": "tuple[]"
            }
          ],
          "name": "execute",
          "outputs": [
            {
              "internalType": "bytes4",
              "name": "magicValue",
              "type": "bytes4"
            }
          ],
          "stateMutability": "nonpayable",
          "type": "function"
        },
        {
          "inputs": [
            {
              "components": [
                {
                  "internalType": "address",
                  "name": "token",
                  "type": "address"
                },
                {
                  "internalType": "address",
                  "name": "from",
                  "type": "address"
                },
                {
                  "internalType": "address",
                  "name": "to",
                  "type": "address"
                },
                {
                  "internalType": "uint256[]",
                  "name": "ids",
                  "type": "uint256[]"
                },
                {
                  "internalType": "uint256[]",
                  "name": "amounts",
                  "type": "uint256[]"
                }
              ],
              "internalType": "struct ConduitBatch1155Transfer[]",
              "name": "batchTransfers",
              "type": "tuple[]"
            }
          ],
          "name": "executeBatch1155",
          "outputs": [
            {
              "internalType": "bytes4",
              "name": "magicValue",
              "type": "bytes4"
            }
          ],
          "stateMutability": "nonpayable",
          "type": "function"
        },
        {
          "inputs": [
            {
              "components": [
                {
                  "internalType": "enum ConduitItemType",
                  "name": "itemType",
                  "type": "uint8"
                },
                {
                  "internalType": "address",
                  "name": "token",
                  "type": "address"
                },
                {
                  "internalType": "address",
                  "name": "from",
                  "type": "address"
                },
                {
                  "internalType": "address",
                  "name": "to",
                  "type": "address"
                },
                {
                  "internalType": "uint256",
                  "name": "identifier",
                  "type": "uint256"
                },
                {
                  "internalType": "uint256",
                  "name": "amount",
                  "type": "uint256"
                }
              ],
              "internalType": "struct ConduitTransfer[]",
              "name": "standardTransfers",
              "type": "tuple[]"
            },
            {
              "components": [
                {
                  "internalType": "address",
                  "name": "token",
                  "type": "address"
                },
                {
                  "internalType": "address",
                  "name": "from",
                  "type": "address"
                },
                {
                  "internalType": "address",
                  "name": "to",
                  "type": "address"
                },
                {
                  "internalType": "uint256[]",
                  "name": "ids",
                  "type": "uint256[]"
                },
                {
                  "internalType": "uint256[]",
                  "name": "amounts",
                  "type": "uint256[]"
                }
              ],
              "internalType": "struct ConduitBatch1155Transfer[]",
              "name": "batchTransfers",
              "type": "tuple[]"
            }
          ],
          "name": "executeWithBatch1155",
          "outputs": [
            {
              "internalType": "bytes4",
              "name": "magicValue",
              "type": "bytes4"
            }
          ],
          "stateMutability": "nonpayable",
          "type": "function"
        },
        {
          "inputs": [
            {
              "internalType": "address",
              "name": "channel",
              "type": "address"
            },
            {
              "internalType": "bool",
              "name": "isOpen",
              "type": "bool"
            }
          ],
          "name": "updateChannel",
          "outputs": [],
          "stateMutability": "nonpayable",
          "type": "function"
        }
      ],
      "evm": {
        "bytecode": {
          "linkReferences": {},
          "object": "60a080604052346100235733608052610c0b90816100298239608051816103dd0152f35b600080fdfe60806040526004361015610013575b600080fd5b6000803560e01c9081634ce34aa21461006657508063899e104c1461005d5780638df25d92146100545763c4e8fcb51461004c57600080fd5b61000e610378565b5061000e6102c0565b5061000e6101b4565b3461014f5760207ffffffffffffffffffffffffffffffffffffffffffffffffffffffffffffffffc36011261014f5760043567ffffffffffffffff811161014b576100b5903690600401610152565b91338152806020526100ce60ff60408320541615151590565b610121575b828110610105576040517f4ce34aa2000000000000000000000000000000000000000000000000000000008152602090f35b8061011b6101166001938686610498565b61052a565b016100d3565b7f6821b7df0000000000000000000000000000000000000000000000000000000060805260046080fd5b5080fd5b80fd5b9181601f8401121561000e5782359167ffffffffffffffff831161000e5760208085019460c0850201011161000e57565b9181601f8401121561000e5782359167ffffffffffffffff831161000e576020808501948460051b01011161000e57565b503461000e5760407ffffffffffffffffffffffffffffffffffffffffffffffffffffffffffffffffc36011261000e5767ffffffffffffffff60043581811161000e57610205903690600401610152565b9160243590811161000e5761021e903690600401610183565b91909233600052600060205261023c60ff6040600020541615151590565b6102965760005b81811061027f576102548486610a28565b6040517f899e104c000000000000000000000000000000000000000000000000000000008152602090f35b806102906101166001938587610498565b01610243565b60046040517f6821b7df000000000000000000000000000000000000000000000000000000008152fd5b503461000e5760207ffffffffffffffffffffffffffffffffffffffffffffffffffffffffffffffffc36011261000e5760043567ffffffffffffffff811161000e57610310903690600401610183565b33600052600060205260ff60406000205416156102965761033091610a28565b60206040517f8df25d92000000000000000000000000000000000000000000000000000000008152f35b73ffffffffffffffffffffffffffffffffffffffff81160361000e57565b503461000e576040807ffffffffffffffffffffffffffffffffffffffffffffffffffffffffffffffffc36011261000e57600435906103b68261035a565b6024359182151580930361000e5773ffffffffffffffffffffffffffffffffffffffff90817f000000000000000000000000000000000000000000000000000000000000000016330361046f576000937fae63067d43ac07563b7eb8db6595635fc77f1578a2a5ea06ba91b63e2afa37e29284921690818652856020528286207fffffffffffffffffffffffffffffffffffffffffffffffffffffffffffffff0081541660ff831617905582519182526020820152a151f35b600483517f6d5769be000000000000000000000000000000000000000000000000000000008152fd5b91908110156104a85760c0020190565b7f4e487b7100000000000000000000000000000000000000000000000000000000600052603260045260246000fd5b600411156104e157565b7f4e487b7100000000000000000000000000000000000000000000000000000000600052602160045260246000fd5b35600481101561000e5790565b356105278161035a565b90565b600161053582610510565b61053e816104d7565b0361057957806105536020610577930161051d565b906105606040820161051d565b60a061056e6060840161051d565b92013592610678565b565b600261058482610510565b61058d816104d7565b036105fc57600160a0820135036105d257806105ae6020610577930161051d565b906105bb6040820161051d565b60806105c96060840161051d565b920135926107e5565b60046040517fefcc00b1000000000000000000000000000000000000000000000000000000008152fd5b600361060782610510565b610610816104d7565b0361064e57806106256020610577930161051d565b6106316040830161051d565b61063d6060840161051d565b90608060a0850135940135926108f0565b60046040517f7932f1fc000000000000000000000000000000000000000000000000000000008152fd5b9092604051926000947f23b872dd00000000000000000000000000000000000000000000000000000000865280600452816024528260445260208660648180885af1803d15601f3d1160018a51141617163d15158116156106e2575b505050505050604052606052565b80863b1515166106d45790879596911561072257602486887f5f15d672000000000000000000000000000000000000000000000000000000008252600452fd5b1561075c57506084947f98891923000000000000000000000000000000000000000000000000000000008552600452602452604452606452fd5b3d61079b575b5060a4947ff486bc8700000000000000000000000000000000000000000000000000000000855260045260245260445281606452608452fd5b3d60051c9060051c9080600302918082116107cc575b505060205a9101106107c35785610762565b833d81803e3d90fd5b8080600392028380020360091c920302010186806107b1565b9092813b156108c257604051926000947f23b872dd000000000000000000000000000000000000000000000000000000008652806004528160245282604452858060648180885af11561083e5750505050604052606052565b8593943d610881575b5060a4947ff486bc870000000000000000000000000000000000000000000000000000000085526004526024526044526064526001608452fd5b3d60051c9060051c9080600302918082116108a9575b505060205a9101106107c35785610847565b8080600392028380020360091c92030201018680610897565b507f5f15d6720000000000000000000000000000000000000000000000000000000060005260045260246000fd5b929093833b156109fa57604051936080519160a0519360c051956000987ff242432a000000000000000000000000000000000000000000000000000000008a528060045281602452826044528360645260a06084528960a452898060c48180895af11561096d57505050505060805260a05260c052604052606052565b89949550883d6109b0575b5060a4957ff486bc87000000000000000000000000000000000000000000000000000000008652600452602452604452606452608452fd5b3d60051c9060051c9080600302918082116109e1575b505060205a9101106109d85786610978565b843d81803e3d90fd5b8080600392028380020360091c920302010187806109c6565b837f5f15d6720000000000000000000000000000000000000000000000000000000060005260045260246000fd5b9190826020937f2eb2c2d600000000000000000000000000000000000000000000000000000000855260005b838110610a68575050505090506080604052565b82860192602490358301608080828a01843760a0918281018035918260061b9460e0860160a4526000610144870152856101040192866040019060c43760059380851b9160c090838201888601351490606086013514169284010135141615610bab573594853b15610b7f5750600080828d82895af115610af0575050505050600101610a54565b908a92913d610b37575b5050610128937fafc445e2000000000000000000000000000000000000000000000000000000006000526004526044526084908151019052016000fd5b3d821c911c90600381810292808311610b68575b505050825a910110610b5e578480610afa565b3d6000803e3d6000fd5b8080028380020360091c9203020101858080610b4b565b857f5f15d672000000000000000000000000000000000000000000000000000000006000526004526000fd5b7feba2084c0000000000000000000000000000000000000000000000000000000060005260046000fdfea26469706673582212202e490d93d744ec3c60513ff515e1b5ba4801751166dfb42cd53a25d76767d3ae64736f6c634300080d0033",
          "opcodes": "PUSH1 0xA0 DUP1 PUSH1 0x40 MSTORE CALLVALUE PUSH2 0x23 JUMPI CALLER PUSH1 0x80 MSTORE PUSH2 0xC0B SWAP1 DUP2 PUSH2 0x29 DUP3 CODECOPY PUSH1 0x80 MLOAD DUP2 PUSH2 0x3DD ADD MSTORE RETURN JUMPDEST PUSH1 0x0 DUP1 REVERT INVALID PUSH1 0x80 PUSH1 0x40 MSTORE PUSH1 0x4 CALLDATASIZE LT ISZERO PUSH2 0x13 JUMPI JUMPDEST PUSH1 0x0 DUP1 REVERT JUMPDEST PUSH1 0x0 DUP1 CALLDATALOAD PUSH1 0xE0 SHR SWAP1 DUP2 PUSH4 0x4CE34AA2 EQ PUSH2 0x66 JUMPI POP DUP1 PUSH4 0x899E104C EQ PUSH2 0x5D JUMPI DUP1 PUSH4 0x8DF25D92 EQ PUSH2 0x54 JUMPI PUSH4 0xC4E8FCB5 EQ PUSH2 0x4C JUMPI PUSH1 0x0 DUP1 REVERT JUMPDEST PUSH2 0xE PUSH2 0x378 JUMP JUMPDEST POP PUSH2 0xE PUSH2 0x2C0 JUMP JUMPDEST POP PUSH2 0xE PUSH2 0x1B4 JUMP JUMPDEST CALLVALUE PUSH2 0x14F JUMPI PUSH1 0x20 PUSH32 0xFFFFFFFFFFFFFFFFFFFFFFFFFFFFFFFFFFFFFFFFFFFFFFFFFFFFFFFFFFFFFFFC CALLDATASIZE ADD SLT PUSH2 0x14F JUMPI PUSH1 0x4 CALLDATALOAD PUSH8 0xFFFFFFFFFFFFFFFF DUP2 GT PUSH2 0x14B JUMPI PUSH2 0xB5 SWAP1 CALLDATASIZE SWAP1 PUSH1 0x4 ADD PUSH2 0x152 JUMP JUMPDEST SWAP2 CALLER DUP2 MSTORE DUP1 PUSH1 0x20 MSTORE PUSH2 0xCE PUSH1 0xFF PUSH1 0x40 DUP4 KECCAK256 SLOAD AND ISZERO ISZERO ISZERO SWAP1 JUMP JUMPDEST PUSH2 0x121 JUMPI JUMPDEST DUP3 DUP2 LT PUSH2 0x105 JUMPI PUSH1 0x40 MLOAD PUSH32 0x4CE34AA200000000000000000000000000000000000000000000000000000000 DUP2 MSTORE PUSH1 0x20 SWAP1 RETURN JUMPDEST DUP1 PUSH2 0x11B PUSH2 0x116 PUSH1 0x1 SWAP4 DUP7 DUP7 PUSH2 0x498 JUMP JUMPDEST PUSH2 0x52A JUMP JUMPDEST ADD PUSH2 0xD3 JUMP JUMPDEST PUSH32 0x6821B7DF00000000000000000000000000000000000000000000000000000000 PUSH1 0x80 MSTORE PUSH1 0x4 PUSH1 0x80 REVERT JUMPDEST POP DUP1 REVERT JUMPDEST DUP1 REVERT JUMPDEST SWAP2 DUP2 PUSH1 0x1F DUP5 ADD SLT ISZERO PUSH2 0xE JUMPI DUP3 CALLDATALOAD SWAP2 PUSH8 0xFFFFFFFFFFFFFFFF DUP4 GT PUSH2 0xE JUMPI PUSH1 0x20 DUP1 DUP6 ADD SWAP5 PUSH1 0xC0 DUP6 MUL ADD ADD GT PUSH2 0xE JUMPI JUMP JUMPDEST SWAP2 DUP2 PUSH1 0x1F DUP5 ADD SLT ISZERO PUSH2 0xE JUMPI DUP3 CALLDATALOAD SWAP2 PUSH8 0xFFFFFFFFFFFFFFFF DUP4 GT PUSH2 0xE JUMPI PUSH1 0x20 DUP1 DUP6 ADD SWAP5 DUP5 PUSH1 0x5 SHL ADD ADD GT PUSH2 0xE JUMPI JUMP JUMPDEST POP CALLVALUE PUSH2 0xE JUMPI PUSH1 0x40 PUSH32 0xFFFFFFFFFFFFFFFFFFFFFFFFFFFFFFFFFFFFFFFFFFFFFFFFFFFFFFFFFFFFFFFC CALLDATASIZE ADD SLT PUSH2 0xE JUMPI PUSH8 0xFFFFFFFFFFFFFFFF PUSH1 0x4 CALLDATALOAD DUP2 DUP2 GT PUSH2 0xE JUMPI PUSH2 0x205 SWAP1 CALLDATASIZE SWAP1 PUSH1 0x4 ADD PUSH2 0x152 JUMP JUMPDEST SWAP2 PUSH1 0x24 CALLDATALOAD SWAP1 DUP2 GT PUSH2 0xE JUMPI PUSH2 0x21E SWAP1 CALLDATASIZE SWAP1 PUSH1 0x4 ADD PUSH2 0x183 JUMP JUMPDEST SWAP2 SWAP1 SWAP3 CALLER PUSH1 0x0 MSTORE PUSH1 0x0 PUSH1 0x20 MSTORE PUSH2 0x23C PUSH1 0xFF PUSH1 0x40 PUSH1 0x0 KECCAK256 SLOAD AND ISZERO ISZERO ISZERO SWAP1 JUMP JUMPDEST PUSH2 0x296 JUMPI PUSH1 0x0 JUMPDEST DUP2 DUP2 LT PUSH2 0x27F JUMPI PUSH2 0x254 DUP5 DUP7 PUSH2 0xA28 JUMP JUMPDEST PUSH1 0x40 MLOAD PUSH32 0x899E104C00000000000000000000000000000000000000000000000000000000 DUP2 MSTORE PUSH1 0x20 SWAP1 RETURN JUMPDEST DUP1 PUSH2 0x290 PUSH2 0x116 PUSH1 0x1 SWAP4 DUP6 DUP8 PUSH2 0x498 JUMP JUMPDEST ADD PUSH2 0x243 JUMP JUMPDEST PUSH1 0x4 PUSH1 0x40 MLOAD PUSH32 0x6821B7DF00000000000000000000000000000000000000000000000000000000 DUP2 MSTORE REVERT JUMPDEST POP CALLVALUE PUSH2 0xE JUMPI PUSH1 0x20 PUSH32 0xFFFFFFFFFFFFFFFFFFFFFFFFFFFFFFFFFFFFFFFFFFFFFFFFFFFFFFFFFFFFFFFC CALLDATASIZE ADD SLT PUSH2 0xE JUMPI PUSH1 0x4 CALLDATALOAD PUSH8 0xFFFFFFFFFFFFFFFF DUP2 GT PUSH2 0xE JUMPI PUSH2 0x310 SWAP1 CALLDATASIZE SWAP1 PUSH1 0x4 ADD PUSH2 0x183 JUMP JUMPDEST CALLER PUSH1 0x0 MSTORE PUSH1 0x0 PUSH1 0x20 MSTORE PUSH1 0xFF PUSH1 0x40 PUSH1 0x0 KECCAK256 SLOAD AND ISZERO PUSH2 0x296 JUMPI PUSH2 0x330 SWAP2 PUSH2 0xA28 JUMP JUMPDEST PUSH1 0x20 PUSH1 0x40 MLOAD PUSH32 0x8DF25D9200000000000000000000000000000000000000000000000000000000 DUP2 MSTORE RETURN JUMPDEST PUSH20 0xFFFFFFFFFFFFFFFFFFFFFFFFFFFFFFFFFFFFFFFF DUP2 AND SUB PUSH2 0xE JUMPI JUMP JUMPDEST POP CALLVALUE PUSH2 0xE JUMPI PUSH1 0x40 DUP1 PUSH32 0xFFFFFFFFFFFFFFFFFFFFFFFFFFFFFFFFFFFFFFFFFFFFFFFFFFFFFFFFFFFFFFFC CALLDATASIZE ADD SLT PUSH2 0xE JUMPI PUSH1 0x4 CALLDATALOAD SWAP1 PUSH2 0x3B6 DUP3 PUSH2 0x35A JUMP JUMPDEST PUSH1 0x24 CALLDATALOAD SWAP2 DUP3 ISZERO ISZERO DUP1 SWAP4 SUB PUSH2 0xE JUMPI PUSH20 0xFFFFFFFFFFFFFFFFFFFFFFFFFFFFFFFFFFFFFFFF SWAP1 DUP2 PUSH32 0x0 AND CALLER SUB PUSH2 0x46F JUMPI PUSH1 0x0 SWAP4 PUSH32 0xAE63067D43AC07563B7EB8DB6595635FC77F1578A2A5EA06BA91B63E2AFA37E2 SWAP3 DUP5 SWAP3 AND SWAP1 DUP2 DUP7 MSTORE DUP6 PUSH1 0x20 MSTORE DUP3 DUP7 KECCAK256 PUSH32 0xFFFFFFFFFFFFFFFFFFFFFFFFFFFFFFFFFFFFFFFFFFFFFFFFFFFFFFFFFFFFFF00 DUP2 SLOAD AND PUSH1 0xFF DUP4 AND OR SWAP1 SSTORE DUP3 MLOAD SWAP2 DUP3 MSTORE PUSH1 0x20 DUP3 ADD MSTORE LOG1 MLOAD RETURN JUMPDEST PUSH1 0x4 DUP4 MLOAD PUSH32 0x6D5769BE00000000000000000000000000000000000000000000000000000000 DUP2 MSTORE REVERT JUMPDEST SWAP2 SWAP1 DUP2 LT ISZERO PUSH2 0x4A8 JUMPI PUSH1 0xC0 MUL ADD SWAP1 JUMP JUMPDEST PUSH32 0x4E487B7100000000000000000000000000000000000000000000000000000000 PUSH1 0x0 MSTORE PUSH1 0x32 PUSH1 0x4 MSTORE PUSH1 0x24 PUSH1 0x0 REVERT JUMPDEST PUSH1 0x4 GT ISZERO PUSH2 0x4E1 JUMPI JUMP JUMPDEST PUSH32 0x4E487B7100000000000000000000000000000000000000000000000000000000 PUSH1 0x0 MSTORE PUSH1 0x21 PUSH1 0x4 MSTORE PUSH1 0x24 PUSH1 0x0 REVERT JUMPDEST CALLDATALOAD PUSH1 0x4 DUP2 LT ISZERO PUSH2 0xE JUMPI SWAP1 JUMP JUMPDEST CALLDATALOAD PUSH2 0x527 DUP2 PUSH2 0x35A JUMP JUMPDEST SWAP1 JUMP JUMPDEST PUSH1 0x1 PUSH2 0x535 DUP3 PUSH2 0x510 JUMP JUMPDEST PUSH2 0x53E DUP2 PUSH2 0x4D7 JUMP JUMPDEST SUB PUSH2 0x579 JUMPI DUP1 PUSH2 0x553 PUSH1 0x20 PUSH2 0x577 SWAP4 ADD PUSH2 0x51D JUMP JUMPDEST SWAP1 PUSH2 0x560 PUSH1 0x40 DUP3 ADD PUSH2 0x51D JUMP JUMPDEST PUSH1 0xA0 PUSH2 0x56E PUSH1 0x60 DUP5 ADD PUSH2 0x51D JUMP JUMPDEST SWAP3 ADD CALLDATALOAD SWAP3 PUSH2 0x678 JUMP JUMPDEST JUMP JUMPDEST PUSH1 0x2 PUSH2 0x584 DUP3 PUSH2 0x510 JUMP JUMPDEST PUSH2 0x58D DUP2 PUSH2 0x4D7 JUMP JUMPDEST SUB PUSH2 0x5FC JUMPI PUSH1 0x1 PUSH1 0xA0 DUP3 ADD CALLDATALOAD SUB PUSH2 0x5D2 JUMPI DUP1 PUSH2 0x5AE PUSH1 0x20 PUSH2 0x577 SWAP4 ADD PUSH2 0x51D JUMP JUMPDEST SWAP1 PUSH2 0x5BB PUSH1 0x40 DUP3 ADD PUSH2 0x51D JUMP JUMPDEST PUSH1 0x80 PUSH2 0x5C9 PUSH1 0x60 DUP5 ADD PUSH2 0x51D JUMP JUMPDEST SWAP3 ADD CALLDATALOAD SWAP3 PUSH2 0x7E5 JUMP JUMPDEST PUSH1 0x4 PUSH1 0x40 MLOAD PUSH32 0xEFCC00B100000000000000000000000000000000000000000000000000000000 DUP2 MSTORE REVERT JUMPDEST PUSH1 0x3 PUSH2 0x607 DUP3 PUSH2 0x510 JUMP JUMPDEST PUSH2 0x610 DUP2 PUSH2 0x4D7 JUMP JUMPDEST SUB PUSH2 0x64E JUMPI DUP1 PUSH2 0x625 PUSH1 0x20 PUSH2 0x577 SWAP4 ADD PUSH2 0x51D JUMP JUMPDEST PUSH2 0x631 PUSH1 0x40 DUP4 ADD PUSH2 0x51D JUMP JUMPDEST PUSH2 0x63D PUSH1 0x60 DUP5 ADD PUSH2 0x51D JUMP JUMPDEST SWAP1 PUSH1 0x80 PUSH1 0xA0 DUP6 ADD CALLDATALOAD SWAP5 ADD CALLDATALOAD SWAP3 PUSH2 0x8F0 JUMP JUMPDEST PUSH1 0x4 PUSH1 0x40 MLOAD PUSH32 0x7932F1FC00000000000000000000000000000000000000000000000000000000 DUP2 MSTORE REVERT JUMPDEST SWAP1 SWAP3 PUSH1 0x40 MLOAD SWAP3 PUSH1 0x0 SWAP5 PUSH32 0x23B872DD00000000000000000000000000000000000000000000000000000000 DUP7 MSTORE DUP1 PUSH1 0x4 MSTORE DUP2 PUSH1 0x24 MSTORE DUP3 PUSH1 0x44 MSTORE PUSH1 0x20 DUP7 PUSH1 0x64 DUP2 DUP1 DUP9 GAS CALL DUP1 RETURNDATASIZE ISZERO PUSH1 0x1F RETURNDATASIZE GT PUSH1 0x1 DUP11 MLOAD EQ AND OR AND RETURNDATASIZE ISZERO ISZERO DUP2 AND ISZERO PUSH2 0x6E2 JUMPI JUMPDEST POP POP POP POP POP POP PUSH1 0x40 MSTORE PUSH1 0x60 MSTORE JUMP JUMPDEST DUP1 DUP7 EXTCODESIZE ISZERO ISZERO AND PUSH2 0x6D4 JUMPI SWAP1 DUP8 SWAP6 SWAP7 SWAP2 ISZERO PUSH2 0x722 JUMPI PUSH1 0x24 DUP7 DUP9 PUSH32 0x5F15D67200000000000000000000000000000000000000000000000000000000 DUP3 MSTORE PUSH1 0x4 MSTORE REVERT JUMPDEST ISZERO PUSH2 0x75C JUMPI POP PUSH1 0x84 SWAP5 PUSH32 0x9889192300000000000000000000000000000000000000000000000000000000 DUP6 MSTORE PUSH1 0x4 MSTORE PUSH1 0x24 MSTORE PUSH1 0x44 MSTORE PUSH1 0x64 MSTORE REVERT JUMPDEST RETURNDATASIZE PUSH2 0x79B JUMPI JUMPDEST POP PUSH1 0xA4 SWAP5 PUSH32 0xF486BC8700000000000000000000000000000000000000000000000000000000 DUP6 MSTORE PUSH1 0x4 MSTORE PUSH1 0x24 MSTORE PUSH1 0x44 MSTORE DUP2 PUSH1 0x64 MSTORE PUSH1 0x84 MSTORE REVERT JUMPDEST RETURNDATASIZE PUSH1 0x5 SHR SWAP1 PUSH1 0x5 SHR SWAP1 DUP1 PUSH1 0x3 MUL SWAP2 DUP1 DUP3 GT PUSH2 0x7CC JUMPI JUMPDEST POP POP PUSH1 0x20 GAS SWAP2 ADD LT PUSH2 0x7C3 JUMPI DUP6 PUSH2 0x762 JUMP JUMPDEST DUP4 RETURNDATASIZE DUP2 DUP1 RETURNDATACOPY RETURNDATASIZE SWAP1 REVERT JUMPDEST DUP1 DUP1 PUSH1 0x3 SWAP3 MUL DUP4 DUP1 MUL SUB PUSH1 0x9 SHR SWAP3 SUB MUL ADD ADD DUP7 DUP1 PUSH2 0x7B1 JUMP JUMPDEST SWAP1 SWAP3 DUP2 EXTCODESIZE ISZERO PUSH2 0x8C2 JUMPI PUSH1 0x40 MLOAD SWAP3 PUSH1 0x0 SWAP5 PUSH32 0x23B872DD00000000000000000000000000000000000000000000000000000000 DUP7 MSTORE DUP1 PUSH1 0x4 MSTORE DUP2 PUSH1 0x24 MSTORE DUP3 PUSH1 0x44 MSTORE DUP6 DUP1 PUSH1 0x64 DUP2 DUP1 DUP9 GAS CALL ISZERO PUSH2 0x83E JUMPI POP POP POP POP PUSH1 0x40 MSTORE PUSH1 0x60 MSTORE JUMP JUMPDEST DUP6 SWAP4 SWAP5 RETURNDATASIZE PUSH2 0x881 JUMPI JUMPDEST POP PUSH1 0xA4 SWAP5 PUSH32 0xF486BC8700000000000000000000000000000000000000000000000000000000 DUP6 MSTORE PUSH1 0x4 MSTORE PUSH1 0x24 MSTORE PUSH1 0x44 MSTORE PUSH1 0x64 MSTORE PUSH1 0x1 PUSH1 0x84 MSTORE REVERT JUMPDEST RETURNDATASIZE PUSH1 0x5 SHR SWAP1 PUSH1 0x5 SHR SWAP1 DUP1 PUSH1 0x3 MUL SWAP2 DUP1 DUP3 GT PUSH2 0x8A9 JUMPI JUMPDEST POP POP PUSH1 0x20 GAS SWAP2 ADD LT PUSH2 0x7C3 JUMPI DUP6 PUSH2 0x847 JUMP JUMPDEST DUP1 DUP1 PUSH1 0x3 SWAP3 MUL DUP4 DUP1 MUL SUB PUSH1 0x9 SHR SWAP3 SUB MUL ADD ADD DUP7 DUP1 PUSH2 0x897 JUMP JUMPDEST POP PUSH32 0x5F15D67200000000000000000000000000000000000000000000000000000000 PUSH1 0x0 MSTORE PUSH1 0x4 MSTORE PUSH1 0x24 PUSH1 0x0 REVERT JUMPDEST SWAP3 SWAP1 SWAP4 DUP4 EXTCODESIZE ISZERO PUSH2 0x9FA JUMPI PUSH1 0x40 MLOAD SWAP4 PUSH1 0x80 MLOAD SWAP2 PUSH1 0xA0 MLOAD SWAP4 PUSH1 0xC0 MLOAD SWAP6 PUSH1 0x0 SWAP9 PUSH32 0xF242432A00000000000000000000000000000000000000000000000000000000 DUP11 MSTORE DUP1 PUSH1 0x4 MSTORE DUP2 PUSH1 0x24 MSTORE DUP3 PUSH1 0x44 MSTORE DUP4 PUSH1 0x64 MSTORE PUSH1 0xA0 PUSH1 0x84 MSTORE DUP10 PUSH1 0xA4 MSTORE DUP10 DUP1 PUSH1 0xC4 DUP2 DUP1 DUP10 GAS CALL ISZERO PUSH2 0x96D JUMPI POP POP POP POP POP PUSH1 0x80 MSTORE PUSH1 0xA0 MSTORE PUSH1 0xC0 MSTORE PUSH1 0x40 MSTORE PUSH1 0x60 MSTORE JUMP JUMPDEST DUP10 SWAP5 SWAP6 POP DUP9 RETURNDATASIZE PUSH2 0x9B0 JUMPI JUMPDEST POP PUSH1 0xA4 SWAP6 PUSH32 0xF486BC8700000000000000000000000000000000000000000000000000000000 DUP7 MSTORE PUSH1 0x4 MSTORE PUSH1 0x24 MSTORE PUSH1 0x44 MSTORE PUSH1 0x64 MSTORE PUSH1 0x84 MSTORE REVERT JUMPDEST RETURNDATASIZE PUSH1 0x5 SHR SWAP1 PUSH1 0x5 SHR SWAP1 DUP1 PUSH1 0x3 MUL SWAP2 DUP1 DUP3 GT PUSH2 0x9E1 JUMPI JUMPDEST POP POP PUSH1 0x20 GAS SWAP2 ADD LT PUSH2 0x9D8 JUMPI DUP7 PUSH2 0x978 JUMP JUMPDEST DUP5 RETURNDATASIZE DUP2 DUP1 RETURNDATACOPY RETURNDATASIZE SWAP1 REVERT JUMPDEST DUP1 DUP1 PUSH1 0x3 SWAP3 MUL DUP4 DUP1 MUL SUB PUSH1 0x9 SHR SWAP3 SUB MUL ADD ADD DUP8 DUP1 PUSH2 0x9C6 JUMP JUMPDEST DUP4 PUSH32 0x5F15D67200000000000000000000000000000000000000000000000000000000 PUSH1 0x0 MSTORE PUSH1 0x4 MSTORE PUSH1 0x24 PUSH1 0x0 REVERT JUMPDEST SWAP2 SWAP1 DUP3 PUSH1 0x20 SWAP4 PUSH32 0x2EB2C2D600000000000000000000000000000000000000000000000000000000 DUP6 MSTORE PUSH1 0x0 JUMPDEST DUP4 DUP2 LT PUSH2 0xA68 JUMPI POP POP POP POP SWAP1 POP PUSH1 0x80 PUSH1 0x40 MSTORE JUMP JUMPDEST DUP3 DUP7 ADD SWAP3 PUSH1 0x24 SWAP1 CALLDATALOAD DUP4 ADD PUSH1 0x80 DUP1 DUP3 DUP11 ADD DUP5 CALLDATACOPY PUSH1 0xA0 SWAP2 DUP3 DUP2 ADD DUP1 CALLDATALOAD SWAP2 DUP3 PUSH1 0x6 SHL SWAP5 PUSH1 0xE0 DUP7 ADD PUSH1 0xA4 MSTORE PUSH1 0x0 PUSH2 0x144 DUP8 ADD MSTORE DUP6 PUSH2 0x104 ADD SWAP3 DUP7 PUSH1 0x40 ADD SWAP1 PUSH1 0xC4 CALLDATACOPY PUSH1 0x5 SWAP4 DUP1 DUP6 SHL SWAP2 PUSH1 0xC0 SWAP1 DUP4 DUP3 ADD DUP9 DUP7 ADD CALLDATALOAD EQ SWAP1 PUSH1 0x60 DUP7 ADD CALLDATALOAD EQ AND SWAP3 DUP5 ADD ADD CALLDATALOAD EQ AND ISZERO PUSH2 0xBAB JUMPI CALLDATALOAD SWAP5 DUP6 EXTCODESIZE ISZERO PUSH2 0xB7F JUMPI POP PUSH1 0x0 DUP1 DUP3 DUP14 DUP3 DUP10 GAS CALL ISZERO PUSH2 0xAF0 JUMPI POP POP POP POP POP PUSH1 0x1 ADD PUSH2 0xA54 JUMP JUMPDEST SWAP1 DUP11 SWAP3 SWAP2 RETURNDATASIZE PUSH2 0xB37 JUMPI JUMPDEST POP POP PUSH2 0x128 SWAP4 PUSH32 0xAFC445E200000000000000000000000000000000000000000000000000000000 PUSH1 0x0 MSTORE PUSH1 0x4 MSTORE PUSH1 0x44 MSTORE PUSH1 0x84 SWAP1 DUP2 MLOAD ADD SWAP1 MSTORE ADD PUSH1 0x0 REVERT JUMPDEST RETURNDATASIZE DUP3 SHR SWAP2 SHR SWAP1 PUSH1 0x3 DUP2 DUP2 MUL SWAP3 DUP1 DUP4 GT PUSH2 0xB68 JUMPI JUMPDEST POP POP POP DUP3 GAS SWAP2 ADD LT PUSH2 0xB5E JUMPI DUP5 DUP1 PUSH2 0xAFA JUMP JUMPDEST RETURNDATASIZE PUSH1 0x0 DUP1 RETURNDATACOPY RETURNDATASIZE PUSH1 0x0 REVERT JUMPDEST DUP1 DUP1 MUL DUP4 DUP1 MUL SUB PUSH1 0x9 SHR SWAP3 SUB MUL ADD ADD DUP6 DUP1 DUP1 PUSH2 0xB4B JUMP JUMPDEST DUP6 PUSH32 0x5F15D67200000000000000000000000000000000000000000000000000000000 PUSH1 0x0 MSTORE PUSH1 0x4 MSTORE PUSH1 0x0 REVERT JUMPDEST PUSH32 0xEBA2084C00000000000000000000000000000000000000000000000000000000 PUSH1 0x0 MSTORE PUSH1 0x4 PUSH1 0x0 REVERT INVALID LOG2 PUSH5 0x6970667358 0x22 SLT KECCAK256 0x2E 0x49 0xD SWAP4 0xD7 DIFFICULTY 0xEC EXTCODECOPY PUSH1 0x51 EXTCODEHASH CREATE2 ISZERO 0xE1 0xB5 0xBA BASEFEE ADD PUSH22 0x1166DFB42CD53A25D76767D3AE64736F6C634300080D STOP CALLER "
        },
        "methodIdentifiers": {
          "execute((uint8,address,address,address,uint256,uint256)[])": "4ce34aa2",
          "executeBatch1155((address,address,address,uint256[],uint256[])[])": "8df25d92",
          "executeWithBatch1155((uint8,address,address,address,uint256,uint256)[],(address,address,address,uint256[],uint256[])[])": "899e104c",
          "updateChannel(address,bool)": "c4e8fcb5"
        }
      }
    }
  }
}