{
  "contracts/test/EIP1271Wallet.sol": {
    "EIP1271Wallet": {
      "abi": [
        {
          "inputs": [
            {
              "internalType": "address",
              "name": "_owner",
              "type": "address"
            }
          ],
          "stateMutability": "nonpayable",
          "type": "constructor"
        },
        {
          "inputs": [
            {
              "internalType": "contract ERC20ApprovalInterface",
              "name": "token",
              "type": "address"
            },
            {
              "internalType": "address",
              "name": "operator",
              "type": "address"
            },
            {
              "internalType": "uint256",
              "name": "amount",
              "type": "uint256"
            }
          ],
          "name": "approveERC20",
          "outputs": [],
          "stateMutability": "nonpayable",
          "type": "function"
        },
        {
          "inputs": [
            {
              "internalType": "contract NFTApprovalInterface",
              "name": "token",
              "type": "address"
            },
            {
              "internalType": "address",
              "name": "operator",
              "type": "address"
            }
          ],
          "name": "approveNFT",
          "outputs": [],
          "stateMutability": "nonpayable",
          "type": "function"
        },
        {
          "inputs": [
            {
              "internalType": "bytes32",
              "name": "",
              "type": "bytes32"
            }
          ],
          "name": "digestApproved",
          "outputs": [
            {
              "internalType": "bool",
              "name": "",
              "type": "bool"
            }
          ],
          "stateMutability": "view",
          "type": "function"
        },
        {
          "inputs": [],
          "name": "isValid",
          "outputs": [
            {
              "internalType": "bool",
              "name": "",
              "type": "bool"
            }
          ],
          "stateMutability": "view",
          "type": "function"
        },
        {
          "inputs": [
            {
              "internalType": "bytes32",
              "name": "digest",
              "type": "bytes32"
            },
            {
              "internalType": "bytes",
              "name": "signature",
              "type": "bytes"
            }
          ],
          "name": "isValidSignature",
          "outputs": [
            {
              "internalType": "bytes4",
              "name": "",
              "type": "bytes4"
            }
          ],
          "stateMutability": "view",
          "type": "function"
        },
        {
          "inputs": [],
          "name": "owner",
          "outputs": [
            {
              "internalType": "address",
              "name": "",
              "type": "address"
            }
          ],
          "stateMutability": "view",
          "type": "function"
        },
        {
          "inputs": [
            {
              "internalType": "bytes32",
              "name": "digest",
              "type": "bytes32"
            },
            {
              "internalType": "bool",
              "name": "approved",
              "type": "bool"
            }
          ],
          "name": "registerDigest",
          "outputs": [],
          "stateMutability": "nonpayable",
          "type": "function"
        },
        {
          "inputs": [
            {
              "internalType": "bool",
              "name": "showMessage",
              "type": "bool"
            }
          ],
          "name": "revertWithMessage",
          "outputs": [],
          "stateMutability": "nonpayable",
          "type": "function"
        },
        {
          "inputs": [
            {
              "internalType": "bool",
              "name": "valid",
              "type": "bool"
            }
          ],
          "name": "setValid",
          "outputs": [],
          "stateMutability": "nonpayable",
          "type": "function"
        },
        {
          "inputs": [],
          "name": "showRevertMessage",
          "outputs": [
            {
              "internalType": "bool",
              "name": "",
              "type": "bool"
            }
          ],
          "stateMutability": "view",
          "type": "function"
        }
      ],
      "evm": {
        "bytecode": {
          "linkReferences": {},
          "object": "60a03461009c57601f6109db38819003918201601f19168301916001600160401b038311848410176100a15780849260209460405283398101031261009c57516001600160a01b038116810361009c5761006f90608052600160ff19818160005416176000556002541617600255565b60405161092390816100b882396080518181816103d701528181610524015281816105b001526107c70152f35b600080fd5b634e487b7160e01b600052604160045260246000fdfe60806040526004361015610013575b600080fd5b6000803560e01c9081631626ba7e146100de5750806329e282e8146100d557806346a35674146100cc5780636c64edee146100c357806384e6d7e7146100ba5780638da5cb5b146100b157806397fe8014146100a8578063a8e5e4aa1461009f578063bb5d40eb146100965763de77d5e01461008e57600080fd5b61000e6106a5565b5061000e610681565b5061000e61056c565b5061000e610548565b5061000e6104f6565b5061000e610393565b5061000e610321565b5061000e6102cd565b5061000e61026a565b346101cb5760406003193601126101cb5760243567ffffffffffffffff8082116101c757366023830112156101c75781600401359081116101ba575b6040519161015060207fffffffffffffffffffffffffffffffffffffffffffffffffffffffffffffffe0601f850116018461021f565b81835236602483830101116101b6579260208261017f949360246101b2970183860137830101526004356106fc565b6040517fffffffff0000000000000000000000000000000000000000000000000000000090911681529081906020820190565b0390f35b8380fd5b6101c26101ce565b61011a565b8280fd5b80fd5b507f4e487b7100000000000000000000000000000000000000000000000000000000600052604160045260246000fd5b67ffffffffffffffff811161021257604052565b61021a6101ce565b604052565b90601f7fffffffffffffffffffffffffffffffffffffffffffffffffffffffffffffffe0910116810190811067ffffffffffffffff82111761021257604052565b8015150361000e57565b503461000e57604060031936011261000e5760243561028881610260565b600435600052600160205260406000209060ff7fffffffffffffffffffffffffffffffffffffffffffffffffffffffffffffff00835416911515161790556000604051f35b503461000e57602060031936011261000e576004356102eb81610260565b60ff7fffffffffffffffffffffffffffffffffffffffffffffffffffffffffffffff006000541691151516176000556000604051f35b503461000e57602060031936011261000e5760043561033f81610260565b60ff7fffffffffffffffffffffffffffffffffffffffffffffffffffffffffffffff006002541691151516176002556000604051f35b73ffffffffffffffffffffffffffffffffffffffff81160361000e57565b503461000e57604060031936011261000e576004356103b181610375565b602435906103be82610375565b73ffffffffffffffffffffffffffffffffffffffff90817f000000000000000000000000000000000000000000000000000000000000000016330361048c5716803b1561000e576040517fa22cb46500000000000000000000000000000000000000000000000000000000815273ffffffffffffffffffffffffffffffffffffffff8316600482015260016024820152906000908290604490829084905af1801561047f575b61046a57005b8061047761047d926101fe565b806104eb565b005b6104876106ef565b610464565b6040517f08c379a000000000000000000000000000000000000000000000000000000000815260206004820152600a60248201527f4f6e6c79206f776e6572000000000000000000000000000000000000000000006044820152606490fd5b600091031261000e57565b503461000e57600060031936011261000e57602060405173ffffffffffffffffffffffffffffffffffffffff7f0000000000000000000000000000000000000000000000000000000000000000168152f35b503461000e57600060031936011261000e57602060ff600054166040519015158152f35b503461000e57606060031936011261000e5760043561058a81610375565b6024359061059782610375565b73ffffffffffffffffffffffffffffffffffffffff91827f000000000000000000000000000000000000000000000000000000000000000016330361048c5760209161063b9160006040519586809581947f095ea7b300000000000000000000000000000000000000000000000000000000835260443590600484016020909392919373ffffffffffffffffffffffffffffffffffffffff60408201951681520152565b0393165af18015610674575b61064d57005b61047d9060203d811161066d575b610665818361021f565b8101906106d7565b503d61065b565b61067c6106ef565b610647565b503461000e57600060031936011261000e57602060ff600254166040519015158152f35b503461000e57602060031936011261000e576004356000526001602052602060ff604060002054166040519015158152f35b9081602091031261000e57516106ec81610260565b90565b506040513d6000823e3d90fd5b61071a610713826000526001602052604060002090565b5460ff1690565b6108c757604182510361000e576020820151906060604084015193015192600093841a927f7fffffffffffffffffffffffffffffff5d576e7357a4501ddfe92f46681b20a082116108b857601b841415806108bc575b6108b8576040805193845260ff94909416602080850191909152938301526060820152828052829060809060015afa156108ab575b73ffffffffffffffffffffffffffffffffffffffff808251169081156101c7577f00000000000000000000000000000000000000000000000000000000000000001603610840575060025460ff161561081c577f1626ba7e0000000000000000000000000000000000000000000000000000000090565b7fffffffff0000000000000000000000000000000000000000000000000000000090565b805460ff1661084c5780fd5b6040517f08c379a000000000000000000000000000000000000000000000000000000000815260206004820152600a60248201527f424144205349474e4552000000000000000000000000000000000000000000006044820152606490fd5b6108b36106ef565b6107a5565b8480fd5b50601c841415610770565b50507f1626ba7e000000000000000000000000000000000000000000000000000000009056fea2646970667358221220757516f030e09b43c684632cc23d937400822308175f3d1467ba072ebb532c2864736f6c634300080d0033",
          "opcodes": "PUSH1 0xA0 CALLVALUE PUSH2 0x9C JUMPI PUSH1 0x1F PUSH2 0x9DB CODESIZE DUP2 SWAP1 SUB SWAP2 DUP3 ADD PUSH1 0x1F NOT AND DUP4 ADD SWAP2 PUSH1 0x1 PUSH1 0x1 PUSH1 0x40 SHL SUB DUP4 GT DUP5 DUP5 LT OR PUSH2 0xA1 JUMPI DUP1 DUP5 SWAP3 PUSH1 0x20 SWAP5 PUSH1 0x40 MSTORE DUP4 CODECOPY DUP2 ADD SUB SLT PUSH2 0x9C JUMPI MLOAD PUSH1 0x1 PUSH1 0x1 PUSH1 0xA0 SHL SUB DUP2 AND DUP2 SUB PUSH2 0x9C JUMPI PUSH2 0x6F SWAP1 PUSH1 0x80 MSTORE PUSH1 0x1 PUSH1 0xFF NOT DUP2 DUP2 PUSH1 0x0 SLOAD AND OR PUSH1 0x0 SSTORE PUSH1 0x2 SLOAD AND OR PUSH1 0x2 SSTORE JUMP JUMPDEST PUSH1 0x40 MLOAD PUSH2 0x923 SWAP1 DUP2 PUSH2 0xB8 DUP3 CODECOPY PUSH1 0x80 MLOAD DUP2 DUP2 DUP2 PUSH2 0x3D7 ADD MSTORE DUP2 DUP2 PUSH2 0x524 ADD MSTORE DUP2 DUP2 PUSH2 0x5B0 ADD MSTORE PUSH2 0x7C7 ADD MSTORE RETURN JUMPDEST PUSH1 0x0 DUP1 REVERT JUMPDEST PUSH4 0x4E487B71 PUSH1 0xE0 SHL PUSH1 0x0 MSTORE PUSH1 0x41 PUSH1 0x4 MSTORE PUSH1 0x24 PUSH1 0x0 REVERT INVALID PUSH1 0x80 PUSH1 0x40 MSTORE PUSH1 0x4 CALLDATASIZE LT ISZERO PUSH2 0x13 JUMPI JUMPDEST PUSH1 0x0 DUP1 REVERT JUMPDEST PUSH1 0x0 DUP1 CALLDATALOAD PUSH1 0xE0 SHR SWAP1 DUP2 PUSH4 0x1626BA7E EQ PUSH2 0xDE JUMPI POP DUP1 PUSH4 0x29E282E8 EQ PUSH2 0xD5 JUMPI DUP1 PUSH4 0x46A35674 EQ PUSH2 0xCC JUMPI DUP1 PUSH4 0x6C64EDEE EQ PUSH2 0xC3 JUMPI DUP1 PUSH4 0x84E6D7E7 EQ PUSH2 0xBA JUMPI DUP1 PUSH4 0x8DA5CB5B EQ PUSH2 0xB1 JUMPI DUP1 PUSH4 0x97FE8014 EQ PUSH2 0xA8 JUMPI DUP1 PUSH4 0xA8E5E4AA EQ PUSH2 0x9F JUMPI DUP1 PUSH4 0xBB5D40EB EQ PUSH2 0x96 JUMPI PUSH4 0xDE77D5E0 EQ PUSH2 0x8E JUMPI PUSH1 0x0 DUP1 REVERT JUMPDEST PUSH2 0xE PUSH2 0x6A5 JUMP JUMPDEST POP PUSH2 0xE PUSH2 0x681 JUMP JUMPDEST POP PUSH2 0xE PUSH2 0x56C JUMP JUMPDEST POP PUSH2 0xE PUSH2 0x548 JUMP JUMPDEST POP PUSH2 0xE PUSH2 0x4F6 JUMP JUMPDEST POP PUSH2 0xE PUSH2 0x393 JUMP JUMPDEST POP PUSH2 0xE PUSH2 0x321 JUMP JUMPDEST POP PUSH2 0xE PUSH2 0x2CD JUMP JUMPDEST POP PUSH2 0xE PUSH2 0x26A JUMP JUMPDEST CALLVALUE PUSH2 0x1CB JUMPI PUSH1 0x40 PUSH1 0x3 NOT CALLDATASIZE ADD SLT PUSH2 0x1CB JUMPI PUSH1 0x24 CALLDATALOAD PUSH8 0xFFFFFFFFFFFFFFFF DUP1 DUP3 GT PUSH2 0x1C7 JUMPI CALLDATASIZE PUSH1 0x23 DUP4 ADD SLT ISZERO PUSH2 0x1C7 JUMPI DUP2 PUSH1 0x4 ADD CALLDATALOAD SWAP1 DUP2 GT PUSH2 0x1BA JUMPI JUMPDEST PUSH1 0x40 MLOAD SWAP2 PUSH2 0x150 PUSH1 0x20 PUSH32 0xFFFFFFFFFFFFFFFFFFFFFFFFFFFFFFFFFFFFFFFFFFFFFFFFFFFFFFFFFFFFFFE0 PUSH1 0x1F DUP6 ADD AND ADD DUP5 PUSH2 0x21F JUMP JUMPDEST DUP2 DUP4 MSTORE CALLDATASIZE PUSH1 0x24 DUP4 DUP4 ADD ADD GT PUSH2 0x1B6 JUMPI SWAP3 PUSH1 0x20 DUP3 PUSH2 0x17F SWAP5 SWAP4 PUSH1 0x24 PUSH2 0x1B2 SWAP8 ADD DUP4 DUP7 ADD CALLDATACOPY DUP4 ADD ADD MSTORE PUSH1 0x4 CALLDATALOAD PUSH2 0x6FC JUMP JUMPDEST PUSH1 0x40 MLOAD PUSH32 0xFFFFFFFF00000000000000000000000000000000000000000000000000000000 SWAP1 SWAP2 AND DUP2 MSTORE SWAP1 DUP2 SWAP1 PUSH1 0x20 DUP3 ADD SWAP1 JUMP JUMPDEST SUB SWAP1 RETURN JUMPDEST DUP4 DUP1 REVERT JUMPDEST PUSH2 0x1C2 PUSH2 0x1CE JUMP JUMPDEST PUSH2 0x11A JUMP JUMPDEST DUP3 DUP1 REVERT JUMPDEST DUP1 REVERT JUMPDEST POP PUSH32 0x4E487B7100000000000000000000000000000000000000000000000000000000 PUSH1 0x0 MSTORE PUSH1 0x41 PUSH1 0x4 MSTORE PUSH1 0x24 PUSH1 0x0 REVERT JUMPDEST PUSH8 0xFFFFFFFFFFFFFFFF DUP2 GT PUSH2 0x212 JUMPI PUSH1 0x40 MSTORE JUMP JUMPDEST PUSH2 0x21A PUSH2 0x1CE JUMP JUMPDEST PUSH1 0x40 MSTORE JUMP JUMPDEST SWAP1 PUSH1 0x1F PUSH32 0xFFFFFFFFFFFFFFFFFFFFFFFFFFFFFFFFFFFFFFFFFFFFFFFFFFFFFFFFFFFFFFE0 SWAP2 ADD AND DUP2 ADD SWAP1 DUP2 LT PUSH8 0xFFFFFFFFFFFFFFFF DUP3 GT OR PUSH2 0x212 JUMPI PUSH1 0x40 MSTORE JUMP JUMPDEST DUP1 ISZERO ISZERO SUB PUSH2 0xE JUMPI JUMP JUMPDEST POP CALLVALUE PUSH2 0xE JUMPI PUSH1 0x40 PUSH1 0x3 NOT CALLDATASIZE ADD SLT PUSH2 0xE JUMPI PUSH1 0x24 CALLDATALOAD PUSH2 0x288 DUP2 PUSH2 0x260 JUMP JUMPDEST PUSH1 0x4 CALLDATALOAD PUSH1 0x0 MSTORE PUSH1 0x1 PUSH1 0x20 MSTORE PUSH1 0x40 PUSH1 0x0 KECCAK256 SWAP1 PUSH1 0xFF PUSH32 0xFFFFFFFFFFFFFFFFFFFFFFFFFFFFFFFFFFFFFFFFFFFFFFFFFFFFFFFFFFFFFF00 DUP4 SLOAD AND SWAP2 ISZERO ISZERO AND OR SWAP1 SSTORE PUSH1 0x0 PUSH1 0x40 MLOAD RETURN JUMPDEST POP CALLVALUE PUSH2 0xE JUMPI PUSH1 0x20 PUSH1 0x3 NOT CALLDATASIZE ADD SLT PUSH2 0xE JUMPI PUSH1 0x4 CALLDATALOAD PUSH2 0x2EB DUP2 PUSH2 0x260 JUMP JUMPDEST PUSH1 0xFF PUSH32 0xFFFFFFFFFFFFFFFFFFFFFFFFFFFFFFFFFFFFFFFFFFFFFFFFFFFFFFFFFFFFFF00 PUSH1 0x0 SLOAD AND SWAP2 ISZERO ISZERO AND OR PUSH1 0x0 SSTORE PUSH1 0x0 PUSH1 0x40 MLOAD RETURN JUMPDEST POP CALLVALUE PUSH2 0xE JUMPI PUSH1 0x20 PUSH1 0x3 NOT CALLDATASIZE ADD SLT PUSH2 0xE JUMPI PUSH1 0x4 CALLDATALOAD PUSH2 0x33F DUP2 PUSH2 0x260 JUMP JUMPDEST PUSH1 0xFF PUSH32 0xFFFFFFFFFFFFFFFFFFFFFFFFFFFFFFFFFFFFFFFFFFFFFFFFFFFFFFFFFFFFFF00 PUSH1 0x2 SLOAD AND SWAP2 ISZERO ISZERO AND OR PUSH1 0x2 SSTORE PUSH1 0x0 PUSH1 0x40 MLOAD RETURN JUMPDEST PUSH20 0xFFFFFFFFFFFFFFFFFFFFFFFFFFFFFFFFFFFFFFFF DUP2 AND SUB PUSH2 0xE JUMPI JUMP JUMPDEST POP CALLVALUE PUSH2 0xE JUMPI PUSH1 0x40 PUSH1 0x3 NOT CALLDATASIZE ADD SLT PUSH2 0xE JUMPI PUSH1 0x4 CALLDATALOAD PUSH2 0x3B1 DUP2 PUSH2 0x375 JUMP JUMPDEST PUSH1 0x24 CALLDATALOAD SWAP1 PUSH2 0x3BE DUP3 PUSH2 0x375 JUMP JUMPDEST PUSH20 0xFFFFFFFFFFFFFFFFFFFFFFFFFFFFFFFFFFFFFFFF SWAP1 DUP2 PUSH32 0x0 AND CALLER SUB PUSH2 0x48C JUMPI AND DUP1 EXTCODESIZE ISZERO PUSH2 0xE JUMPI PUSH1 0x40 MLOAD PUSH32 0xA22CB46500000000000000000000000000000000000000000000000000000000 DUP2 MSTORE PUSH20 0xFFFFFFFFFFFFFFFFFFFFFFFFFFFFFFFFFFFFFFFF DUP4 AND PUSH1 0x4 DUP3 ADD MSTORE PUSH1 0x1 PUSH1 0x24 DUP3 ADD MSTORE SWAP1 PUSH1 0x0 SWAP1 DUP3 SWAP1 PUSH1 0x44 SWAP1 DUP3 SWAP1 DUP5 SWAP1 GAS CALL DUP1 ISZERO PUSH2 0x47F JUMPI JUMPDEST PUSH2 0x46A JUMPI STOP JUMPDEST DUP1 PUSH2 0x477 PUSH2 0x47D SWAP3 PUSH2 0x1FE JUMP JUMPDEST DUP1 PUSH2 0x4EB JUMP JUMPDEST STOP JUMPDEST PUSH2 0x487 PUSH2 0x6EF JUMP JUMPDEST PUSH2 0x464 JUMP JUMPDEST PUSH1 0x40 MLOAD PUSH32 0x8C379A000000000000000000000000000000000000000000000000000000000 DUP2 MSTORE PUSH1 0x20 PUSH1 0x4 DUP3 ADD MSTORE PUSH1 0xA PUSH1 0x24 DUP3 ADD MSTORE PUSH32 0x4F6E6C79206F776E657200000000000000000000000000000000000000000000 PUSH1 0x44 DUP3 ADD MSTORE PUSH1 0x64 SWAP1 REVERT JUMPDEST PUSH1 0x0 SWAP2 SUB SLT PUSH2 0xE JUMPI JUMP JUMPDEST POP CALLVALUE PUSH2 0xE JUMPI PUSH1 0x0 PUSH1 0x3 NOT CALLDATASIZE ADD SLT PUSH2 0xE JUMPI PUSH1 0x20 PUSH1 0x40 MLOAD PUSH20 0xFFFFFFFFFFFFFFFFFFFFFFFFFFFFFFFFFFFFFFFF PUSH32 0x0 AND DUP2 MSTORE RETURN JUMPDEST POP CALLVALUE PUSH2 0xE JUMPI PUSH1 0x0 PUSH1 0x3 NOT CALLDATASIZE ADD SLT PUSH2 0xE JUMPI PUSH1 0x20 PUSH1 0xFF PUSH1 0x0 SLOAD AND PUSH1 0x40 MLOAD SWAP1 ISZERO ISZERO DUP2 MSTORE RETURN JUMPDEST POP CALLVALUE PUSH2 0xE JUMPI PUSH1 0x60 PUSH1 0x3 NOT CALLDATASIZE ADD SLT PUSH2 0xE JUMPI PUSH1 0x4 CALLDATALOAD PUSH2 0x58A DUP2 PUSH2 0x375 JUMP JUMPDEST PUSH1 0x24 CALLDATALOAD SWAP1 PUSH2 0x597 DUP3 PUSH2 0x375 JUMP JUMPDEST PUSH20 0xFFFFFFFFFFFFFFFFFFFFFFFFFFFFFFFFFFFFFFFF SWAP2 DUP3 PUSH32 0x0 AND CALLER SUB PUSH2 0x48C JUMPI PUSH1 0x20 SWAP2 PUSH2 0x63B SWAP2 PUSH1 0x0 PUSH1 0x40 MLOAD SWAP6 DUP7 DUP1 SWAP6 DUP2 SWAP5 PUSH32 0x95EA7B300000000000000000000000000000000000000000000000000000000 DUP4 MSTORE PUSH1 0x44 CALLDATALOAD SWAP1 PUSH1 0x4 DUP5 ADD PUSH1 0x20 SWAP1 SWAP4 SWAP3 SWAP2 SWAP4 PUSH20 0xFFFFFFFFFFFFFFFFFFFFFFFFFFFFFFFFFFFFFFFF PUSH1 0x40 DUP3 ADD SWAP6 AND DUP2 MSTORE ADD MSTORE JUMP JUMPDEST SUB SWAP4 AND GAS CALL DUP1 ISZERO PUSH2 0x674 JUMPI JUMPDEST PUSH2 0x64D JUMPI STOP JUMPDEST PUSH2 0x47D SWAP1 PUSH1 0x20 RETURNDATASIZE DUP2 GT PUSH2 0x66D JUMPI JUMPDEST PUSH2 0x665 DUP2 DUP4 PUSH2 0x21F JUMP JUMPDEST DUP2 ADD SWAP1 PUSH2 0x6D7 JUMP JUMPDEST POP RETURNDATASIZE PUSH2 0x65B JUMP JUMPDEST PUSH2 0x67C PUSH2 0x6EF JUMP JUMPDEST PUSH2 0x647 JUMP JUMPDEST POP CALLVALUE PUSH2 0xE JUMPI PUSH1 0x0 PUSH1 0x3 NOT CALLDATASIZE ADD SLT PUSH2 0xE JUMPI PUSH1 0x20 PUSH1 0xFF PUSH1 0x2 SLOAD AND PUSH1 0x40 MLOAD SWAP1 ISZERO ISZERO DUP2 MSTORE RETURN JUMPDEST POP CALLVALUE PUSH2 0xE JUMPI PUSH1 0x20 PUSH1 0x3 NOT CALLDATASIZE ADD SLT PUSH2 0xE JUMPI PUSH1 0x4 CALLDATALOAD PUSH1 0x0 MSTORE PUSH1 0x1 PUSH1 0x20 MSTORE PUSH1 0x20 PUSH1 0xFF PUSH1 0x40 PUSH1 0x0 KECCAK256 SLOAD AND PUSH1 0x40 MLOAD SWAP1 ISZERO ISZERO DUP2 MSTORE RETURN JUMPDEST SWAP1 DUP2 PUSH1 0x20 SWAP2 SUB SLT PUSH2 0xE JUMPI MLOAD PUSH2 0x6EC DUP2 PUSH2 0x260 JUMP JUMPDEST SWAP1 JUMP JUMPDEST POP PUSH1 0x40 MLOAD RETURNDATASIZE PUSH1 0x0 DUP3 RETURNDATACOPY RETURNDATASIZE SWAP1 REVERT JUMPDEST PUSH2 0x71A PUSH2 0x713 DUP3 PUSH1 0x0 MSTORE PUSH1 0x1 PUSH1 0x20 MSTORE PUSH1 0x40 PUSH1 0x0 KECCAK256 SWAP1 JUMP JUMPDEST SLOAD PUSH1 0xFF AND SWAP1 JUMP JUMPDEST PUSH2 0x8C7 JUMPI PUSH1 0x41 DUP3 MLOAD SUB PUSH2 0xE JUMPI PUSH1 0x20 DUP3 ADD MLOAD SWAP1 PUSH1 0x60 PUSH1 0x40 DUP5 ADD MLOAD SWAP4 ADD MLOAD SWAP3 PUSH1 0x0 SWAP4 DUP5 BYTE SWAP3 PUSH32 0x7FFFFFFFFFFFFFFFFFFFFFFFFFFFFFFF5D576E7357A4501DDFE92F46681B20A0 DUP3 GT PUSH2 0x8B8 JUMPI PUSH1 0x1B DUP5 EQ ISZERO DUP1 PUSH2 0x8BC JUMPI JUMPDEST PUSH2 0x8B8 JUMPI PUSH1 0x40 DUP1 MLOAD SWAP4 DUP5 MSTORE PUSH1 0xFF SWAP5 SWAP1 SWAP5 AND PUSH1 0x20 DUP1 DUP6 ADD SWAP2 SWAP1 SWAP2 MSTORE SWAP4 DUP4 ADD MSTORE PUSH1 0x60 DUP3 ADD MSTORE DUP3 DUP1 MSTORE DUP3 SWAP1 PUSH1 0x80 SWAP1 PUSH1 0x1 GAS STATICCALL ISZERO PUSH2 0x8AB JUMPI JUMPDEST PUSH20 0xFFFFFFFFFFFFFFFFFFFFFFFFFFFFFFFFFFFFFFFF DUP1 DUP3 MLOAD AND SWAP1 DUP2 ISZERO PUSH2 0x1C7 JUMPI PUSH32 0x0 AND SUB PUSH2 0x840 JUMPI POP PUSH1 0x2 SLOAD PUSH1 0xFF AND ISZERO PUSH2 0x81C JUMPI PUSH32 0x1626BA7E00000000000000000000000000000000000000000000000000000000 SWAP1 JUMP JUMPDEST PUSH32 0xFFFFFFFF00000000000000000000000000000000000000000000000000000000 SWAP1 JUMP JUMPDEST DUP1 SLOAD PUSH1 0xFF AND PUSH2 0x84C JUMPI DUP1 REVERT JUMPDEST PUSH1 0x40 MLOAD PUSH32 0x8C379A000000000000000000000000000000000000000000000000000000000 DUP2 MSTORE PUSH1 0x20 PUSH1 0x4 DUP3 ADD MSTORE PUSH1 0xA PUSH1 0x24 DUP3 ADD MSTORE PUSH32 0x424144205349474E455200000000000000000000000000000000000000000000 PUSH1 0x44 DUP3 ADD MSTORE PUSH1 0x64 SWAP1 REVERT JUMPDEST PUSH2 0x8B3 PUSH2 0x6EF JUMP JUMPDEST PUSH2 0x7A5 JUMP JUMPDEST DUP5 DUP1 REVERT JUMPDEST POP PUSH1 0x1C DUP5 EQ ISZERO PUSH2 0x770 JUMP JUMPDEST POP POP PUSH32 0x1626BA7E00000000000000000000000000000000000000000000000000000000 SWAP1 JUMP INVALID LOG2 PUSH5 0x6970667358 0x22 SLT KECCAK256 PUSH22 0x7516F030E09B43C684632CC23D937400822308175F3D EQ PUSH8 0xBA072EBB532C2864 PUSH20 0x6F6C634300080D00330000000000000000000000 "
        },
        "methodIdentifiers": {
          "approveERC20(address,address,uint256)": "a8e5e4aa",
          "approveNFT(address,address)": "84e6d7e7",
          "digestApproved(bytes32)": "de77d5e0",
          "isValid()": "bb5d40eb",
          "isValidSignature(bytes32,bytes)": "1626ba7e",
          "owner()": "8da5cb5b",
          "registerDigest(bytes32,bool)": "29e282e8",
          "revertWithMessage(bool)": "46a35674",
          "setValid(bool)": "6c64edee",
          "showRevertMessage()": "97fe8014"
        }
      }
    }
  }
}