{
  "contracts/test/TestERC1155.sol": {
    "TestERC1155": {
      "abi": [
        {
          "anonymous": false,
          "inputs": [
            {
              "indexed": true,
              "internalType": "address",
              "name": "owner",
              "type": "address"
            },
            {
              "indexed": true,
              "internalType": "address",
              "name": "operator",
              "type": "address"
            },
            {
              "indexed": false,
              "internalType": "bool",
              "name": "approved",
              "type": "bool"
            }
          ],
          "name": "ApprovalForAll",
          "type": "event"
        },
        {
          "anonymous": false,
          "inputs": [
            {
              "indexed": true,
              "internalType": "address",
              "name": "operator",
              "type": "address"
            },
            {
              "indexed": true,
              "internalType": "address",
              "name": "from",
              "type": "address"
            },
            {
              "indexed": true,
              "internalType": "address",
              "name": "to",
              "type": "address"
            },
            {
              "indexed": false,
              "internalType": "uint256[]",
              "name": "ids",
              "type": "uint256[]"
            },
            {
              "indexed": false,
              "internalType": "uint256[]",
              "name": "amounts",
              "type": "uint256[]"
            }
          ],
          "name": "TransferBatch",
          "type": "event"
        },
        {
          "anonymous": false,
          "inputs": [
            {
              "indexed": true,
              "internalType": "address",
              "name": "operator",
              "type": "address"
            },
            {
              "indexed": true,
              "internalType": "address",
              "name": "from",
              "type": "address"
            },
            {
              "indexed": true,
              "internalType": "address",
              "name": "to",
              "type": "address"
            },
            {
              "indexed": false,
              "internalType": "uint256",
              "name": "id",
              "type": "uint256"
            },
            {
              "indexed": false,
              "internalType": "uint256",
              "name": "amount",
              "type": "uint256"
            }
          ],
          "name": "TransferSingle",
          "type": "event"
        },
        {
          "anonymous": false,
          "inputs": [
            {
              "indexed": false,
              "internalType": "string",
              "name": "value",
              "type": "string"
            },
            {
              "indexed": true,
              "internalType": "uint256",
              "name": "id",
              "type": "uint256"
            }
          ],
          "name": "URI",
          "type": "event"
        },
        {
          "inputs": [
            {
              "internalType": "address",
              "name": "",
              "type": "address"
            },
            {
              "internalType": "uint256",
              "name": "",
              "type": "uint256"
            }
          ],
          "name": "balanceOf",
          "outputs": [
            {
              "internalType": "uint256",
              "name": "",
              "type": "uint256"
            }
          ],
          "stateMutability": "view",
          "type": "function"
        },
        {
          "inputs": [
            {
              "internalType": "address[]",
              "name": "owners",
              "type": "address[]"
            },
            {
              "internalType": "uint256[]",
              "name": "ids",
              "type": "uint256[]"
            }
          ],
          "name": "balanceOfBatch",
          "outputs": [
            {
              "internalType": "uint256[]",
              "name": "balances",
              "type": "uint256[]"
            }
          ],
          "stateMutability": "view",
          "type": "function"
        },
        {
          "inputs": [
            {
              "internalType": "address",
              "name": "",
              "type": "address"
            },
            {
              "internalType": "address",
              "name": "",
              "type": "address"
            }
          ],
          "name": "isApprovedForAll",
          "outputs": [
            {
              "internalType": "bool",
              "name": "",
              "type": "bool"
            }
          ],
          "stateMutability": "view",
          "type": "function"
        },
        {
          "inputs": [
            {
              "internalType": "address",
              "name": "to",
              "type": "address"
            },
            {
              "internalType": "uint256",
              "name": "tokenId",
              "type": "uint256"
            },
            {
              "internalType": "uint256",
              "name": "amount",
              "type": "uint256"
            }
          ],
          "name": "mint",
          "outputs": [
            {
              "internalType": "bool",
              "name": "",
              "type": "bool"
            }
          ],
          "stateMutability": "nonpayable",
          "type": "function"
        },
        {
          "inputs": [
            {
              "internalType": "address",
              "name": "from",
              "type": "address"
            },
            {
              "internalType": "address",
              "name": "to",
              "type": "address"
            },
            {
              "internalType": "uint256[]",
              "name": "ids",
              "type": "uint256[]"
            },
            {
              "internalType": "uint256[]",
              "name": "amounts",
              "type": "uint256[]"
            },
            {
              "internalType": "bytes",
              "name": "data",
              "type": "bytes"
            }
          ],
          "name": "safeBatchTransferFrom",
          "outputs": [],
          "stateMutability": "nonpayable",
          "type": "function"
        },
        {
          "inputs": [
            {
              "internalType": "address",
              "name": "from",
              "type": "address"
            },
            {
              "internalType": "address",
              "name": "to",
              "type": "address"
            },
            {
              "internalType": "uint256",
              "name": "id",
              "type": "uint256"
            },
            {
              "internalType": "uint256",
              "name": "amount",
              "type": "uint256"
            },
            {
              "internalType": "bytes",
              "name": "data",
              "type": "bytes"
            }
          ],
          "name": "safeTransferFrom",
          "outputs": [],
          "stateMutability": "nonpayable",
          "type": "function"
        },
        {
          "inputs": [
            {
              "internalType": "address",
              "name": "operator",
              "type": "address"
            },
            {
              "internalType": "bool",
              "name": "approved",
              "type": "bool"
            }
          ],
          "name": "setApprovalForAll",
          "outputs": [],
          "stateMutability": "nonpayable",
          "type": "function"
        },
        {
          "inputs": [
            {
              "internalType": "bytes4",
              "name": "interfaceId",
              "type": "bytes4"
            }
          ],
          "name": "supportsInterface",
          "outputs": [
            {
              "internalType": "bool",
              "name": "",
              "type": "bool"
            }
          ],
          "stateMutability": "pure",
          "type": "function"
        },
        {
          "inputs": [
            {
              "internalType": "uint256",
              "name": "",
              "type": "uint256"
            }
          ],
          "name": "uri",
          "outputs": [
            {
              "internalType": "string",
              "name": "",
              "type": "string"
            }
          ],
          "stateMutability": "pure",
          "type": "function"
        }
      ],
      "evm": {
        "bytecode": {
          "linkReferences": {},
          "object": "6080806040523461001657611177908161001c8239f35b600080fdfe608080604052600436101561001357600080fd5b6000803560e01c918262fdd58e146100d1575050806301ffc9a7146100c85780630e89341c146100bf578063156e29f6146100b65780632eb2c2d6146100ad5780634e1273f4146100a4578063a22cb4651461009b578063e985e9c5146100925763f242432a14610085575b38600080fd5b61008d610b93565b61007f565b5061008d610b16565b5061008d610a46565b5061008d61098b565b5061008d6106cc565b5061008d610378565b5061008d6102f6565b5061008d6101b4565b3461011a57604060031936011261011a57604060209273ffffffffffffffffffffffffffffffffffffffff61010461011e565b1681528084528181206024358252845220548152f35b5080fd5b6004359073ffffffffffffffffffffffffffffffffffffffff8216820361014157565b600080fd5b6024359073ffffffffffffffffffffffffffffffffffffffff8216820361014157565b359073ffffffffffffffffffffffffffffffffffffffff8216820361014157565b7fffffffff0000000000000000000000000000000000000000000000000000000081160361014157565b50346101415760206003193601126101415760207fffffffff000000000000000000000000000000000000000000000000000000006004356101f58161018a565b167f01ffc9a700000000000000000000000000000000000000000000000000000000811490811561025d575b8115610233575b506040519015158152f35b7f0e89341c0000000000000000000000000000000000000000000000000000000091501438610228565b7fd9b67a260000000000000000000000000000000000000000000000000000000081149150610221565b91908251928382526000905b8482106102de5750601f84602094957fffffffffffffffffffffffffffffffffffffffffffffffffffffffffffffffe093116102d1575b0116010190565b60008582860101526102ca565b90602090818082850101519082860101520190610293565b5034610141576020600319360112610141576103676040516040810181811067ffffffffffffffff82111761036b575b604052600381527f75726900000000000000000000000000000000000000000000000000000000006020820152604051918291602083526020830190610287565b0390f35b61037361052a565b610326565b50346101415760606003193601126101415761046661039561011e565b6024356044356040516103a78161055a565b600081526103e8836103d98673ffffffffffffffffffffffffffffffffffffffff166000526000602052604060002090565b90600052602052604060002090565b6103f3838254610e2b565b905573ffffffffffffffffffffffffffffffffffffffff8416938460006040517fc3d58168c5ae7397731d063d5bbf3d657854427343f4c083240f7aacaa2d0f6233918061044f898b8360209093929193604081019481520152565b0390a4600092903b61047257505050501515610ee7565b60405160018152602090f35b6104d5917fffffffff000000000000000000000000000000000000000000000000000000009495602092856040518096819582947ff23a6e61000000000000000000000000000000000000000000000000000000009c8d85523360048601610e58565b03925af191821561051d575b916104ef575b501614610ee7565b610510915060203d8111610516575b6105088183610583565b810190610e43565b386104e7565b503d6104fe565b610525610eda565b6104e1565b507f4e487b7100000000000000000000000000000000000000000000000000000000600052604160045260246000fd5b6020810190811067ffffffffffffffff82111761057657604052565b61057e61052a565b604052565b90601f7fffffffffffffffffffffffffffffffffffffffffffffffffffffffffffffffe0910116810190811067ffffffffffffffff82111761057657604052565b60209067ffffffffffffffff81116105de575b60051b0190565b6105e661052a565b6105d7565b81601f8201121561014157803591610602836105c4565b926106106040519485610583565b808452602092838086019260051b820101928311610141578301905b82821061063a575050505090565b8135815290830190830161062c565b81601f820112156101415780359067ffffffffffffffff82116106bf575b6040519261069d60207fffffffffffffffffffffffffffffffffffffffffffffffffffffffffffffffe0601f8601160185610583565b8284526020838301011161014157816000926020809301838601378301015290565b6106c761052a565b610667565b50346101415760a0600319360112610141576106e661011e565b6106ee610146565b9067ffffffffffffffff90604435828111610141576107119036906004016105eb565b606435838111610141576107299036906004016105eb565b9260843590811161014157610742903690600401610649565b81519361075181518614610f4c565b73ffffffffffffffffffffffffffffffffffffffff8085169586331480156108db575b61077d90610d7f565b60005b818110610843575050956107dc96811680966040517f4a39dc06d4c0dbc64b70af90fd698a233a518aa5d07e595d983b8c0526c8f7fb3391806107c4888b83610ff4565b0390a4600093903b6107de5750505050501515610ee7565b005b917fffffffff000000000000000000000000000000000000000000000000000000009495602092856104d595604051968795869485937fbc197c81000000000000000000000000000000000000000000000000000000009d8e86523360048701611019565b80876108d36108cb836103d98e6108988b6103d98f61086760019c61087092610fb1565b51968793610fb1565b519873ffffffffffffffffffffffffffffffffffffffff166000526000602052604060002090565b6108a3878254610e14565b905573ffffffffffffffffffffffffffffffffffffffff166000526000602052604060002090565b918254610e2b565b905501610780565b5061077d61093c610935336109108a73ffffffffffffffffffffffffffffffffffffffff166000526001602052604060002090565b9073ffffffffffffffffffffffffffffffffffffffff16600052602052604060002090565b5460ff1690565b9050610774565b90815180825260208080930193019160005b828110610963575050505090565b835185529381019392810192600101610955565b906020610988928181520190610943565b90565b50346101415760406003193601126101415760043567ffffffffffffffff80821161014157366023830112156101415781600401356109c9816105c4565b926109d76040519485610583565b81845260209160248386019160051b8301019136831161014157602401905b828210610a2f57856024358681116101415761036791610a1d610a239236906004016105eb565b90611075565b60405191829182610977565b838091610a3b84610169565b8152019101906109f6565b503461014157604060031936011261014157610a6061011e565b602435908115158092036101415773ffffffffffffffffffffffffffffffffffffffff90336000526001602052610abb8160406000209073ffffffffffffffffffffffffffffffffffffffff16600052602052604060002090565b7fffffffffffffffffffffffffffffffffffffffffffffffffffffffffffffff0081541660ff851617905560405192835216907f17307eab39ab6107e8899845ad3d59bd9653f200f220920489ca2b5937696c3160203392a3005b503461014157604060031936011261014157602060ff610b87610b3761011e565b73ffffffffffffffffffffffffffffffffffffffff610b54610146565b91166000526001845260406000209073ffffffffffffffffffffffffffffffffffffffff16600052602052604060002090565b54166040519015158152f35b50346101415760a060031936011261014157610bad61011e565b610bb5610146565b6084359160443560643567ffffffffffffffff851161014157610bdf6107dc953690600401610649565b9073ffffffffffffffffffffffffffffffffffffffff94858516958633148015610d43575b610c0d90610d7f565b610c3b856103d98873ffffffffffffffffffffffffffffffffffffffff166000526000602052604060002090565b610c46848254610e14565b9055610c76856103d98473ffffffffffffffffffffffffffffffffffffffff166000526000602052604060002090565b610c81848254610e2b565b9055811680966040517fc3d58168c5ae7397731d063d5bbf3d657854427343f4c083240f7aacaa2d0f62339180610cc6888b8360209093929193604081019481520152565b0390a4600093903b610cde5750505050501515610ee7565b917fffffffff000000000000000000000000000000000000000000000000000000009495602092856104d595604051968795869485937ff23a6e61000000000000000000000000000000000000000000000000000000009d8e86523360048701610e98565b50610c0d610d78610935336109108a73ffffffffffffffffffffffffffffffffffffffff166000526001602052604060002090565b9050610c04565b15610d8657565b60646040517f08c379a000000000000000000000000000000000000000000000000000000000815260206004820152600e60248201527f4e4f545f415554484f52495a45440000000000000000000000000000000000006044820152fd5b507f4e487b7100000000000000000000000000000000000000000000000000000000600052601160045260246000fd5b818110610e1f570390565b610e27610de4565b0390565b81198111610e37570190565b610e3f610de4565b0190565b9081602091031261014157516109888161018a565b909260a09273ffffffffffffffffffffffffffffffffffffffff610988969516835260006020840152604083015260608201528160808201520190610287565b919261098895949160a09473ffffffffffffffffffffffffffffffffffffffff8092168552166020840152604083015260608201528160808201520190610287565b506040513d6000823e3d90fd5b15610eee57565b60646040517f08c379a000000000000000000000000000000000000000000000000000000000815260206004820152601060248201527f554e534146455f524543495049454e54000000000000000000000000000000006044820152fd5b15610f5357565b60646040517f08c379a000000000000000000000000000000000000000000000000000000000815260206004820152600f60248201527f4c454e4754485f4d49534d4154434800000000000000000000000000000000006044820152fd5b8051821015610fc55760209160051b010190565b7f4e487b7100000000000000000000000000000000000000000000000000000000600052603260045260246000fd5b909161100b61098893604084526040840190610943565b916020818403910152610943565b93906109889593611059916110679473ffffffffffffffffffffffffffffffffffffffff809216885216602087015260a0604087015260a0860190610943565b908482036060860152610943565b916080818403910152610287565b91825161108483518214610f4c565b835161108f816105c4565b907fffffffffffffffffffffffffffffffffffffffffffffffffffffffffffffffe06110cb6040926110c384519586610583565b8085526105c4565b01946020953687850137829560005b8581106110ec57505050505050909150565b8073ffffffffffffffffffffffffffffffffffffffff61110e6001938c610fb1565b511660005260008352846000206111258286610fb1565b516000528352846000205461113a8288610fb1565b52016110da56fea2646970667358221220e4f8d31cbb95e22865c6056aba9a89d795cd11c84293317e9dfd45bec088354a64736f6c634300080d0033",
          "opcodes": "PUSH1 0x80 DUP1 PUSH1 0x40 MSTORE CALLVALUE PUSH2 0x16 JUMPI PUSH2 0x1177 SWAP1 DUP2 PUSH2 0x1C DUP3 CODECOPY RETURN JUMPDEST PUSH1 0x0 DUP1 REVERT INVALID PUSH1 0x80 DUP1 PUSH1 0x40 MSTORE PUSH1 0x4 CALLDATASIZE LT ISZERO PUSH2 0x13 JUMPI PUSH1 0x0 DUP1 REVERT JUMPDEST PUSH1 0x0 DUP1 CALLDATALOAD PUSH1 0xE0 SHR SWAP2 DUP3 PUSH3 0xFDD58E EQ PUSH2 0xD1 JUMPI POP POP DUP1 PUSH4 0x1FFC9A7 EQ PUSH2 0xC8 JUMPI DUP1 PUSH4 0xE89341C EQ PUSH2 0xBF JUMPI DUP1 PUSH4 0x156E29F6 EQ PUSH2 0xB6 JUMPI DUP1 PUSH4 0x2EB2C2D6 EQ PUSH2 0xAD JUMPI DUP1 PUSH4 0x4E1273F4 EQ PUSH2 0xA4 JUMPI DUP1 PUSH4 0xA22CB465 EQ PUSH2 0x9B JUMPI DUP1 PUSH4 0xE985E9C5 EQ PUSH2 0x92 JUMPI PUSH4 0xF242432A EQ PUSH2 0x85 JUMPI JUMPDEST CODESIZE PUSH1 0x0 DUP1 REVERT JUMPDEST PUSH2 0x8D PUSH2 0xB93 JUMP JUMPDEST PUSH2 0x7F JUMP JUMPDEST POP PUSH2 0x8D PUSH2 0xB16 JUMP JUMPDEST POP PUSH2 0x8D PUSH2 0xA46 JUMP JUMPDEST POP PUSH2 0x8D PUSH2 0x98B JUMP JUMPDEST POP PUSH2 0x8D PUSH2 0x6CC JUMP JUMPDEST POP PUSH2 0x8D PUSH2 0x378 JUMP JUMPDEST POP PUSH2 0x8D PUSH2 0x2F6 JUMP JUMPDEST POP PUSH2 0x8D PUSH2 0x1B4 JUMP JUMPDEST CALLVALUE PUSH2 0x11A JUMPI PUSH1 0x40 PUSH1 0x3 NOT CALLDATASIZE ADD SLT PUSH2 0x11A JUMPI PUSH1 0x40 PUSH1 0x20 SWAP3 PUSH20 0xFFFFFFFFFFFFFFFFFFFFFFFFFFFFFFFFFFFFFFFF PUSH2 0x104 PUSH2 0x11E JUMP JUMPDEST AND DUP2 MSTORE DUP1 DUP5 MSTORE DUP2 DUP2 KECCAK256 PUSH1 0x24 CALLDATALOAD DUP3 MSTORE DUP5 MSTORE KECCAK256 SLOAD DUP2 MSTORE RETURN JUMPDEST POP DUP1 REVERT JUMPDEST PUSH1 0x4 CALLDATALOAD SWAP1 PUSH20 0xFFFFFFFFFFFFFFFFFFFFFFFFFFFFFFFFFFFFFFFF DUP3 AND DUP3 SUB PUSH2 0x141 JUMPI JUMP JUMPDEST PUSH1 0x0 DUP1 REVERT JUMPDEST PUSH1 0x24 CALLDATALOAD SWAP1 PUSH20 0xFFFFFFFFFFFFFFFFFFFFFFFFFFFFFFFFFFFFFFFF DUP3 AND DUP3 SUB PUSH2 0x141 JUMPI JUMP JUMPDEST CALLDATALOAD SWAP1 PUSH20 0xFFFFFFFFFFFFFFFFFFFFFFFFFFFFFFFFFFFFFFFF DUP3 AND DUP3 SUB PUSH2 0x141 JUMPI JUMP JUMPDEST PUSH32 0xFFFFFFFF00000000000000000000000000000000000000000000000000000000 DUP2 AND SUB PUSH2 0x141 JUMPI JUMP JUMPDEST POP CALLVALUE PUSH2 0x141 JUMPI PUSH1 0x20 PUSH1 0x3 NOT CALLDATASIZE ADD SLT PUSH2 0x141 JUMPI PUSH1 0x20 PUSH32 0xFFFFFFFF00000000000000000000000000000000000000000000000000000000 PUSH1 0x4 CALLDATALOAD PUSH2 0x1F5 DUP2 PUSH2 0x18A JUMP JUMPDEST AND PUSH32 0x1FFC9A700000000000000000000000000000000000000000000000000000000 DUP2 EQ SWAP1 DUP2 ISZERO PUSH2 0x25D JUMPI JUMPDEST DUP2 ISZERO PUSH2 0x233 JUMPI JUMPDEST POP PUSH1 0x40 MLOAD SWAP1 ISZERO ISZERO DUP2 MSTORE RETURN JUMPDEST PUSH32 0xE89341C00000000000000000000000000000000000000000000000000000000 SWAP2 POP EQ CODESIZE PUSH2 0x228 JUMP JUMPDEST PUSH32 0xD9B67A2600000000000000000000000000000000000000000000000000000000 DUP2 EQ SWAP2 POP PUSH2 0x221 JUMP JUMPDEST SWAP2 SWAP1 DUP3 MLOAD SWAP3 DUP4 DUP3 MSTORE PUSH1 0x0 SWAP1 JUMPDEST DUP5 DUP3 LT PUSH2 0x2DE JUMPI POP PUSH1 0x1F DUP5 PUSH1 0x20 SWAP5 SWAP6 PUSH32 0xFFFFFFFFFFFFFFFFFFFFFFFFFFFFFFFFFFFFFFFFFFFFFFFFFFFFFFFFFFFFFFE0 SWAP4 GT PUSH2 0x2D1 JUMPI JUMPDEST ADD AND ADD ADD SWAP1 JUMP JUMPDEST PUSH1 0x0 DUP6 DUP3 DUP7 ADD ADD MSTORE PUSH2 0x2CA JUMP JUMPDEST SWAP1 PUSH1 0x20 SWAP1 DUP2 DUP1 DUP3 DUP6 ADD ADD MLOAD SWAP1 DUP3 DUP7 ADD ADD MSTORE ADD SWAP1 PUSH2 0x293 JUMP JUMPDEST POP CALLVALUE PUSH2 0x141 JUMPI PUSH1 0x20 PUSH1 0x3 NOT CALLDATASIZE ADD SLT PUSH2 0x141 JUMPI PUSH2 0x367 PUSH1 0x40 MLOAD PUSH1 0x40 DUP2 ADD DUP2 DUP2 LT PUSH8 0xFFFFFFFFFFFFFFFF DUP3 GT OR PUSH2 0x36B JUMPI JUMPDEST PUSH1 0x40 MSTORE PUSH1 0x3 DUP2 MSTORE PUSH32 0x7572690000000000000000000000000000000000000000000000000000000000 PUSH1 0x20 DUP3 ADD MSTORE PUSH1 0x40 MLOAD SWAP2 DUP3 SWAP2 PUSH1 0x20 DUP4 MSTORE PUSH1 0x20 DUP4 ADD SWAP1 PUSH2 0x287 JUMP JUMPDEST SUB SWAP1 RETURN JUMPDEST PUSH2 0x373 PUSH2 0x52A JUMP JUMPDEST PUSH2 0x326 JUMP JUMPDEST POP CALLVALUE PUSH2 0x141 JUMPI PUSH1 0x60 PUSH1 0x3 NOT CALLDATASIZE ADD SLT PUSH2 0x141 JUMPI PUSH2 0x466 PUSH2 0x395 PUSH2 0x11E JUMP JUMPDEST PUSH1 0x24 CALLDATALOAD PUSH1 0x44 CALLDATALOAD PUSH1 0x40 MLOAD PUSH2 0x3A7 DUP2 PUSH2 0x55A JUMP JUMPDEST PUSH1 0x0 DUP2 MSTORE PUSH2 0x3E8 DUP4 PUSH2 0x3D9 DUP7 PUSH20 0xFFFFFFFFFFFFFFFFFFFFFFFFFFFFFFFFFFFFFFFF AND PUSH1 0x0 MSTORE PUSH1 0x0 PUSH1 0x20 MSTORE PUSH1 0x40 PUSH1 0x0 KECCAK256 SWAP1 JUMP JUMPDEST SWAP1 PUSH1 0x0 MSTORE PUSH1 0x20 MSTORE PUSH1 0x40 PUSH1 0x0 KECCAK256 SWAP1 JUMP JUMPDEST PUSH2 0x3F3 DUP4 DUP3 SLOAD PUSH2 0xE2B JUMP JUMPDEST SWAP1 SSTORE PUSH20 0xFFFFFFFFFFFFFFFFFFFFFFFFFFFFFFFFFFFFFFFF DUP5 AND SWAP4 DUP5 PUSH1 0x0 PUSH1 0x40 MLOAD PUSH32 0xC3D58168C5AE7397731D063D5BBF3D657854427343F4C083240F7AACAA2D0F62 CALLER SWAP2 DUP1 PUSH2 0x44F DUP10 DUP12 DUP4 PUSH1 0x20 SWAP1 SWAP4 SWAP3 SWAP2 SWAP4 PUSH1 0x40 DUP2 ADD SWAP5 DUP2 MSTORE ADD MSTORE JUMP JUMPDEST SUB SWAP1 LOG4 PUSH1 0x0 SWAP3 SWAP1 EXTCODESIZE PUSH2 0x472 JUMPI POP POP POP POP ISZERO ISZERO PUSH2 0xEE7 JUMP JUMPDEST PUSH1 0x40 MLOAD PUSH1 0x1 DUP2 MSTORE PUSH1 0x20 SWAP1 RETURN JUMPDEST PUSH2 0x4D5 SWAP2 PUSH32 0xFFFFFFFF00000000000000000000000000000000000000000000000000000000 SWAP5 SWAP6 PUSH1 0x20 SWAP3 DUP6 PUSH1 0x40 MLOAD DUP1 SWAP7 DUP2 SWAP6 DUP3 SWAP5 PUSH32 0xF23A6E6100000000000000000000000000000000000000000000000000000000 SWAP13 DUP14 DUP6 MSTORE CALLER PUSH1 0x4 DUP7 ADD PUSH2 0xE58 JUMP JUMPDEST SUB SWAP3 GAS CALL SWAP2 DUP3 ISZERO PUSH2 0x51D JUMPI JUMPDEST SWAP2 PUSH2 0x4EF JUMPI JUMPDEST POP AND EQ PUSH2 0xEE7 JUMP JUMPDEST PUSH2 0x510 SWAP2 POP PUSH1 0x20 RETURNDATASIZE DUP2 GT PUSH2 0x516 JUMPI JUMPDEST PUSH2 0x508 DUP2 DUP4 PUSH2 0x583 JUMP JUMPDEST DUP2 ADD SWAP1 PUSH2 0xE43 JUMP JUMPDEST CODESIZE PUSH2 0x4E7 JUMP JUMPDEST POP RETURNDATASIZE PUSH2 0x4FE JUMP JUMPDEST PUSH2 0x525 PUSH2 0xEDA JUMP JUMPDEST PUSH2 0x4E1 JUMP JUMPDEST POP PUSH32 0x4E487B7100000000000000000000000000000000000000000000000000000000 PUSH1 0x0 MSTORE PUSH1 0x41 PUSH1 0x4 MSTORE PUSH1 0x24 PUSH1 0x0 REVERT JUMPDEST PUSH1 0x20 DUP2 ADD SWAP1 DUP2 LT PUSH8 0xFFFFFFFFFFFFFFFF DUP3 GT OR PUSH2 0x576 JUMPI PUSH1 0x40 MSTORE JUMP JUMPDEST PUSH2 0x57E PUSH2 0x52A JUMP JUMPDEST PUSH1 0x40 MSTORE JUMP JUMPDEST SWAP1 PUSH1 0x1F PUSH32 0xFFFFFFFFFFFFFFFFFFFFFFFFFFFFFFFFFFFFFFFFFFFFFFFFFFFFFFFFFFFFFFE0 SWAP2 ADD AND DUP2 ADD SWAP1 DUP2 LT PUSH8 0xFFFFFFFFFFFFFFFF DUP3 GT OR PUSH2 0x576 JUMPI PUSH1 0x40 MSTORE JUMP JUMPDEST PUSH1 0x20 SWAP1 PUSH8 0xFFFFFFFFFFFFFFFF DUP2 GT PUSH2 0x5DE JUMPI JUMPDEST PUSH1 0x5 SHL ADD SWAP1 JUMP JUMPDEST PUSH2 0x5E6 PUSH2 0x52A JUMP JUMPDEST PUSH2 0x5D7 JUMP JUMPDEST DUP2 PUSH1 0x1F DUP3 ADD SLT ISZERO PUSH2 0x141 JUMPI DUP1 CALLDATALOAD SWAP2 PUSH2 0x602 DUP4 PUSH2 0x5C4 JUMP JUMPDEST SWAP3 PUSH2 0x610 PUSH1 0x40 MLOAD SWAP5 DUP6 PUSH2 0x583 JUMP JUMPDEST DUP1 DUP5 MSTORE PUSH1 0x20 SWAP3 DUP4 DUP1 DUP7 ADD SWAP3 PUSH1 0x5 SHL DUP3 ADD ADD SWAP3 DUP4 GT PUSH2 0x141 JUMPI DUP4 ADD SWAP1 JUMPDEST DUP3 DUP3 LT PUSH2 0x63A JUMPI POP POP POP POP SWAP1 JUMP JUMPDEST DUP2 CALLDATALOAD DUP2 MSTORE SWAP1 DUP4 ADD SWAP1 DUP4 ADD PUSH2 0x62C JUMP JUMPDEST DUP2 PUSH1 0x1F DUP3 ADD SLT ISZERO PUSH2 0x141 JUMPI DUP1 CALLDATALOAD SWAP1 PUSH8 0xFFFFFFFFFFFFFFFF DUP3 GT PUSH2 0x6BF JUMPI JUMPDEST PUSH1 0x40 MLOAD SWAP3 PUSH2 0x69D PUSH1 0x20 PUSH32 0xFFFFFFFFFFFFFFFFFFFFFFFFFFFFFFFFFFFFFFFFFFFFFFFFFFFFFFFFFFFFFFE0 PUSH1 0x1F DUP7 ADD AND ADD DUP6 PUSH2 0x583 JUMP JUMPDEST DUP3 DUP5 MSTORE PUSH1 0x20 DUP4 DUP4 ADD ADD GT PUSH2 0x141 JUMPI DUP2 PUSH1 0x0 SWAP3 PUSH1 0x20 DUP1 SWAP4 ADD DUP4 DUP7 ADD CALLDATACOPY DUP4 ADD ADD MSTORE SWAP1 JUMP JUMPDEST PUSH2 0x6C7 PUSH2 0x52A JUMP JUMPDEST PUSH2 0x667 JUMP JUMPDEST POP CALLVALUE PUSH2 0x141 JUMPI PUSH1 0xA0 PUSH1 0x3 NOT CALLDATASIZE ADD SLT PUSH2 0x141 JUMPI PUSH2 0x6E6 PUSH2 0x11E JUMP JUMPDEST PUSH2 0x6EE PUSH2 0x146 JUMP JUMPDEST SWAP1 PUSH8 0xFFFFFFFFFFFFFFFF SWAP1 PUSH1 0x44 CALLDATALOAD DUP3 DUP2 GT PUSH2 0x141 JUMPI PUSH2 0x711 SWAP1 CALLDATASIZE SWAP1 PUSH1 0x4 ADD PUSH2 0x5EB JUMP JUMPDEST PUSH1 0x64 CALLDATALOAD DUP4 DUP2 GT PUSH2 0x141 JUMPI PUSH2 0x729 SWAP1 CALLDATASIZE SWAP1 PUSH1 0x4 ADD PUSH2 0x5EB JUMP JUMPDEST SWAP3 PUSH1 0x84 CALLDATALOAD SWAP1 DUP2 GT PUSH2 0x141 JUMPI PUSH2 0x742 SWAP1 CALLDATASIZE SWAP1 PUSH1 0x4 ADD PUSH2 0x649 JUMP JUMPDEST DUP2 MLOAD SWAP4 PUSH2 0x751 DUP2 MLOAD DUP7 EQ PUSH2 0xF4C JUMP JUMPDEST PUSH20 0xFFFFFFFFFFFFFFFFFFFFFFFFFFFFFFFFFFFFFFFF DUP1 DUP6 AND SWAP6 DUP7 CALLER EQ DUP1 ISZERO PUSH2 0x8DB JUMPI JUMPDEST PUSH2 0x77D SWAP1 PUSH2 0xD7F JUMP JUMPDEST PUSH1 0x0 JUMPDEST DUP2 DUP2 LT PUSH2 0x843 JUMPI POP POP SWAP6 PUSH2 0x7DC SWAP7 DUP2 AND DUP1 SWAP7 PUSH1 0x40 MLOAD PUSH32 0x4A39DC06D4C0DBC64B70AF90FD698A233A518AA5D07E595D983B8C0526C8F7FB CALLER SWAP2 DUP1 PUSH2 0x7C4 DUP9 DUP12 DUP4 PUSH2 0xFF4 JUMP JUMPDEST SUB SWAP1 LOG4 PUSH1 0x0 SWAP4 SWAP1 EXTCODESIZE PUSH2 0x7DE JUMPI POP POP POP POP POP ISZERO ISZERO PUSH2 0xEE7 JUMP JUMPDEST STOP JUMPDEST SWAP2 PUSH32 0xFFFFFFFF00000000000000000000000000000000000000000000000000000000 SWAP5 SWAP6 PUSH1 0x20 SWAP3 DUP6 PUSH2 0x4D5 SWAP6 PUSH1 0x40 MLOAD SWAP7 DUP8 SWAP6 DUP7 SWAP5 DUP6 SWAP4 PUSH32 0xBC197C8100000000000000000000000000000000000000000000000000000000 SWAP14 DUP15 DUP7 MSTORE CALLER PUSH1 0x4 DUP8 ADD PUSH2 0x1019 JUMP JUMPDEST DUP1 DUP8 PUSH2 0x8D3 PUSH2 0x8CB DUP4 PUSH2 0x3D9 DUP15 PUSH2 0x898 DUP12 PUSH2 0x3D9 DUP16 PUSH2 0x867 PUSH1 0x1 SWAP13 PUSH2 0x870 SWAP3 PUSH2 0xFB1 JUMP JUMPDEST MLOAD SWAP7 DUP8 SWAP4 PUSH2 0xFB1 JUMP JUMPDEST MLOAD SWAP9 PUSH20 0xFFFFFFFFFFFFFFFFFFFFFFFFFFFFFFFFFFFFFFFF AND PUSH1 0x0 MSTORE PUSH1 0x0 PUSH1 0x20 MSTORE PUSH1 0x40 PUSH1 0x0 KECCAK256 SWAP1 JUMP JUMPDEST PUSH2 0x8A3 DUP8 DUP3 SLOAD PUSH2 0xE14 JUMP JUMPDEST SWAP1 SSTORE PUSH20 0xFFFFFFFFFFFFFFFFFFFFFFFFFFFFFFFFFFFFFFFF AND PUSH1 0x0 MSTORE PUSH1 0x0 PUSH1 0x20 MSTORE PUSH1 0x40 PUSH1 0x0 KECCAK256 SWAP1 JUMP JUMPDEST SWAP2 DUP3 SLOAD PUSH2 0xE2B JUMP JUMPDEST SWAP1 SSTORE ADD PUSH2 0x780 JUMP JUMPDEST POP PUSH2 0x77D PUSH2 0x93C PUSH2 0x935 CALLER PUSH2 0x910 DUP11 PUSH20 0xFFFFFFFFFFFFFFFFFFFFFFFFFFFFFFFFFFFFFFFF AND PUSH1 0x0 MSTORE PUSH1 0x1 PUSH1 0x20 MSTORE PUSH1 0x40 PUSH1 0x0 KECCAK256 SWAP1 JUMP JUMPDEST SWAP1 PUSH20 0xFFFFFFFFFFFFFFFFFFFFFFFFFFFFFFFFFFFFFFFF AND PUSH1 0x0 MSTORE PUSH1 0x20 MSTORE PUSH1 0x40 PUSH1 0x0 KECCAK256 SWAP1 JUMP JUMPDEST SLOAD PUSH1 0xFF AND SWAP1 JUMP JUMPDEST SWAP1 POP PUSH2 0x774 JUMP JUMPDEST SWAP1 DUP2 MLOAD DUP1 DUP3 MSTORE PUSH1 0x20 DUP1 DUP1 SWAP4 ADD SWAP4 ADD SWAP2 PUSH1 0x0 JUMPDEST DUP3 DUP2 LT PUSH2 0x963 JUMPI POP POP POP POP SWAP1 JUMP JUMPDEST DUP4 MLOAD DUP6 MSTORE SWAP4 DUP2 ADD SWAP4 SWAP3 DUP2 ADD SWAP3 PUSH1 0x1 ADD PUSH2 0x955 JUMP JUMPDEST SWAP1 PUSH1 0x20 PUSH2 0x988 SWAP3 DUP2 DUP2 MSTORE ADD SWAP1 PUSH2 0x943 JUMP JUMPDEST SWAP1 JUMP JUMPDEST POP CALLVALUE PUSH2 0x141 JUMPI PUSH1 0x40 PUSH1 0x3 NOT CALLDATASIZE ADD SLT PUSH2 0x141 JUMPI PUSH1 0x4 CALLDATALOAD PUSH8 0xFFFFFFFFFFFFFFFF DUP1 DUP3 GT PUSH2 0x141 JUMPI CALLDATASIZE PUSH1 0x23 DUP4 ADD SLT ISZERO PUSH2 0x141 JUMPI DUP2 PUSH1 0x4 ADD CALLDATALOAD PUSH2 0x9C9 DUP2 PUSH2 0x5C4 JUMP JUMPDEST SWAP3 PUSH2 0x9D7 PUSH1 0x40 MLOAD SWAP5 DUP6 PUSH2 0x583 JUMP JUMPDEST DUP2 DUP5 MSTORE PUSH1 0x20 SWAP2 PUSH1 0x24 DUP4 DUP7 ADD SWAP2 PUSH1 0x5 SHL DUP4 ADD ADD SWAP2 CALLDATASIZE DUP4 GT PUSH2 0x141 JUMPI PUSH1 0x24 ADD SWAP1 JUMPDEST DUP3 DUP3 LT PUSH2 0xA2F JUMPI DUP6 PUSH1 0x24 CALLDATALOAD DUP7 DUP2 GT PUSH2 0x141 JUMPI PUSH2 0x367 SWAP2 PUSH2 0xA1D PUSH2 0xA23 SWAP3 CALLDATASIZE SWAP1 PUSH1 0x4 ADD PUSH2 0x5EB JUMP JUMPDEST SWAP1 PUSH2 0x1075 JUMP JUMPDEST PUSH1 0x40 MLOAD SWAP2 DUP3 SWAP2 DUP3 PUSH2 0x977 JUMP JUMPDEST DUP4 DUP1 SWAP2 PUSH2 0xA3B DUP5 PUSH2 0x169 JUMP JUMPDEST DUP2 MSTORE ADD SWAP2 ADD SWAP1 PUSH2 0x9F6 JUMP JUMPDEST POP CALLVALUE PUSH2 0x141 JUMPI PUSH1 0x40 PUSH1 0x3 NOT CALLDATASIZE ADD SLT PUSH2 0x141 JUMPI PUSH2 0xA60 PUSH2 0x11E JUMP JUMPDEST PUSH1 0x24 CALLDATALOAD SWAP1 DUP2 ISZERO ISZERO DUP1 SWAP3 SUB PUSH2 0x141 JUMPI PUSH20 0xFFFFFFFFFFFFFFFFFFFFFFFFFFFFFFFFFFFFFFFF SWAP1 CALLER PUSH1 0x0 MSTORE PUSH1 0x1 PUSH1 0x20 MSTORE PUSH2 0xABB DUP2 PUSH1 0x40 PUSH1 0x0 KECCAK256 SWAP1 PUSH20 0xFFFFFFFFFFFFFFFFFFFFFFFFFFFFFFFFFFFFFFFF AND PUSH1 0x0 MSTORE PUSH1 0x20 MSTORE PUSH1 0x40 PUSH1 0x0 KECCAK256 SWAP1 JUMP JUMPDEST PUSH32 0xFFFFFFFFFFFFFFFFFFFFFFFFFFFFFFFFFFFFFFFFFFFFFFFFFFFFFFFFFFFFFF00 DUP2 SLOAD AND PUSH1 0xFF DUP6 AND OR SWAP1 SSTORE PUSH1 0x40 MLOAD SWAP3 DUP4 MSTORE AND SWAP1 PUSH32 0x17307EAB39AB6107E8899845AD3D59BD9653F200F220920489CA2B5937696C31 PUSH1 0x20 CALLER SWAP3 LOG3 STOP JUMPDEST POP CALLVALUE PUSH2 0x141 JUMPI PUSH1 0x40 PUSH1 0x3 NOT CALLDATASIZE ADD SLT PUSH2 0x141 JUMPI PUSH1 0x20 PUSH1 0xFF PUSH2 0xB87 PUSH2 0xB37 PUSH2 0x11E JUMP JUMPDEST PUSH20 0xFFFFFFFFFFFFFFFFFFFFFFFFFFFFFFFFFFFFFFFF PUSH2 0xB54 PUSH2 0x146 JUMP JUMPDEST SWAP2 AND PUSH1 0x0 MSTORE PUSH1 0x1 DUP5 MSTORE PUSH1 0x40 PUSH1 0x0 KECCAK256 SWAP1 PUSH20 0xFFFFFFFFFFFFFFFFFFFFFFFFFFFFFFFFFFFFFFFF AND PUSH1 0x0 MSTORE PUSH1 0x20 MSTORE PUSH1 0x40 PUSH1 0x0 KECCAK256 SWAP1 JUMP JUMPDEST SLOAD AND PUSH1 0x40 MLOAD SWAP1 ISZERO ISZERO DUP2 MSTORE RETURN JUMPDEST POP CALLVALUE PUSH2 0x141 JUMPI PUSH1 0xA0 PUSH1 0x3 NOT CALLDATASIZE ADD SLT PUSH2 0x141 JUMPI PUSH2 0xBAD PUSH2 0x11E JUMP JUMPDEST PUSH2 0xBB5 PUSH2 0x146 JUMP JUMPDEST PUSH1 0x84 CALLDATALOAD SWAP2 PUSH1 0x44 CALLDATALOAD PUSH1 0x64 CALLDATALOAD PUSH8 0xFFFFFFFFFFFFFFFF DUP6 GT PUSH2 0x141 JUMPI PUSH2 0xBDF PUSH2 0x7DC SWAP6 CALLDATASIZE SWAP1 PUSH1 0x4 ADD PUSH2 0x649 JUMP JUMPDEST SWAP1 PUSH20 0xFFFFFFFFFFFFFFFFFFFFFFFFFFFFFFFFFFFFFFFF SWAP5 DUP6 DUP6 AND SWAP6 DUP7 CALLER EQ DUP1 ISZERO PUSH2 0xD43 JUMPI JUMPDEST PUSH2 0xC0D SWAP1 PUSH2 0xD7F JUMP JUMPDEST PUSH2 0xC3B DUP6 PUSH2 0x3D9 DUP9 PUSH20 0xFFFFFFFFFFFFFFFFFFFFFFFFFFFFFFFFFFFFFFFF AND PUSH1 0x0 MSTORE PUSH1 0x0 PUSH1 0x20 MSTORE PUSH1 0x40 PUSH1 0x0 KECCAK256 SWAP1 JUMP JUMPDEST PUSH2 0xC46 DUP5 DUP3 SLOAD PUSH2 0xE14 JUMP JUMPDEST SWAP1 SSTORE PUSH2 0xC76 DUP6 PUSH2 0x3D9 DUP5 PUSH20 0xFFFFFFFFFFFFFFFFFFFFFFFFFFFFFFFFFFFFFFFF AND PUSH1 0x0 MSTORE PUSH1 0x0 PUSH1 0x20 MSTORE PUSH1 0x40 PUSH1 0x0 KECCAK256 SWAP1 JUMP JUMPDEST PUSH2 0xC81 DUP5 DUP3 SLOAD PUSH2 0xE2B JUMP JUMPDEST SWAP1 SSTORE DUP2 AND DUP1 SWAP7 PUSH1 0x40 MLOAD PUSH32 0xC3D58168C5AE7397731D063D5BBF3D657854427343F4C083240F7AACAA2D0F62 CALLER SWAP2 DUP1 PUSH2 0xCC6 DUP9 DUP12 DUP4 PUSH1 0x20 SWAP1 SWAP4 SWAP3 SWAP2 SWAP4 PUSH1 0x40 DUP2 ADD SWAP5 DUP2 MSTORE ADD MSTORE JUMP JUMPDEST SUB SWAP1 LOG4 PUSH1 0x0 SWAP4 SWAP1 EXTCODESIZE PUSH2 0xCDE JUMPI POP POP POP POP POP ISZERO ISZERO PUSH2 0xEE7 JUMP JUMPDEST SWAP2 PUSH32 0xFFFFFFFF00000000000000000000000000000000000000000000000000000000 SWAP5 SWAP6 PUSH1 0x20 SWAP3 DUP6 PUSH2 0x4D5 SWAP6 PUSH1 0x40 MLOAD SWAP7 DUP8 SWAP6 DUP7 SWAP5 DUP6 SWAP4 PUSH32 0xF23A6E6100000000000000000000000000000000000000000000000000000000 SWAP14 DUP15 DUP7 MSTORE CALLER PUSH1 0x4 DUP8 ADD PUSH2 0xE98 JUMP JUMPDEST POP PUSH2 0xC0D PUSH2 0xD78 PUSH2 0x935 CALLER PUSH2 0x910 DUP11 PUSH20 0xFFFFFFFFFFFFFFFFFFFFFFFFFFFFFFFFFFFFFFFF AND PUSH1 0x0 MSTORE PUSH1 0x1 PUSH1 0x20 MSTORE PUSH1 0x40 PUSH1 0x0 KECCAK256 SWAP1 JUMP JUMPDEST SWAP1 POP PUSH2 0xC04 JUMP JUMPDEST ISZERO PUSH2 0xD86 JUMPI JUMP JUMPDEST PUSH1 0x64 PUSH1 0x40 MLOAD PUSH32 0x8C379A000000000000000000000000000000000000000000000000000000000 DUP2 MSTORE PUSH1 0x20 PUSH1 0x4 DUP3 ADD MSTORE PUSH1 0xE PUSH1 0x24 DUP3 ADD MSTORE PUSH32 0x4E4F545F415554484F52495A4544000000000000000000000000000000000000 PUSH1 0x44 DUP3 ADD MSTORE REVERT JUMPDEST POP PUSH32 0x4E487B7100000000000000000000000000000000000000000000000000000000 PUSH1 0x0 MSTORE PUSH1 0x11 PUSH1 0x4 MSTORE PUSH1 0x24 PUSH1 0x0 REVERT JUMPDEST DUP2 DUP2 LT PUSH2 0xE1F JUMPI SUB SWAP1 JUMP JUMPDEST PUSH2 0xE27 PUSH2 0xDE4 JUMP JUMPDEST SUB SWAP1 JUMP JUMPDEST DUP2 NOT DUP2 GT PUSH2 0xE37 JUMPI ADD SWAP1 JUMP JUMPDEST PUSH2 0xE3F PUSH2 0xDE4 JUMP JUMPDEST ADD SWAP1 JUMP JUMPDEST SWAP1 DUP2 PUSH1 0x20 SWAP2 SUB SLT PUSH2 0x141 JUMPI MLOAD PUSH2 0x988 DUP2 PUSH2 0x18A JUMP JUMPDEST SWAP1 SWAP3 PUSH1 0xA0 SWAP3 PUSH20 0xFFFFFFFFFFFFFFFFFFFFFFFFFFFFFFFFFFFFFFFF PUSH2 0x988 SWAP7 SWAP6 AND DUP4 MSTORE PUSH1 0x0 PUSH1 0x20 DUP5 ADD MSTORE PUSH1 0x40 DUP4 ADD MSTORE PUSH1 0x60 DUP3 ADD MSTORE DUP2 PUSH1 0x80 DUP3 ADD MSTORE ADD SWAP1 PUSH2 0x287 JUMP JUMPDEST SWAP2 SWAP3 PUSH2 0x988 SWAP6 SWAP5 SWAP2 PUSH1 0xA0 SWAP5 PUSH20 0xFFFFFFFFFFFFFFFFFFFFFFFFFFFFFFFFFFFFFFFF DUP1 SWAP3 AND DUP6 MSTORE AND PUSH1 0x20 DUP5 ADD MSTORE PUSH1 0x40 DUP4 ADD MSTORE PUSH1 0x60 DUP3 ADD MSTORE DUP2 PUSH1 0x80 DUP3 ADD MSTORE ADD SWAP1 PUSH2 0x287 JUMP JUMPDEST POP PUSH1 0x40 MLOAD RETURNDATASIZE PUSH1 0x0 DUP3 RETURNDATACOPY RETURNDATASIZE SWAP1 REVERT JUMPDEST ISZERO PUSH2 0xEEE JUMPI JUMP JUMPDEST PUSH1 0x64 PUSH1 0x40 MLOAD PUSH32 0x8C379A000000000000000000000000000000000000000000000000000000000 DUP2 MSTORE PUSH1 0x20 PUSH1 0x4 DUP3 ADD MSTORE PUSH1 0x10 PUSH1 0x24 DUP3 ADD MSTORE PUSH32 0x554E534146455F524543495049454E5400000000000000000000000000000000 PUSH1 0x44 DUP3 ADD MSTORE REVERT JUMPDEST ISZERO PUSH2 0xF53 JUMPI JUMP JUMPDEST PUSH1 0x64 PUSH1 0x40 MLOAD PUSH32 0x8C379A000000000000000000000000000000000000000000000000000000000 DUP2 MSTORE PUSH1 0x20 PUSH1 0x4 DUP3 ADD MSTORE PUSH1 0xF PUSH1 0x24 DUP3 ADD MSTORE PUSH32 0x4C454E4754485F4D49534D415443480000000000000000000000000000000000 PUSH1 0x44 DUP3 ADD MSTORE REVERT JUMPDEST DUP1 MLOAD DUP3 LT ISZERO PUSH2 0xFC5 JUMPI PUSH1 0x20 SWAP2 PUSH1 0x5 SHL ADD ADD SWAP1 JUMP JUMPDEST PUSH32 0x4E487B7100000000000000000000000000000000000000000000000000000000 PUSH1 0x0 MSTORE PUSH1 0x32 PUSH1 0x4 MSTORE PUSH1 0x24 PUSH1 0x0 REVERT JUMPDEST SWAP1 SWAP2 PUSH2 0x100B PUSH2 0x988 SWAP4 PUSH1 0x40 DUP5 MSTORE PUSH1 0x40 DUP5 ADD SWAP1 PUSH2 0x943 JUMP JUMPDEST SWAP2 PUSH1 0x20 DUP2 DUP5 SUB SWAP2 ADD MSTORE PUSH2 0x943 JUMP JUMPDEST SWAP4 SWAP1 PUSH2 0x988 SWAP6 SWAP4 PUSH2 0x1059 SWAP2 PUSH2 0x1067 SWAP5 PUSH20 0xFFFFFFFFFFFFFFFFFFFFFFFFFFFFFFFFFFFFFFFF DUP1 SWAP3 AND DUP9 MSTORE AND PUSH1 0x20 DUP8 ADD MSTORE PUSH1 0xA0 PUSH1 0x40 DUP8 ADD MSTORE PUSH1 0xA0 DUP7 ADD SWAP1 PUSH2 0x943 JUMP JUMPDEST SWAP1 DUP5 DUP3 SUB PUSH1 0x60 DUP7 ADD MSTORE PUSH2 0x943 JUMP JUMPDEST SWAP2 PUSH1 0x80 DUP2 DUP5 SUB SWAP2 ADD MSTORE PUSH2 0x287 JUMP JUMPDEST SWAP2 DUP3 MLOAD PUSH2 0x1084 DUP4 MLOAD DUP3 EQ PUSH2 0xF4C JUMP JUMPDEST DUP4 MLOAD PUSH2 0x108F DUP2 PUSH2 0x5C4 JUMP JUMPDEST SWAP1 PUSH32 0xFFFFFFFFFFFFFFFFFFFFFFFFFFFFFFFFFFFFFFFFFFFFFFFFFFFFFFFFFFFFFFE0 PUSH2 0x10CB PUSH1 0x40 SWAP3 PUSH2 0x10C3 DUP5 MLOAD SWAP6 DUP7 PUSH2 0x583 JUMP JUMPDEST DUP1 DUP6 MSTORE PUSH2 0x5C4 JUMP JUMPDEST ADD SWAP5 PUSH1 0x20 SWAP6 CALLDATASIZE DUP8 DUP6 ADD CALLDATACOPY DUP3 SWAP6 PUSH1 0x0 JUMPDEST DUP6 DUP2 LT PUSH2 0x10EC JUMPI POP POP POP POP POP POP SWAP1 SWAP2 POP JUMP JUMPDEST DUP1 PUSH20 0xFFFFFFFFFFFFFFFFFFFFFFFFFFFFFFFFFFFFFFFF PUSH2 0x110E PUSH1 0x1 SWAP4 DUP13 PUSH2 0xFB1 JUMP JUMPDEST MLOAD AND PUSH1 0x0 MSTORE PUSH1 0x0 DUP4 MSTORE DUP5 PUSH1 0x0 KECCAK256 PUSH2 0x1125 DUP3 DUP7 PUSH2 0xFB1 JUMP JUMPDEST MLOAD PUSH1 0x0 MSTORE DUP4 MSTORE DUP5 PUSH1 0x0 KECCAK256 SLOAD PUSH2 0x113A DUP3 DUP9 PUSH2 0xFB1 JUMP JUMPDEST MSTORE ADD PUSH2 0x10DA JUMP INVALID LOG2 PUSH5 0x6970667358 0x22 SLT KECCAK256 0xE4 0xF8 0xD3 SHR 0xBB SWAP6 0xE2 0x28 PUSH6 0xC6056ABA9A89 0xD7 SWAP6 0xCD GT 0xC8 TIMESTAMP SWAP4 BALANCE PUSH31 0x9DFD45BEC088354A64736F6C634300080D0033000000000000000000000000 "
        },
        "methodIdentifiers": {
          "balanceOf(address,uint256)": "00fdd58e",
          "balanceOfBatch(address[],uint256[])": "4e1273f4",
          "isApprovedForAll(address,address)": "e985e9c5",
          "mint(address,uint256,uint256)": "156e29f6",
          "safeBatchTransferFrom(address,address,uint256[],uint256[],bytes)": "2eb2c2d6",
          "safeTransferFrom(address,address,uint256,uint256,bytes)": "f242432a",
          "setApprovalForAll(address,bool)": "a22cb465",
          "supportsInterface(bytes4)": "01ffc9a7",
          "uri(uint256)": "0e89341c"
        }
      }
    }
  }
}