{
  "_format": "hh-sol-artifact-1",
  "contractName": "TestERC1155",
  "sourceName": "contracts/test/TestERC1155.sol",
  "abi": [
    {
      "anonymous": false,
      "inputs": [
        {
          "indexed": true,
          "internalType": "address",
          "name": "owner",
          "type": "address"
        },
        {
          "indexed": true,
          "internalType": "address",
          "name": "operator",
          "type": "address"
        },
        {
          "indexed": false,
          "internalType": "bool",
          "name": "approved",
          "type": "bool"
        }
      ],
      "name": "ApprovalForAll",
      "type": "event"
    },
    {
      "anonymous": false,
      "inputs": [
        {
          "indexed": true,
          "internalType": "address",
          "name": "operator",
          "type": "address"
        },
        {
          "indexed": true,
          "internalType": "address",
          "name": "from",
          "type": "address"
        },
        {
          "indexed": true,
          "internalType": "address",
          "name": "to",
          "type": "address"
        },
        {
          "indexed": false,
          "internalType": "uint256[]",
          "name": "ids",
          "type": "uint256[]"
        },
        {
          "indexed": false,
          "internalType": "uint256[]",
          "name": "amounts",
          "type": "uint256[]"
        }
      ],
      "name": "TransferBatch",
      "type": "event"
    },
    {
      "anonymous": false,
      "inputs": [
        {
          "indexed": true,
          "internalType": "address",
          "name": "operator",
          "type": "address"
        },
        {
          "indexed": true,
          "internalType": "address",
          "name": "from",
          "type": "address"
        },
        {
          "indexed": true,
          "internalType": "address",
          "name": "to",
          "type": "address"
        },
        {
          "indexed": false,
          "internalType": "uint256",
          "name": "id",
          "type": "uint256"
        },
        {
          "indexed": false,
          "internalType": "uint256",
          "name": "amount",
          "type": "uint256"
        }
      ],
      "name": "TransferSingle",
      "type": "event"
    },
    {
      "anonymous": false,
      "inputs": [
        {
          "indexed": false,
          "internalType": "string",
          "name": "value",
          "type": "string"
        },
        {
          "indexed": true,
          "internalType": "uint256",
          "name": "id",
          "type": "uint256"
        }
      ],
      "name": "URI",
      "type": "event"
    },
    {
      "inputs": [
        {
          "internalType": "address",
          "name": "",
          "type": "address"
        },
        {
          "internalType": "uint256",
          "name": "",
          "type": "uint256"
        }
      ],
      "name": "balanceOf",
      "outputs": [
        {
          "internalType": "uint256",
          "name": "",
          "type": "uint256"
        }
      ],
      "stateMutability": "view",
      "type": "function"
    },
    {
      "inputs": [
        {
          "internalType": "address[]",
          "name": "owners",
          "type": "address[]"
        },
        {
          "internalType": "uint256[]",
          "name": "ids",
          "type": "uint256[]"
        }
      ],
      "name": "balanceOfBatch",
      "outputs": [
        {
          "internalType": "uint256[]",
          "name": "balances",
          "type": "uint256[]"
        }
      ],
      "stateMutability": "view",
      "type": "function"
    },
    {
      "inputs": [
        {
          "internalType": "address",
          "name": "",
          "type": "address"
        },
        {
          "internalType": "address",
          "name": "",
          "type": "address"
        }
      ],
      "name": "isApprovedForAll",
      "outputs": [
        {
          "internalType": "bool",
          "name": "",
          "type": "bool"
        }
      ],
      "stateMutability": "view",
      "type": "function"
    },
    {
      "inputs": [
        {
          "internalType": "address",
          "name": "to",
          "type": "address"
        },
        {
          "internalType": "uint256",
          "name": "tokenId",
          "type": "uint256"
        },
        {
          "internalType": "uint256",
          "name": "amount",
          "type": "uint256"
        }
      ],
      "name": "mint",
      "outputs": [
        {
          "internalType": "bool",
          "name": "",
          "type": "bool"
        }
      ],
      "stateMutability": "nonpayable",
      "type": "function"
    },
    {
      "inputs": [
        {
          "internalType": "address",
          "name": "from",
          "type": "address"
        },
        {
          "internalType": "address",
          "name": "to",
          "type": "address"
        },
        {
          "internalType": "uint256[]",
          "name": "ids",
          "type": "uint256[]"
        },
        {
          "internalType": "uint256[]",
          "name": "amounts",
          "type": "uint256[]"
        },
        {
          "internalType": "bytes",
          "name": "data",
          "type": "bytes"
        }
      ],
      "name": "safeBatchTransferFrom",
      "outputs": [],
      "stateMutability": "nonpayable",
      "type": "function"
    },
    {
      "inputs": [
        {
          "internalType": "address",
          "name": "from",
          "type": "address"
        },
        {
          "internalType": "address",
          "name": "to",
          "type": "address"
        },
        {
          "internalType": "uint256",
          "name": "id",
          "type": "uint256"
        },
        {
          "internalType": "uint256",
          "name": "amount",
          "type": "uint256"
        },
        {
          "internalType": "bytes",
          "name": "data",
          "type": "bytes"
        }
      ],
      "name": "safeTransferFrom",
      "outputs": [],
      "stateMutability": "nonpayable",
      "type": "function"
    },
    {
      "inputs": [
        {
          "internalType": "address",
          "name": "operator",
          "type": "address"
        },
        {
          "internalType": "bool",
          "name": "approved",
          "type": "bool"
        }
      ],
      "name": "setApprovalForAll",
      "outputs": [],
      "stateMutability": "nonpayable",
      "type": "function"
    },
    {
      "inputs": [
        {
          "internalType": "bytes4",
          "name": "interfaceId",
          "type": "bytes4"
        }
      ],
      "name": "supportsInterface",
      "outputs": [
        {
          "internalType": "bool",
          "name": "",
          "type": "bool"
        }
      ],
      "stateMutability": "pure",
      "type": "function"
    },
    {
      "inputs": [
        {
          "internalType": "uint256",
          "name": "",
          "type": "uint256"
        }
      ],
      "name": "uri",
      "outputs": [
        {
          "internalType": "string",
          "name": "",
          "type": "string"
        }
      ],
      "stateMutability": "pure",
      "type": "function"
    }
  ],
  "bytecode": "0x6080806040523461001657611177908161001c8239f35b600080fdfe608080604052600436101561001357600080fd5b6000803560e01c918262fdd58e146100d1575050806301ffc9a7146100c85780630e89341c146100bf578063156e29f6146100b65780632eb2c2d6146100ad5780634e1273f4146100a4578063a22cb4651461009b578063e985e9c5146100925763f242432a14610085575b38600080fd5b61008d610b93565b61007f565b5061008d610b16565b5061008d610a46565b5061008d61098b565b5061008d6106cc565b5061008d610378565b5061008d6102f6565b5061008d6101b4565b3461011a57604060031936011261011a57604060209273ffffffffffffffffffffffffffffffffffffffff61010461011e565b1681528084528181206024358252845220548152f35b5080fd5b6004359073ffffffffffffffffffffffffffffffffffffffff8216820361014157565b600080fd5b6024359073ffffffffffffffffffffffffffffffffffffffff8216820361014157565b359073ffffffffffffffffffffffffffffffffffffffff8216820361014157565b7fffffffff0000000000000000000000000000000000000000000000000000000081160361014157565b50346101415760206003193601126101415760207fffffffff000000000000000000000000000000000000000000000000000000006004356101f58161018a565b167f01ffc9a700000000000000000000000000000000000000000000000000000000811490811561025d575b8115610233575b506040519015158152f35b7f0e89341c0000000000000000000000000000000000000000000000000000000091501438610228565b7fd9b67a260000000000000000000000000000000000000000000000000000000081149150610221565b91908251928382526000905b8482106102de5750601f84602094957fffffffffffffffffffffffffffffffffffffffffffffffffffffffffffffffe093116102d1575b0116010190565b60008582860101526102ca565b90602090818082850101519082860101520190610293565b5034610141576020600319360112610141576103676040516040810181811067ffffffffffffffff82111761036b575b604052600381527f75726900000000000000000000000000000000000000000000000000000000006020820152604051918291602083526020830190610287565b0390f35b61037361052a565b610326565b50346101415760606003193601126101415761046661039561011e565b6024356044356040516103a78161055a565b600081526103e8836103d98673ffffffffffffffffffffffffffffffffffffffff166000526000602052604060002090565b90600052602052604060002090565b6103f3838254610e2b565b905573ffffffffffffffffffffffffffffffffffffffff8416938460006040517fc3d58168c5ae7397731d063d5bbf3d657854427343f4c083240f7aacaa2d0f6233918061044f898b8360209093929193604081019481520152565b0390a4600092903b61047257505050501515610ee7565b60405160018152602090f35b6104d5917fffffffff000000000000000000000000000000000000000000000000000000009495602092856040518096819582947ff23a6e61000000000000000000000000000000000000000000000000000000009c8d85523360048601610e58565b03925af191821561051d575b916104ef575b501614610ee7565b610510915060203d8111610516575b6105088183610583565b810190610e43565b386104e7565b503d6104fe565b610525610eda565b6104e1565b507f4e487b7100000000000000000000000000000000000000000000000000000000600052604160045260246000fd5b6020810190811067ffffffffffffffff82111761057657604052565b61057e61052a565b604052565b90601f7fffffffffffffffffffffffffffffffffffffffffffffffffffffffffffffffe0910116810190811067ffffffffffffffff82111761057657604052565b60209067ffffffffffffffff81116105de575b60051b0190565b6105e661052a565b6105d7565b81601f8201121561014157803591610602836105c4565b926106106040519485610583565b808452602092838086019260051b820101928311610141578301905b82821061063a575050505090565b8135815290830190830161062c565b81601f820112156101415780359067ffffffffffffffff82116106bf575b6040519261069d60207fffffffffffffffffffffffffffffffffffffffffffffffffffffffffffffffe0601f8601160185610583565b8284526020838301011161014157816000926020809301838601378301015290565b6106c761052a565b610667565b50346101415760a0600319360112610141576106e661011e565b6106ee610146565b9067ffffffffffffffff90604435828111610141576107119036906004016105eb565b606435838111610141576107299036906004016105eb565b9260843590811161014157610742903690600401610649565b81519361075181518614610f4c565b73ffffffffffffffffffffffffffffffffffffffff8085169586331480156108db575b61077d90610d7f565b60005b818110610843575050956107dc96811680966040517f4a39dc06d4c0dbc64b70af90fd698a233a518aa5d07e595d983b8c0526c8f7fb3391806107c4888b83610ff4565b0390a4600093903b6107de5750505050501515610ee7565b005b917fffffffff000000000000000000000000000000000000000000000000000000009495602092856104d595604051968795869485937fbc197c81000000000000000000000000000000000000000000000000000000009d8e86523360048701611019565b80876108d36108cb836103d98e6108988b6103d98f61086760019c61087092610fb1565b51968793610fb1565b519873ffffffffffffffffffffffffffffffffffffffff166000526000602052604060002090565b6108a3878254610e14565b905573ffffffffffffffffffffffffffffffffffffffff166000526000602052604060002090565b918254610e2b565b905501610780565b5061077d61093c610935336109108a73ffffffffffffffffffffffffffffffffffffffff166000526001602052604060002090565b9073ffffffffffffffffffffffffffffffffffffffff16600052602052604060002090565b5460ff1690565b9050610774565b90815180825260208080930193019160005b828110610963575050505090565b835185529381019392810192600101610955565b906020610988928181520190610943565b90565b50346101415760406003193601126101415760043567ffffffffffffffff80821161014157366023830112156101415781600401356109c9816105c4565b926109d76040519485610583565b81845260209160248386019160051b8301019136831161014157602401905b828210610a2f57856024358681116101415761036791610a1d610a239236906004016105eb565b90611075565b60405191829182610977565b838091610a3b84610169565b8152019101906109f6565b503461014157604060031936011261014157610a6061011e565b602435908115158092036101415773ffffffffffffffffffffffffffffffffffffffff90336000526001602052610abb8160406000209073ffffffffffffffffffffffffffffffffffffffff16600052602052604060002090565b7fffffffffffffffffffffffffffffffffffffffffffffffffffffffffffffff0081541660ff851617905560405192835216907f17307eab39ab6107e8899845ad3d59bd9653f200f220920489ca2b5937696c3160203392a3005b503461014157604060031936011261014157602060ff610b87610b3761011e565b73ffffffffffffffffffffffffffffffffffffffff610b54610146565b91166000526001845260406000209073ffffffffffffffffffffffffffffffffffffffff16600052602052604060002090565b54166040519015158152f35b50346101415760a060031936011261014157610bad61011e565b610bb5610146565b6084359160443560643567ffffffffffffffff851161014157610bdf6107dc953690600401610649565b9073ffffffffffffffffffffffffffffffffffffffff94858516958633148015610d43575b610c0d90610d7f565b610c3b856103d98873ffffffffffffffffffffffffffffffffffffffff166000526000602052604060002090565b610c46848254610e14565b9055610c76856103d98473ffffffffffffffffffffffffffffffffffffffff166000526000602052604060002090565b610c81848254610e2b565b9055811680966040517fc3d58168c5ae7397731d063d5bbf3d657854427343f4c083240f7aacaa2d0f62339180610cc6888b8360209093929193604081019481520152565b0390a4600093903b610cde5750505050501515610ee7565b917fffffffff000000000000000000000000000000000000000000000000000000009495602092856104d595604051968795869485937ff23a6e61000000000000000000000000000000000000000000000000000000009d8e86523360048701610e98565b50610c0d610d78610935336109108a73ffffffffffffffffffffffffffffffffffffffff166000526001602052604060002090565b9050610c04565b15610d8657565b60646040517f08c379a000000000000000000000000000000000000000000000000000000000815260206004820152600e60248201527f4e4f545f415554484f52495a45440000000000000000000000000000000000006044820152fd5b507f4e487b7100000000000000000000000000000000000000000000000000000000600052601160045260246000fd5b818110610e1f570390565b610e27610de4565b0390565b81198111610e37570190565b610e3f610de4565b0190565b9081602091031261014157516109888161018a565b909260a09273ffffffffffffffffffffffffffffffffffffffff610988969516835260006020840152604083015260608201528160808201520190610287565b919261098895949160a09473ffffffffffffffffffffffffffffffffffffffff8092168552166020840152604083015260608201528160808201520190610287565b506040513d6000823e3d90fd5b15610eee57565b60646040517f08c379a000000000000000000000000000000000000000000000000000000000815260206004820152601060248201527f554e534146455f524543495049454e54000000000000000000000000000000006044820152fd5b15610f5357565b60646040517f08c379a000000000000000000000000000000000000000000000000000000000815260206004820152600f60248201527f4c454e4754485f4d49534d4154434800000000000000000000000000000000006044820152fd5b8051821015610fc55760209160051b010190565b7f4e487b7100000000000000000000000000000000000000000000000000000000600052603260045260246000fd5b909161100b61098893604084526040840190610943565b916020818403910152610943565b93906109889593611059916110679473ffffffffffffffffffffffffffffffffffffffff809216885216602087015260a0604087015260a0860190610943565b908482036060860152610943565b916080818403910152610287565b91825161108483518214610f4c565b835161108f816105c4565b907fffffffffffffffffffffffffffffffffffffffffffffffffffffffffffffffe06110cb6040926110c384519586610583565b8085526105c4565b01946020953687850137829560005b8581106110ec57505050505050909150565b8073ffffffffffffffffffffffffffffffffffffffff61110e6001938c610fb1565b511660005260008352846000206111258286610fb1565b516000528352846000205461113a8288610fb1565b52016110da56fea2646970667358221220e4f8d31cbb95e22865c6056aba9a89d795cd11c84293317e9dfd45bec088354a64736f6c634300080d0033",
  "linkReferences": {},
  "deployedLinkReferences": {}
}