{
  "_format": "hh-sol-artifact-1",
  "contractName": "Seaport",
  "sourceName": "contracts/Seaport.sol",
  "abi": [
    {
      "inputs": [
        {
          "internalType": "address",
          "name": "conduitController",
          "type": "address"
        }
      ],
      "stateMutability": "nonpayable",
      "type": "constructor"
    },
    {
      "inputs": [],
      "name": "BadContractSignature",
      "type": "error"
    },
    {
      "inputs": [],
      "name": "BadFraction",
      "type": "error"
    },
    {
      "inputs": [
        {
          "internalType": "address",
          "name": "token",
          "type": "address"
        },
        {
          "internalType": "address",
          "name": "from",
          "type": "address"
        },
        {
          "internalType": "address",
          "name": "to",
          "type": "address"
        },
        {
          "internalType": "uint256",
          "name": "amount",
          "type": "uint256"
        }
      ],
      "name": "BadReturnValueFromERC20OnTransfer",
      "type": "error"
    },
    {
      "inputs": [
        {
          "internalType": "uint8",
          "name": "v",
          "type": "uint8"
        }
      ],
      "name": "BadSignatureV",
      "type": "error"
    },
    {
      "inputs": [],
      "name": "ConsiderationCriteriaResolverOutOfRange",
      "type": "error"
    },
    {
      "inputs": [
        {
          "internalType": "uint256",
          "name": "orderIndex",
          "type": "uint256"
        },
        {
          "internalType": "uint256",
          "name": "considerationIndex",
          "type": "uint256"
        },
        {
          "internalType": "uint256",
          "name": "shortfallAmount",
          "type": "uint256"
        }
      ],
      "name": "ConsiderationNotMet",
      "type": "error"
    },
    {
      "inputs": [],
      "name": "CriteriaNotEnabledForItem",
      "type": "error"
    },
    {
      "inputs": [
        {
          "internalType": "address",
          "name": "token",
          "type": "address"
        },
        {
          "internalType": "address",
          "name": "from",
          "type": "address"
        },
        {
          "internalType": "address",
          "name": "to",
          "type": "address"
        },
        {
          "internalType": "uint256[]",
          "name": "identifiers",
          "type": "uint256[]"
        },
        {
          "internalType": "uint256[]",
          "name": "amounts",
          "type": "uint256[]"
        }
      ],
      "name": "ERC1155BatchTransferGenericFailure",
      "type": "error"
    },
    {
      "inputs": [
        {
          "internalType": "address",
          "name": "account",
          "type": "address"
        },
        {
          "internalType": "uint256",
          "name": "amount",
          "type": "uint256"
        }
      ],
      "name": "EtherTransferGenericFailure",
      "type": "error"
    },
    {
      "inputs": [],
      "name": "InexactFraction",
      "type": "error"
    },
    {
      "inputs": [],
      "name": "InsufficientEtherSupplied",
      "type": "error"
    },
    {
      "inputs": [],
      "name": "InvalidBasicOrderParameterEncoding",
      "type": "error"
    },
    {
      "inputs": [
        {
          "internalType": "address",
          "name": "conduit",
          "type": "address"
        }
      ],
      "name": "InvalidCallToConduit",
      "type": "error"
    },
    {
      "inputs": [],
      "name": "InvalidCanceller",
      "type": "error"
    },
    {
      "inputs": [
        {
          "internalType": "bytes32",
          "name": "conduitKey",
          "type": "bytes32"
        },
        {
          "internalType": "address",
          "name": "conduit",
          "type": "address"
        }
      ],
      "name": "InvalidConduit",
      "type": "error"
    },
    {
      "inputs": [],
      "name": "InvalidERC721TransferAmount",
      "type": "error"
    },
    {
      "inputs": [],
      "name": "InvalidFulfillmentComponentData",
      "type": "error"
    },
    {
      "inputs": [
        {
          "internalType": "uint256",
          "name": "value",
          "type": "uint256"
        }
      ],
      "name": "InvalidMsgValue",
      "type": "error"
    },
    {
      "inputs": [],
      "name": "InvalidProof",
      "type": "error"
    },
    {
      "inputs": [
        {
          "internalType": "bytes32",
          "name": "orderHash",
          "type": "bytes32"
        }
      ],
      "name": "InvalidRestrictedOrder",
      "type": "error"
    },
    {
      "inputs": [],
      "name": "InvalidSignature",
      "type": "error"
    },
    {
      "inputs": [],
      "name": "InvalidSigner",
      "type": "error"
    },
    {
      "inputs": [],
      "name": "InvalidTime",
      "type": "error"
    },
    {
      "inputs": [],
      "name": "MismatchedFulfillmentOfferAndConsiderationComponents",
      "type": "error"
    },
    {
      "inputs": [
        {
          "internalType": "enum Side",
          "name": "side",
          "type": "uint8"
        }
      ],
      "name": "MissingFulfillmentComponentOnAggregation",
      "type": "error"
    },
    {
      "inputs": [],
      "name": "MissingItemAmount",
      "type": "error"
    },
    {
      "inputs": [],
      "name": "MissingOriginalConsiderationItems",
      "type": "error"
    },
    {
      "inputs": [
        {
          "internalType": "address",
          "name": "account",
          "type": "address"
        }
      ],
      "name": "NoContract",
      "type": "error"
    },
    {
      "inputs": [],
      "name": "NoReentrantCalls",
      "type": "error"
    },
    {
      "inputs": [],
      "name": "NoSpecifiedOrdersAvailable",
      "type": "error"
    },
    {
      "inputs": [],
      "name": "OfferAndConsiderationRequiredOnFulfillment",
      "type": "error"
    },
    {
      "inputs": [],
      "name": "OfferCriteriaResolverOutOfRange",
      "type": "error"
    },
    {
      "inputs": [
        {
          "internalType": "bytes32",
          "name": "orderHash",
          "type": "bytes32"
        }
      ],
      "name": "OrderAlreadyFilled",
      "type": "error"
    },
    {
      "inputs": [],
      "name": "OrderCriteriaResolverOutOfRange",
      "type": "error"
    },
    {
      "inputs": [
        {
          "internalType": "bytes32",
          "name": "orderHash",
          "type": "bytes32"
        }
      ],
      "name": "OrderIsCancelled",
      "type": "error"
    },
    {
      "inputs": [
        {
          "internalType": "bytes32",
          "name": "orderHash",
          "type": "bytes32"
        }
      ],
      "name": "OrderPartiallyFilled",
      "type": "error"
    },
    {
      "inputs": [],
      "name": "PartialFillsNotEnabledForOrder",
      "type": "error"
    },
    {
      "inputs": [
        {
          "internalType": "address",
          "name": "token",
          "type": "address"
        },
        {
          "internalType": "address",
          "name": "from",
          "type": "address"
        },
        {
          "internalType": "address",
          "name": "to",
          "type": "address"
        },
        {
          "internalType": "uint256",
          "name": "identifier",
          "type": "uint256"
        },
        {
          "internalType": "uint256",
          "name": "amount",
          "type": "uint256"
        }
      ],
      "name": "TokenTransferGenericFailure",
      "type": "error"
    },
    {
      "inputs": [],
      "name": "UnresolvedConsiderationCriteria",
      "type": "error"
    },
    {
      "inputs": [],
      "name": "UnresolvedOfferCriteria",
      "type": "error"
    },
    {
      "anonymous": false,
      "inputs": [
        {
          "indexed": false,
          "internalType": "uint256",
          "name": "newNonce",
          "type": "uint256"
        },
        {
          "indexed": true,
          "internalType": "address",
          "name": "offerer",
          "type": "address"
        }
      ],
      "name": "NonceIncremented",
      "type": "event"
    },
    {
      "anonymous": false,
      "inputs": [
        {
          "indexed": false,
          "internalType": "bytes32",
          "name": "orderHash",
          "type": "bytes32"
        },
        {
          "indexed": true,
          "internalType": "address",
          "name": "offerer",
          "type": "address"
        },
        {
          "indexed": true,
          "internalType": "address",
          "name": "zone",
          "type": "address"
        }
      ],
      "name": "OrderCancelled",
      "type": "event"
    },
    {
      "anonymous": false,
      "inputs": [
        {
          "indexed": false,
          "internalType": "bytes32",
          "name": "orderHash",
          "type": "bytes32"
        },
        {
          "indexed": true,
          "internalType": "address",
          "name": "offerer",
          "type": "address"
        },
        {
          "indexed": true,
          "internalType": "address",
          "name": "zone",
          "type": "address"
        },
        {
          "indexed": false,
          "internalType": "address",
          "name": "fulfiller",
          "type": "address"
        },
        {
          "components": [
            {
              "internalType": "enum ItemType",
              "name": "itemType",
              "type": "uint8"
            },
            {
              "internalType": "address",
              "name": "token",
              "type": "address"
            },
            {
              "internalType": "uint256",
              "name": "identifier",
              "type": "uint256"
            },
            {
              "internalType": "uint256",
              "name": "amount",
              "type": "uint256"
            }
          ],
          "indexed": false,
          "internalType": "struct SpentItem[]",
          "name": "offer",
          "type": "tuple[]"
        },
        {
          "components": [
            {
              "internalType": "enum ItemType",
              "name": "itemType",
              "type": "uint8"
            },
            {
              "internalType": "address",
              "name": "token",
              "type": "address"
            },
            {
              "internalType": "uint256",
              "name": "identifier",
              "type": "uint256"
            },
            {
              "internalType": "uint256",
              "name": "amount",
              "type": "uint256"
            },
            {
              "internalType": "address payable",
              "name": "recipient",
              "type": "address"
            }
          ],
          "indexed": false,
          "internalType": "struct ReceivedItem[]",
          "name": "consideration",
          "type": "tuple[]"
        }
      ],
      "name": "OrderFulfilled",
      "type": "event"
    },
    {
      "anonymous": false,
      "inputs": [
        {
          "indexed": false,
          "internalType": "bytes32",
          "name": "orderHash",
          "type": "bytes32"
        },
        {
          "indexed": true,
          "internalType": "address",
          "name": "offerer",
          "type": "address"
        },
        {
          "indexed": true,
          "internalType": "address",
          "name": "zone",
          "type": "address"
        }
      ],
      "name": "OrderValidated",
      "type": "event"
    },
    {
      "inputs": [
        {
          "components": [
            {
              "internalType": "address",
              "name": "offerer",
              "type": "address"
            },
            {
              "internalType": "address",
              "name": "zone",
              "type": "address"
            },
            {
              "components": [
                {
                  "internalType": "enum ItemType",
                  "name": "itemType",
                  "type": "uint8"
                },
                {
                  "internalType": "address",
                  "name": "token",
                  "type": "address"
                },
                {
                  "internalType": "uint256",
                  "name": "identifierOrCriteria",
                  "type": "uint256"
                },
                {
                  "internalType": "uint256",
                  "name": "startAmount",
                  "type": "uint256"
                },
                {
                  "internalType": "uint256",
                  "name": "endAmount",
                  "type": "uint256"
                }
              ],
              "internalType": "struct OfferItem[]",
              "name": "offer",
              "type": "tuple[]"
            },
            {
              "components": [
                {
                  "internalType": "enum ItemType",
                  "name": "itemType",
                  "type": "uint8"
                },
                {
                  "internalType": "address",
                  "name": "token",
                  "type": "address"
                },
                {
                  "internalType": "uint256",
                  "name": "identifierOrCriteria",
                  "type": "uint256"
                },
                {
                  "internalType": "uint256",
                  "name": "startAmount",
                  "type": "uint256"
                },
                {
                  "internalType": "uint256",
                  "name": "endAmount",
                  "type": "uint256"
                },
                {
                  "internalType": "address payable",
                  "name": "recipient",
                  "type": "address"
                }
              ],
              "internalType": "struct ConsiderationItem[]",
              "name": "consideration",
              "type": "tuple[]"
            },
            {
              "internalType": "enum OrderType",
              "name": "orderType",
              "type": "uint8"
            },
            {
              "internalType": "uint256",
              "name": "startTime",
              "type": "uint256"
            },
            {
              "internalType": "uint256",
              "name": "endTime",
              "type": "uint256"
            },
            {
              "internalType": "bytes32",
              "name": "zoneHash",
              "type": "bytes32"
            },
            {
              "internalType": "uint256",
              "name": "salt",
              "type": "uint256"
            },
            {
              "internalType": "bytes32",
              "name": "conduitKey",
              "type": "bytes32"
            },
            {
              "internalType": "uint256",
              "name": "nonce",
              "type": "uint256"
            }
          ],
          "internalType": "struct OrderComponents[]",
          "name": "orders",
          "type": "tuple[]"
        }
      ],
      "name": "cancel",
      "outputs": [
        {
          "internalType": "bool",
          "name": "cancelled",
          "type": "bool"
        }
      ],
      "stateMutability": "nonpayable",
      "type": "function"
    },
    {
      "inputs": [
        {
          "components": [
            {
              "components": [
                {
                  "internalType": "address",
                  "name": "offerer",
                  "type": "address"
                },
                {
                  "internalType": "address",
                  "name": "zone",
                  "type": "address"
                },
                {
                  "components": [
                    {
                      "internalType": "enum ItemType",
                      "name": "itemType",
                      "type": "uint8"
                    },
                    {
                      "internalType": "address",
                      "name": "token",
                      "type": "address"
                    },
                    {
                      "internalType": "uint256",
                      "name": "identifierOrCriteria",
                      "type": "uint256"
                    },
                    {
                      "internalType": "uint256",
                      "name": "startAmount",
                      "type": "uint256"
                    },
                    {
                      "internalType": "uint256",
                      "name": "endAmount",
                      "type": "uint256"
                    }
                  ],
                  "internalType": "struct OfferItem[]",
                  "name": "offer",
                  "type": "tuple[]"
                },
                {
                  "components": [
                    {
                      "internalType": "enum ItemType",
                      "name": "itemType",
                      "type": "uint8"
                    },
                    {
                      "internalType": "address",
                      "name": "token",
                      "type": "address"
                    },
                    {
                      "internalType": "uint256",
                      "name": "identifierOrCriteria",
                      "type": "uint256"
                    },
                    {
                      "internalType": "uint256",
                      "name": "startAmount",
                      "type": "uint256"
                    },
                    {
                      "internalType": "uint256",
                      "name": "endAmount",
                      "type": "uint256"
                    },
                    {
                      "internalType": "address payable",
                      "name": "recipient",
                      "type": "address"
                    }
                  ],
                  "internalType": "struct ConsiderationItem[]",
                  "name": "consideration",
                  "type": "tuple[]"
                },
                {
                  "internalType": "enum OrderType",
                  "name": "orderType",
                  "type": "uint8"
                },
                {
                  "internalType": "uint256",
                  "name": "startTime",
                  "type": "uint256"
                },
                {
                  "internalType": "uint256",
                  "name": "endTime",
                  "type": "uint256"
                },
                {
                  "internalType": "bytes32",
                  "name": "zoneHash",
                  "type": "bytes32"
                },
                {
                  "internalType": "uint256",
                  "name": "salt",
                  "type": "uint256"
                },
                {
                  "internalType": "bytes32",
                  "name": "conduitKey",
                  "type": "bytes32"
                },
                {
                  "internalType": "uint256",
                  "name": "totalOriginalConsiderationItems",
                  "type": "uint256"
                }
              ],
              "internalType": "struct OrderParameters",
              "name": "parameters",
              "type": "tuple"
            },
            {
              "internalType": "uint120",
              "name": "numerator",
              "type": "uint120"
            },
            {
              "internalType": "uint120",
              "name": "denominator",
              "type": "uint120"
            },
            {
              "internalType": "bytes",
              "name": "signature",
              "type": "bytes"
            },
            {
              "internalType": "bytes",
              "name": "extraData",
              "type": "bytes"
            }
          ],
          "internalType": "struct AdvancedOrder",
          "name": "advancedOrder",
          "type": "tuple"
        },
        {
          "components": [
            {
              "internalType": "uint256",
              "name": "orderIndex",
              "type": "uint256"
            },
            {
              "internalType": "enum Side",
              "name": "side",
              "type": "uint8"
            },
            {
              "internalType": "uint256",
              "name": "index",
              "type": "uint256"
            },
            {
              "internalType": "uint256",
              "name": "identifier",
              "type": "uint256"
            },
            {
              "internalType": "bytes32[]",
              "name": "criteriaProof",
              "type": "bytes32[]"
            }
          ],
          "internalType": "struct CriteriaResolver[]",
          "name": "criteriaResolvers",
          "type": "tuple[]"
        },
        {
          "internalType": "bytes32",
          "name": "fulfillerConduitKey",
          "type": "bytes32"
        }
      ],
      "name": "fulfillAdvancedOrder",
      "outputs": [
        {
          "internalType": "bool",
          "name": "fulfilled",
          "type": "bool"
        }
      ],
      "stateMutability": "payable",
      "type": "function"
    },
    {
      "inputs": [
        {
          "components": [
            {
              "components": [
                {
                  "internalType": "address",
                  "name": "offerer",
                  "type": "address"
                },
                {
                  "internalType": "address",
                  "name": "zone",
                  "type": "address"
                },
                {
                  "components": [
                    {
                      "internalType": "enum ItemType",
                      "name": "itemType",
                      "type": "uint8"
                    },
                    {
                      "internalType": "address",
                      "name": "token",
                      "type": "address"
                    },
                    {
                      "internalType": "uint256",
                      "name": "identifierOrCriteria",
                      "type": "uint256"
                    },
                    {
                      "internalType": "uint256",
                      "name": "startAmount",
                      "type": "uint256"
                    },
                    {
                      "internalType": "uint256",
                      "name": "endAmount",
                      "type": "uint256"
                    }
                  ],
                  "internalType": "struct OfferItem[]",
                  "name": "offer",
                  "type": "tuple[]"
                },
                {
                  "components": [
                    {
                      "internalType": "enum ItemType",
                      "name": "itemType",
                      "type": "uint8"
                    },
                    {
                      "internalType": "address",
                      "name": "token",
                      "type": "address"
                    },
                    {
                      "internalType": "uint256",
                      "name": "identifierOrCriteria",
                      "type": "uint256"
                    },
                    {
                      "internalType": "uint256",
                      "name": "startAmount",
                      "type": "uint256"
                    },
                    {
                      "internalType": "uint256",
                      "name": "endAmount",
                      "type": "uint256"
                    },
                    {
                      "internalType": "address payable",
                      "name": "recipient",
                      "type": "address"
                    }
                  ],
                  "internalType": "struct ConsiderationItem[]",
                  "name": "consideration",
                  "type": "tuple[]"
                },
                {
                  "internalType": "enum OrderType",
                  "name": "orderType",
                  "type": "uint8"
                },
                {
                  "internalType": "uint256",
                  "name": "startTime",
                  "type": "uint256"
                },
                {
                  "internalType": "uint256",
                  "name": "endTime",
                  "type": "uint256"
                },
                {
                  "internalType": "bytes32",
                  "name": "zoneHash",
                  "type": "bytes32"
                },
                {
                  "internalType": "uint256",
                  "name": "salt",
                  "type": "uint256"
                },
                {
                  "internalType": "bytes32",
                  "name": "conduitKey",
                  "type": "bytes32"
                },
                {
                  "internalType": "uint256",
                  "name": "totalOriginalConsiderationItems",
                  "type": "uint256"
                }
              ],
              "internalType": "struct OrderParameters",
              "name": "parameters",
              "type": "tuple"
            },
            {
              "internalType": "uint120",
              "name": "numerator",
              "type": "uint120"
            },
            {
              "internalType": "uint120",
              "name": "denominator",
              "type": "uint120"
            },
            {
              "internalType": "bytes",
              "name": "signature",
              "type": "bytes"
            },
            {
              "internalType": "bytes",
              "name": "extraData",
              "type": "bytes"
            }
          ],
          "internalType": "struct AdvancedOrder[]",
          "name": "advancedOrders",
          "type": "tuple[]"
        },
        {
          "components": [
            {
              "internalType": "uint256",
              "name": "orderIndex",
              "type": "uint256"
            },
            {
              "internalType": "enum Side",
              "name": "side",
              "type": "uint8"
            },
            {
              "internalType": "uint256",
              "name": "index",
              "type": "uint256"
            },
            {
              "internalType": "uint256",
              "name": "identifier",
              "type": "uint256"
            },
            {
              "internalType": "bytes32[]",
              "name": "criteriaProof",
              "type": "bytes32[]"
            }
          ],
          "internalType": "struct CriteriaResolver[]",
          "name": "criteriaResolvers",
          "type": "tuple[]"
        },
        {
          "components": [
            {
              "internalType": "uint256",
              "name": "orderIndex",
              "type": "uint256"
            },
            {
              "internalType": "uint256",
              "name": "itemIndex",
              "type": "uint256"
            }
          ],
          "internalType": "struct FulfillmentComponent[][]",
          "name": "offerFulfillments",
          "type": "tuple[][]"
        },
        {
          "components": [
            {
              "internalType": "uint256",
              "name": "orderIndex",
              "type": "uint256"
            },
            {
              "internalType": "uint256",
              "name": "itemIndex",
              "type": "uint256"
            }
          ],
          "internalType": "struct FulfillmentComponent[][]",
          "name": "considerationFulfillments",
          "type": "tuple[][]"
        },
        {
          "internalType": "bytes32",
          "name": "fulfillerConduitKey",
          "type": "bytes32"
        },
        {
          "internalType": "uint256",
          "name": "maximumFulfilled",
          "type": "uint256"
        }
      ],
      "name": "fulfillAvailableAdvancedOrders",
      "outputs": [
        {
          "internalType": "bool[]",
          "name": "availableOrders",
          "type": "bool[]"
        },
        {
          "components": [
            {
              "components": [
                {
                  "internalType": "enum ItemType",
                  "name": "itemType",
                  "type": "uint8"
                },
                {
                  "internalType": "address",
                  "name": "token",
                  "type": "address"
                },
                {
                  "internalType": "uint256",
                  "name": "identifier",
                  "type": "uint256"
                },
                {
                  "internalType": "uint256",
                  "name": "amount",
                  "type": "uint256"
                },
                {
                  "internalType": "address payable",
                  "name": "recipient",
                  "type": "address"
                }
              ],
              "internalType": "struct ReceivedItem",
              "name": "item",
              "type": "tuple"
            },
            {
              "internalType": "address",
              "name": "offerer",
              "type": "address"
            },
            {
              "internalType": "bytes32",
              "name": "conduitKey",
              "type": "bytes32"
            }
          ],
          "internalType": "struct Execution[]",
          "name": "executions",
          "type": "tuple[]"
        }
      ],
      "stateMutability": "payable",
      "type": "function"
    },
    {
      "inputs": [
        {
          "components": [
            {
              "components": [
                {
                  "internalType": "address",
                  "name": "offerer",
                  "type": "address"
                },
                {
                  "internalType": "address",
                  "name": "zone",
                  "type": "address"
                },
                {
                  "components": [
                    {
                      "internalType": "enum ItemType",
                      "name": "itemType",
                      "type": "uint8"
                    },
                    {
                      "internalType": "address",
                      "name": "token",
                      "type": "address"
                    },
                    {
                      "internalType": "uint256",
                      "name": "identifierOrCriteria",
                      "type": "uint256"
                    },
                    {
                      "internalType": "uint256",
                      "name": "startAmount",
                      "type": "uint256"
                    },
                    {
                      "internalType": "uint256",
                      "name": "endAmount",
                      "type": "uint256"
                    }
                  ],
                  "internalType": "struct OfferItem[]",
                  "name": "offer",
                  "type": "tuple[]"
                },
                {
                  "components": [
                    {
                      "internalType": "enum ItemType",
                      "name": "itemType",
                      "type": "uint8"
                    },
                    {
                      "internalType": "address",
                      "name": "token",
                      "type": "address"
                    },
                    {
                      "internalType": "uint256",
                      "name": "identifierOrCriteria",
                      "type": "uint256"
                    },
                    {
                      "internalType": "uint256",
                      "name": "startAmount",
                      "type": "uint256"
                    },
                    {
                      "internalType": "uint256",
                      "name": "endAmount",
                      "type": "uint256"
                    },
                    {
                      "internalType": "address payable",
                      "name": "recipient",
                      "type": "address"
                    }
                  ],
                  "internalType": "struct ConsiderationItem[]",
                  "name": "consideration",
                  "type": "tuple[]"
                },
                {
                  "internalType": "enum OrderType",
                  "name": "orderType",
                  "type": "uint8"
                },
                {
                  "internalType": "uint256",
                  "name": "startTime",
                  "type": "uint256"
                },
                {
                  "internalType": "uint256",
                  "name": "endTime",
                  "type": "uint256"
                },
                {
                  "internalType": "bytes32",
                  "name": "zoneHash",
                  "type": "bytes32"
                },
                {
                  "internalType": "uint256",
                  "name": "salt",
                  "type": "uint256"
                },
                {
                  "internalType": "bytes32",
                  "name": "conduitKey",
                  "type": "bytes32"
                },
                {
                  "internalType": "uint256",
                  "name": "totalOriginalConsiderationItems",
                  "type": "uint256"
                }
              ],
              "internalType": "struct OrderParameters",
              "name": "parameters",
              "type": "tuple"
            },
            {
              "internalType": "bytes",
              "name": "signature",
              "type": "bytes"
            }
          ],
          "internalType": "struct Order[]",
          "name": "orders",
          "type": "tuple[]"
        },
        {
          "components": [
            {
              "internalType": "uint256",
              "name": "orderIndex",
              "type": "uint256"
            },
            {
              "internalType": "uint256",
              "name": "itemIndex",
              "type": "uint256"
            }
          ],
          "internalType": "struct FulfillmentComponent[][]",
          "name": "offerFulfillments",
          "type": "tuple[][]"
        },
        {
          "components": [
            {
              "internalType": "uint256",
              "name": "orderIndex",
              "type": "uint256"
            },
            {
              "internalType": "uint256",
              "name": "itemIndex",
              "type": "uint256"
            }
          ],
          "internalType": "struct FulfillmentComponent[][]",
          "name": "considerationFulfillments",
          "type": "tuple[][]"
        },
        {
          "internalType": "bytes32",
          "name": "fulfillerConduitKey",
          "type": "bytes32"
        },
        {
          "internalType": "uint256",
          "name": "maximumFulfilled",
          "type": "uint256"
        }
      ],
      "name": "fulfillAvailableOrders",
      "outputs": [
        {
          "internalType": "bool[]",
          "name": "availableOrders",
          "type": "bool[]"
        },
        {
          "components": [
            {
              "components": [
                {
                  "internalType": "enum ItemType",
                  "name": "itemType",
                  "type": "uint8"
                },
                {
                  "internalType": "address",
                  "name": "token",
                  "type": "address"
                },
                {
                  "internalType": "uint256",
                  "name": "identifier",
                  "type": "uint256"
                },
                {
                  "internalType": "uint256",
                  "name": "amount",
                  "type": "uint256"
                },
                {
                  "internalType": "address payable",
                  "name": "recipient",
                  "type": "address"
                }
              ],
              "internalType": "struct ReceivedItem",
              "name": "item",
              "type": "tuple"
            },
            {
              "internalType": "address",
              "name": "offerer",
              "type": "address"
            },
            {
              "internalType": "bytes32",
              "name": "conduitKey",
              "type": "bytes32"
            }
          ],
          "internalType": "struct Execution[]",
          "name": "executions",
          "type": "tuple[]"
        }
      ],
      "stateMutability": "payable",
      "type": "function"
    },
    {
      "inputs": [
        {
          "components": [
            {
              "internalType": "address",
              "name": "considerationToken",
              "type": "address"
            },
            {
              "internalType": "uint256",
              "name": "considerationIdentifier",
              "type": "uint256"
            },
            {
              "internalType": "uint256",
              "name": "considerationAmount",
              "type": "uint256"
            },
            {
              "internalType": "address payable",
              "name": "offerer",
              "type": "address"
            },
            {
              "internalType": "address",
              "name": "zone",
              "type": "address"
            },
            {
              "internalType": "address",
              "name": "offerToken",
              "type": "address"
            },
            {
              "internalType": "uint256",
              "name": "offerIdentifier",
              "type": "uint256"
            },
            {
              "internalType": "uint256",
              "name": "offerAmount",
              "type": "uint256"
            },
            {
              "internalType": "enum BasicOrderType",
              "name": "basicOrderType",
              "type": "uint8"
            },
            {
              "internalType": "uint256",
              "name": "startTime",
              "type": "uint256"
            },
            {
              "internalType": "uint256",
              "name": "endTime",
              "type": "uint256"
            },
            {
              "internalType": "bytes32",
              "name": "zoneHash",
              "type": "bytes32"
            },
            {
              "internalType": "uint256",
              "name": "salt",
              "type": "uint256"
            },
            {
              "internalType": "bytes32",
              "name": "offererConduitKey",
              "type": "bytes32"
            },
            {
              "internalType": "bytes32",
              "name": "fulfillerConduitKey",
              "type": "bytes32"
            },
            {
              "internalType": "uint256",
              "name": "totalOriginalAdditionalRecipients",
              "type": "uint256"
            },
            {
              "components": [
                {
                  "internalType": "uint256",
                  "name": "amount",
                  "type": "uint256"
                },
                {
                  "internalType": "address payable",
                  "name": "recipient",
                  "type": "address"
                }
              ],
              "internalType": "struct AdditionalRecipient[]",
              "name": "additionalRecipients",
              "type": "tuple[]"
            },
            {
              "internalType": "bytes",
              "name": "signature",
              "type": "bytes"
            }
          ],
          "internalType": "struct BasicOrderParameters",
          "name": "parameters",
          "type": "tuple"
        }
      ],
      "name": "fulfillBasicOrder",
      "outputs": [
        {
          "internalType": "bool",
          "name": "fulfilled",
          "type": "bool"
        }
      ],
      "stateMutability": "payable",
      "type": "function"
    },
    {
      "inputs": [
        {
          "components": [
            {
              "components": [
                {
                  "internalType": "address",
                  "name": "offerer",
                  "type": "address"
                },
                {
                  "internalType": "address",
                  "name": "zone",
                  "type": "address"
                },
                {
                  "components": [
                    {
                      "internalType": "enum ItemType",
                      "name": "itemType",
                      "type": "uint8"
                    },
                    {
                      "internalType": "address",
                      "name": "token",
                      "type": "address"
                    },
                    {
                      "internalType": "uint256",
                      "name": "identifierOrCriteria",
                      "type": "uint256"
                    },
                    {
                      "internalType": "uint256",
                      "name": "startAmount",
                      "type": "uint256"
                    },
                    {
                      "internalType": "uint256",
                      "name": "endAmount",
                      "type": "uint256"
                    }
                  ],
                  "internalType": "struct OfferItem[]",
                  "name": "offer",
                  "type": "tuple[]"
                },
                {
                  "components": [
                    {
                      "internalType": "enum ItemType",
                      "name": "itemType",
                      "type": "uint8"
                    },
                    {
                      "internalType": "address",
                      "name": "token",
                      "type": "address"
                    },
                    {
                      "internalType": "uint256",
                      "name": "identifierOrCriteria",
                      "type": "uint256"
                    },
                    {
                      "internalType": "uint256",
                      "name": "startAmount",
                      "type": "uint256"
                    },
                    {
                      "internalType": "uint256",
                      "name": "endAmount",
                      "type": "uint256"
                    },
                    {
                      "internalType": "address payable",
                      "name": "recipient",
                      "type": "address"
                    }
                  ],
                  "internalType": "struct ConsiderationItem[]",
                  "name": "consideration",
                  "type": "tuple[]"
                },
                {
                  "internalType": "enum OrderType",
                  "name": "orderType",
                  "type": "uint8"
                },
                {
                  "internalType": "uint256",
                  "name": "startTime",
                  "type": "uint256"
                },
                {
                  "internalType": "uint256",
                  "name": "endTime",
                  "type": "uint256"
                },
                {
                  "internalType": "bytes32",
                  "name": "zoneHash",
                  "type": "bytes32"
                },
                {
                  "internalType": "uint256",
                  "name": "salt",
                  "type": "uint256"
                },
                {
                  "internalType": "bytes32",
                  "name": "conduitKey",
                  "type": "bytes32"
                },
                {
                  "internalType": "uint256",
                  "name": "totalOriginalConsiderationItems",
                  "type": "uint256"
                }
              ],
              "internalType": "struct OrderParameters",
              "name": "parameters",
              "type": "tuple"
            },
            {
              "internalType": "bytes",
              "name": "signature",
              "type": "bytes"
            }
          ],
          "internalType": "struct Order",
          "name": "order",
          "type": "tuple"
        },
        {
          "internalType": "bytes32",
          "name": "fulfillerConduitKey",
          "type": "bytes32"
        }
      ],
      "name": "fulfillOrder",
      "outputs": [
        {
          "internalType": "bool",
          "name": "fulfilled",
          "type": "bool"
        }
      ],
      "stateMutability": "payable",
      "type": "function"
    },
    {
      "inputs": [
        {
          "internalType": "address",
          "name": "offerer",
          "type": "address"
        }
      ],
      "name": "getNonce",
      "outputs": [
        {
          "internalType": "uint256",
          "name": "nonce",
          "type": "uint256"
        }
      ],
      "stateMutability": "view",
      "type": "function"
    },
    {
      "inputs": [
        {
          "components": [
            {
              "internalType": "address",
              "name": "offerer",
              "type": "address"
            },
            {
              "internalType": "address",
              "name": "zone",
              "type": "address"
            },
            {
              "components": [
                {
                  "internalType": "enum ItemType",
                  "name": "itemType",
                  "type": "uint8"
                },
                {
                  "internalType": "address",
                  "name": "token",
                  "type": "address"
                },
                {
                  "internalType": "uint256",
                  "name": "identifierOrCriteria",
                  "type": "uint256"
                },
                {
                  "internalType": "uint256",
                  "name": "startAmount",
                  "type": "uint256"
                },
                {
                  "internalType": "uint256",
                  "name": "endAmount",
                  "type": "uint256"
                }
              ],
              "internalType": "struct OfferItem[]",
              "name": "offer",
              "type": "tuple[]"
            },
            {
              "components": [
                {
                  "internalType": "enum ItemType",
                  "name": "itemType",
                  "type": "uint8"
                },
                {
                  "internalType": "address",
                  "name": "token",
                  "type": "address"
                },
                {
                  "internalType": "uint256",
                  "name": "identifierOrCriteria",
                  "type": "uint256"
                },
                {
                  "internalType": "uint256",
                  "name": "startAmount",
                  "type": "uint256"
                },
                {
                  "internalType": "uint256",
                  "name": "endAmount",
                  "type": "uint256"
                },
                {
                  "internalType": "address payable",
                  "name": "recipient",
                  "type": "address"
                }
              ],
              "internalType": "struct ConsiderationItem[]",
              "name": "consideration",
              "type": "tuple[]"
            },
            {
              "internalType": "enum OrderType",
              "name": "orderType",
              "type": "uint8"
            },
            {
              "internalType": "uint256",
              "name": "startTime",
              "type": "uint256"
            },
            {
              "internalType": "uint256",
              "name": "endTime",
              "type": "uint256"
            },
            {
              "internalType": "bytes32",
              "name": "zoneHash",
              "type": "bytes32"
            },
            {
              "internalType": "uint256",
              "name": "salt",
              "type": "uint256"
            },
            {
              "internalType": "bytes32",
              "name": "conduitKey",
              "type": "bytes32"
            },
            {
              "internalType": "uint256",
              "name": "nonce",
              "type": "uint256"
            }
          ],
          "internalType": "struct OrderComponents",
          "name": "order",
          "type": "tuple"
        }
      ],
      "name": "getOrderHash",
      "outputs": [
        {
          "internalType": "bytes32",
          "name": "orderHash",
          "type": "bytes32"
        }
      ],
      "stateMutability": "view",
      "type": "function"
    },
    {
      "inputs": [
        {
          "internalType": "bytes32",
          "name": "orderHash",
          "type": "bytes32"
        }
      ],
      "name": "getOrderStatus",
      "outputs": [
        {
          "internalType": "bool",
          "name": "isValidated",
          "type": "bool"
        },
        {
          "internalType": "bool",
          "name": "isCancelled",
          "type": "bool"
        },
        {
          "internalType": "uint256",
          "name": "totalFilled",
          "type": "uint256"
        },
        {
          "internalType": "uint256",
          "name": "totalSize",
          "type": "uint256"
        }
      ],
      "stateMutability": "view",
      "type": "function"
    },
    {
      "inputs": [],
      "name": "incrementNonce",
      "outputs": [
        {
          "internalType": "uint256",
          "name": "newNonce",
          "type": "uint256"
        }
      ],
      "stateMutability": "nonpayable",
      "type": "function"
    },
    {
      "inputs": [],
      "name": "information",
      "outputs": [
        {
          "internalType": "string",
          "name": "version",
          "type": "string"
        },
        {
          "internalType": "bytes32",
          "name": "domainSeparator",
          "type": "bytes32"
        },
        {
          "internalType": "address",
          "name": "conduitController",
          "type": "address"
        }
      ],
      "stateMutability": "view",
      "type": "function"
    },
    {
      "inputs": [
        {
          "components": [
            {
              "components": [
                {
                  "internalType": "address",
                  "name": "offerer",
                  "type": "address"
                },
                {
                  "internalType": "address",
                  "name": "zone",
                  "type": "address"
                },
                {
                  "components": [
                    {
                      "internalType": "enum ItemType",
                      "name": "itemType",
                      "type": "uint8"
                    },
                    {
                      "internalType": "address",
                      "name": "token",
                      "type": "address"
                    },
                    {
                      "internalType": "uint256",
                      "name": "identifierOrCriteria",
                      "type": "uint256"
                    },
                    {
                      "internalType": "uint256",
                      "name": "startAmount",
                      "type": "uint256"
                    },
                    {
                      "internalType": "uint256",
                      "name": "endAmount",
                      "type": "uint256"
                    }
                  ],
                  "internalType": "struct OfferItem[]",
                  "name": "offer",
                  "type": "tuple[]"
                },
                {
                  "components": [
                    {
                      "internalType": "enum ItemType",
                      "name": "itemType",
                      "type": "uint8"
                    },
                    {
                      "internalType": "address",
                      "name": "token",
                      "type": "address"
                    },
                    {
                      "internalType": "uint256",
                      "name": "identifierOrCriteria",
                      "type": "uint256"
                    },
                    {
                      "internalType": "uint256",
                      "name": "startAmount",
                      "type": "uint256"
                    },
                    {
                      "internalType": "uint256",
                      "name": "endAmount",
                      "type": "uint256"
                    },
                    {
                      "internalType": "address payable",
                      "name": "recipient",
                      "type": "address"
                    }
                  ],
                  "internalType": "struct ConsiderationItem[]",
                  "name": "consideration",
                  "type": "tuple[]"
                },
                {
                  "internalType": "enum OrderType",
                  "name": "orderType",
                  "type": "uint8"
                },
                {
                  "internalType": "uint256",
                  "name": "startTime",
                  "type": "uint256"
                },
                {
                  "internalType": "uint256",
                  "name": "endTime",
                  "type": "uint256"
                },
                {
                  "internalType": "bytes32",
                  "name": "zoneHash",
                  "type": "bytes32"
                },
                {
                  "internalType": "uint256",
                  "name": "salt",
                  "type": "uint256"
                },
                {
                  "internalType": "bytes32",
                  "name": "conduitKey",
                  "type": "bytes32"
                },
                {
                  "internalType": "uint256",
                  "name": "totalOriginalConsiderationItems",
                  "type": "uint256"
                }
              ],
              "internalType": "struct OrderParameters",
              "name": "parameters",
              "type": "tuple"
            },
            {
              "internalType": "uint120",
              "name": "numerator",
              "type": "uint120"
            },
            {
              "internalType": "uint120",
              "name": "denominator",
              "type": "uint120"
            },
            {
              "internalType": "bytes",
              "name": "signature",
              "type": "bytes"
            },
            {
              "internalType": "bytes",
              "name": "extraData",
              "type": "bytes"
            }
          ],
          "internalType": "struct AdvancedOrder[]",
          "name": "advancedOrders",
          "type": "tuple[]"
        },
        {
          "components": [
            {
              "internalType": "uint256",
              "name": "orderIndex",
              "type": "uint256"
            },
            {
              "internalType": "enum Side",
              "name": "side",
              "type": "uint8"
            },
            {
              "internalType": "uint256",
              "name": "index",
              "type": "uint256"
            },
            {
              "internalType": "uint256",
              "name": "identifier",
              "type": "uint256"
            },
            {
              "internalType": "bytes32[]",
              "name": "criteriaProof",
              "type": "bytes32[]"
            }
          ],
          "internalType": "struct CriteriaResolver[]",
          "name": "criteriaResolvers",
          "type": "tuple[]"
        },
        {
          "components": [
            {
              "components": [
                {
                  "internalType": "uint256",
                  "name": "orderIndex",
                  "type": "uint256"
                },
                {
                  "internalType": "uint256",
                  "name": "itemIndex",
                  "type": "uint256"
                }
              ],
              "internalType": "struct FulfillmentComponent[]",
              "name": "offerComponents",
              "type": "tuple[]"
            },
            {
              "components": [
                {
                  "internalType": "uint256",
                  "name": "orderIndex",
                  "type": "uint256"
                },
                {
                  "internalType": "uint256",
                  "name": "itemIndex",
                  "type": "uint256"
                }
              ],
              "internalType": "struct FulfillmentComponent[]",
              "name": "considerationComponents",
              "type": "tuple[]"
            }
          ],
          "internalType": "struct Fulfillment[]",
          "name": "fulfillments",
          "type": "tuple[]"
        }
      ],
      "name": "matchAdvancedOrders",
      "outputs": [
        {
          "components": [
            {
              "components": [
                {
                  "internalType": "enum ItemType",
                  "name": "itemType",
                  "type": "uint8"
                },
                {
                  "internalType": "address",
                  "name": "token",
                  "type": "address"
                },
                {
                  "internalType": "uint256",
                  "name": "identifier",
                  "type": "uint256"
                },
                {
                  "internalType": "uint256",
                  "name": "amount",
                  "type": "uint256"
                },
                {
                  "internalType": "address payable",
                  "name": "recipient",
                  "type": "address"
                }
              ],
              "internalType": "struct ReceivedItem",
              "name": "item",
              "type": "tuple"
            },
            {
              "internalType": "address",
              "name": "offerer",
              "type": "address"
            },
            {
              "internalType": "bytes32",
              "name": "conduitKey",
              "type": "bytes32"
            }
          ],
          "internalType": "struct Execution[]",
          "name": "executions",
          "type": "tuple[]"
        }
      ],
      "stateMutability": "payable",
      "type": "function"
    },
    {
      "inputs": [
        {
          "components": [
            {
              "components": [
                {
                  "internalType": "address",
                  "name": "offerer",
                  "type": "address"
                },
                {
                  "internalType": "address",
                  "name": "zone",
                  "type": "address"
                },
                {
                  "components": [
                    {
                      "internalType": "enum ItemType",
                      "name": "itemType",
                      "type": "uint8"
                    },
                    {
                      "internalType": "address",
                      "name": "token",
                      "type": "address"
                    },
                    {
                      "internalType": "uint256",
                      "name": "identifierOrCriteria",
                      "type": "uint256"
                    },
                    {
                      "internalType": "uint256",
                      "name": "startAmount",
                      "type": "uint256"
                    },
                    {
                      "internalType": "uint256",
                      "name": "endAmount",
                      "type": "uint256"
                    }
                  ],
                  "internalType": "struct OfferItem[]",
                  "name": "offer",
                  "type": "tuple[]"
                },
                {
                  "components": [
                    {
                      "internalType": "enum ItemType",
                      "name": "itemType",
                      "type": "uint8"
                    },
                    {
                      "internalType": "address",
                      "name": "token",
                      "type": "address"
                    },
                    {
                      "internalType": "uint256",
                      "name": "identifierOrCriteria",
                      "type": "uint256"
                    },
                    {
                      "internalType": "uint256",
                      "name": "startAmount",
                      "type": "uint256"
                    },
                    {
                      "internalType": "uint256",
                      "name": "endAmount",
                      "type": "uint256"
                    },
                    {
                      "internalType": "address payable",
                      "name": "recipient",
                      "type": "address"
                    }
                  ],
                  "internalType": "struct ConsiderationItem[]",
                  "name": "consideration",
                  "type": "tuple[]"
                },
                {
                  "internalType": "enum OrderType",
                  "name": "orderType",
                  "type": "uint8"
                },
                {
                  "internalType": "uint256",
                  "name": "startTime",
                  "type": "uint256"
                },
                {
                  "internalType": "uint256",
                  "name": "endTime",
                  "type": "uint256"
                },
                {
                  "internalType": "bytes32",
                  "name": "zoneHash",
                  "type": "bytes32"
                },
                {
                  "internalType": "uint256",
                  "name": "salt",
                  "type": "uint256"
                },
                {
                  "internalType": "bytes32",
                  "name": "conduitKey",
                  "type": "bytes32"
                },
                {
                  "internalType": "uint256",
                  "name": "totalOriginalConsiderationItems",
                  "type": "uint256"
                }
              ],
              "internalType": "struct OrderParameters",
              "name": "parameters",
              "type": "tuple"
            },
            {
              "internalType": "bytes",
              "name": "signature",
              "type": "bytes"
            }
          ],
          "internalType": "struct Order[]",
          "name": "orders",
          "type": "tuple[]"
        },
        {
          "components": [
            {
              "components": [
                {
                  "internalType": "uint256",
                  "name": "orderIndex",
                  "type": "uint256"
                },
                {
                  "internalType": "uint256",
                  "name": "itemIndex",
                  "type": "uint256"
                }
              ],
              "internalType": "struct FulfillmentComponent[]",
              "name": "offerComponents",
              "type": "tuple[]"
            },
            {
              "components": [
                {
                  "internalType": "uint256",
                  "name": "orderIndex",
                  "type": "uint256"
                },
                {
                  "internalType": "uint256",
                  "name": "itemIndex",
                  "type": "uint256"
                }
              ],
              "internalType": "struct FulfillmentComponent[]",
              "name": "considerationComponents",
              "type": "tuple[]"
            }
          ],
          "internalType": "struct Fulfillment[]",
          "name": "fulfillments",
          "type": "tuple[]"
        }
      ],
      "name": "matchOrders",
      "outputs": [
        {
          "components": [
            {
              "components": [
                {
                  "internalType": "enum ItemType",
                  "name": "itemType",
                  "type": "uint8"
                },
                {
                  "internalType": "address",
                  "name": "token",
                  "type": "address"
                },
                {
                  "internalType": "uint256",
                  "name": "identifier",
                  "type": "uint256"
                },
                {
                  "internalType": "uint256",
                  "name": "amount",
                  "type": "uint256"
                },
                {
                  "internalType": "address payable",
                  "name": "recipient",
                  "type": "address"
                }
              ],
              "internalType": "struct ReceivedItem",
              "name": "item",
              "type": "tuple"
            },
            {
              "internalType": "address",
              "name": "offerer",
              "type": "address"
            },
            {
              "internalType": "bytes32",
              "name": "conduitKey",
              "type": "bytes32"
            }
          ],
          "internalType": "struct Execution[]",
          "name": "executions",
          "type": "tuple[]"
        }
      ],
      "stateMutability": "payable",
      "type": "function"
    },
    {
      "inputs": [],
      "name": "name",
      "outputs": [
        {
          "internalType": "string",
          "name": "contractName",
          "type": "string"
        }
      ],
      "stateMutability": "pure",
      "type": "function"
    },
    {
      "inputs": [
        {
          "components": [
            {
              "components": [
                {
                  "internalType": "address",
                  "name": "offerer",
                  "type": "address"
                },
                {
                  "internalType": "address",
                  "name": "zone",
                  "type": "address"
                },
                {
                  "components": [
                    {
                      "internalType": "enum ItemType",
                      "name": "itemType",
                      "type": "uint8"
                    },
                    {
                      "internalType": "address",
                      "name": "token",
                      "type": "address"
                    },
                    {
                      "internalType": "uint256",
                      "name": "identifierOrCriteria",
                      "type": "uint256"
                    },
                    {
                      "internalType": "uint256",
                      "name": "startAmount",
                      "type": "uint256"
                    },
                    {
                      "internalType": "uint256",
                      "name": "endAmount",
                      "type": "uint256"
                    }
                  ],
                  "internalType": "struct OfferItem[]",
                  "name": "offer",
                  "type": "tuple[]"
                },
                {
                  "components": [
                    {
                      "internalType": "enum ItemType",
                      "name": "itemType",
                      "type": "uint8"
                    },
                    {
                      "internalType": "address",
                      "name": "token",
                      "type": "address"
                    },
                    {
                      "internalType": "uint256",
                      "name": "identifierOrCriteria",
                      "type": "uint256"
                    },
                    {
                      "internalType": "uint256",
                      "name": "startAmount",
                      "type": "uint256"
                    },
                    {
                      "internalType": "uint256",
                      "name": "endAmount",
                      "type": "uint256"
                    },
                    {
                      "internalType": "address payable",
                      "name": "recipient",
                      "type": "address"
                    }
                  ],
                  "internalType": "struct ConsiderationItem[]",
                  "name": "consideration",
                  "type": "tuple[]"
                },
                {
                  "internalType": "enum OrderType",
                  "name": "orderType",
                  "type": "uint8"
                },
                {
                  "internalType": "uint256",
                  "name": "startTime",
                  "type": "uint256"
                },
                {
                  "internalType": "uint256",
                  "name": "endTime",
                  "type": "uint256"
                },
                {
                  "internalType": "bytes32",
                  "name": "zoneHash",
                  "type": "bytes32"
                },
                {
                  "internalType": "uint256",
                  "name": "salt",
                  "type": "uint256"
                },
                {
                  "internalType": "bytes32",
                  "name": "conduitKey",
                  "type": "bytes32"
                },
                {
                  "internalType": "uint256",
                  "name": "totalOriginalConsiderationItems",
                  "type": "uint256"
                }
              ],
              "internalType": "struct OrderParameters",
              "name": "parameters",
              "type": "tuple"
            },
            {
              "internalType": "bytes",
              "name": "signature",
              "type": "bytes"
            }
          ],
          "internalType": "struct Order[]",
          "name": "orders",
          "type": "tuple[]"
        }
      ],
      "name": "validate",
      "outputs": [
        {
          "internalType": "bool",
          "name": "validated",
          "type": "bool"
        }
      ],
      "stateMutability": "nonpayable",
      "type": "function"
    }
  ],
  "bytecode": "0x6101c060405234620000b9576200001f6200001962000114565b62000151565b604051615f3290816200076982396080518161287c015260a051816128a2015260c05181612859015260e0518181816117e501526126e70152610100518181816116b101526127360152610120518181816118810152612784015261014051816128070152610160518161282d015261018051818181610f820152818161233f01526124b901526101a05181818161237d01526124f70152f35b600080fd5b604081019081106001600160401b03821117620000da57604052565b634e487b7160e01b600052604160045260246000fd5b601f909101601f19168101906001600160401b03821190821017620000da57604052565b6200669b60208138039182604051938492620001318285620000f0565b833981010312620000b957516001600160a01b0381168103620000b95790565b604060049162000160620002e1565b610120526101005260e05260c05260a05260805246610140526200018362000237565b610160526001600160a01b03166101808190528151630a96ad3960e01b815292839182905afa90811562000203575b600091620001cd575b506101a052620001cb6001600055565b565b620001f3915060403d8111620001fb575b620001ea8183620000f0565b81019062000213565b5038620001bb565b503d620001de565b6200020d6200022a565b620001b2565b9190826040910312620000b9576020825192015190565b506040513d6000823e3d90fd5b60c05160805160a0516040519160208301938452604083015260608201524660808201523060a082015260a0815260c0810181811060018060401b03821117620000da5760405251902090565b604051906200029382620000be565b60018252603160f81b6020830152565b90815180926000905b828210620002c9575011620002bf570190565b6000828201520190565b915080602080928401015181850152018391620002ac565b620002eb62000743565b805160208092012091620002fe62000284565b8281519101209160405181810192816200032985600a906909ecccccae492e8cada560b31b81520190565b6e1d5a5b9d0e081a5d195b551e5c194b608a1b8152600f016d1859191c995cdcc81d1bdad95b8b60921b8152600e017f75696e74323536206964656e7469666965724f7243726974657269612c0000008152601d017f75696e74323536207374617274416d6f756e742c0000000000000000000000008152601401701d5a5b9d0c8d4d88195b99105b5bdd5b9d607a1b8152601101602960f81b81526001010392601f19938481018452620003df9084620000f0565b60405171086dedce6d2c8cae4c2e8d2dedc92e8cada560731b8282019081529481601287016e1d5a5b9d0e081a5d195b551e5c194b608a1b8152600f016d1859191c995cdcc81d1bdad95b8b60921b8152600e017f75696e74323536206964656e7469666965724f7243726974657269612c0000008152601d017f75696e74323536207374617274416d6f756e742c0000000000000000000000008152601401711d5a5b9d0c8d4d88195b99105b5bdd5b9d0b60721b8152601201701859191c995cdcc81c9958da5c1a595b9d607a1b8152601101602960f81b8152600101038181018352620004d09083620000f0565b6040519283818101620004fa906010906f09ee4c8cae486dedae0dedccadce8e6560831b81520190565b6f1859191c995cdcc81bd999995c995c8b60821b81526010016c1859191c995cdcc81e9bdb994b609a1b8152600d017113d999995c925d195b56d7481bd999995c8b60721b81526012017f436f6e73696465726174696f6e4974656d5b5d20636f6e73696465726174696f8152611b8b60f21b60208201526022016f1d5a5b9d0e081bdc99195c951e5c194b60821b8152601001711d5a5b9d0c8d4d881cdd185c9d151a5b594b60721b81526012016f1d5a5b9d0c8d4d88195b99151a5b594b60821b815260100170189e5d195ccccc881e9bdb9952185cda0b607a1b81526011016c1d5a5b9d0c8d4d881cd85b1d0b609a1b8152600d017f6279746573333220636f6e647569744b65792c0000000000000000000000000081526013016c75696e74323536206e6f6e636560981b8152600d01602960f81b81526001010382810185526200064a9085620000f0565b6040516c08a92a06e626488dedac2d2dc5609b1b8282019081529080600d83016b1cdd1c9a5b99c81b985b594b60a21b8152600c016e1cdd1c9a5b99c81d995c9cda5bdb8b608a1b8152600f016f1d5a5b9d0c8d4d8818da185a5b92590b60821b81526010017f6164647265737320766572696679696e67436f6e7472616374000000000000008152601901602960f81b8152600101038481018252620006f29082620000f0565b5190209786519020968351902095604051938492830195866200071591620002a3565b6200072091620002a3565b6200072b91620002a3565b0390810182526200073d9082620000f0565b51902090565b604051906200075282620000be565b600782526614d9585c1bdc9d60ca1b602083015256fe60806040526004361015610013575b600080fd5b60003560e01c806306fdde031461013f5780632d0335ab1461013657806346423aa71461012d57806355944a4214610124578063627cdcb91461011b57806379df72bd146101125780638814773214610109578063a817440414610100578063b3a34c4c146100f7578063df7b0dac146100ee578063ed98a574146100e5578063f47b7740146100dc578063fb0f3ee1146100d3578063fb4c2af9146100ca5763fd9f1e10146100c257600080fd5b61000e611301565b5061000e611272565b5061000e610fab565b5061000e610f0a565b5061000e610e74565b5061000e610db4565b5061000e610d53565b5061000e610ce2565b5061000e610b7b565b5061000e610a20565b5061000e6109bb565b5061000e61092e565b5061000e610225565b5061000e6101e0565b5061000e610199565b91908251928382526000905b8482106101815750601f8460209495601f199311610174575b0116010190565b600085828601015261016d565b90602090818082850101519082860101520190610154565b503461000e57600060031936011261000e5760206000526707536561706f727460275260606000f35b6001600160a01b0381160361000e57565b35906101de826101c2565b565b503461000e57602060031936011261000e57602061021d600435610203816101c2565b6001600160a01b0316600052600160205260406000205490565b604051908152f35b503461000e57602060031936011261000e576004356000526002602052604060002060405190610254826102f3565b546102bf606060ff831615159283855260ff8160081c161515948560208201526effffffffffffffffffffffffffffff8260101c169182604083015260881c928391015260405194859485909493926060926080830196151583521515602083015260408201520152565b0390f35b507f4e487b7100000000000000000000000000000000000000000000000000000000600052604160045260246000fd5b6080810190811067ffffffffffffffff82111761030f57604052565b6103176102c3565b604052565b60a0810190811067ffffffffffffffff82111761030f57604052565b60c0810190811067ffffffffffffffff82111761030f57604052565b6020810190811067ffffffffffffffff82111761030f57604052565b6040810190811067ffffffffffffffff82111761030f57604052565b90601f601f19910116810190811067ffffffffffffffff82111761030f57604052565b60405190610160820182811067ffffffffffffffff82111761030f57604052565b604051906101de8261031c565b60209067ffffffffffffffff81116103f7575b60051b0190565b6103ff6102c3565b6103f0565b3590600682101561000e57565b92919261041d826103dd565b60409461042c8651928361038c565b819584835260208093019160a080960285019481861161000e57925b8584106104585750505050505050565b868483031261000e57848791845161046f8161031c565b61047887610404565b815282870135610487816101c2565b8382015285870135868201526060808801359082015260808088013590820152815201930192610448565b9080601f8301121561000e578160206104cd93359101610411565b90565b9291926104dc826103dd565b6040946104eb8651928361038c565b819584835260208093019160c080960285019481861161000e57925b8584106105175750505050505050565b868483031261000e57848791845161052e81610338565b61053787610404565b815282870135610546816101c2565b838201528587013586820152606080880135908201526080808801359082015260a08088013590610576826101c2565b820152815201930192610507565b9080601f8301121561000e578160206104cd933591016104d0565b6004111561000e57565b35906101de8261059f565b9190916101608184031261000e576105ca6103af565b926105d4826101d3565b84526105e2602083016101d3565b602085015267ffffffffffffffff90604083013582811161000e57816106099185016104b2565b6040860152606083013591821161000e57610625918301610584565b6060840152610636608082016105a9565b608084015260a081013560a084015260c081013560c084015260e081013560e0840152610100808201359084015261012080820135908401526101408091013590830152565b35906effffffffffffffffffffffffffffff8216820361000e57565b92919267ffffffffffffffff82116106e0575b604051916106c36020601f19601f840116018461038c565b82948184528183011161000e578281602093846000960137010152565b6106e86102c3565b6106ab565b9080601f8301121561000e578160206104cd93359101610698565b91909160a08184031261000e5761071d6103d0565b9267ffffffffffffffff823581811161000e578261073c9185016105b4565b855261074a6020840161067c565b602086015261075b6040840161067c565b6040860152606083013581811161000e57826107789185016106ed565b6060860152608083013590811161000e5761079392016106ed565b6080830152565b9080601f8301121561000e578135906107b2826103dd565b926107c0604051948561038c565b828452602092838086019160051b8301019280841161000e57848301915b8483106107ee5750505050505090565b823567ffffffffffffffff811161000e57869161081084848094890101610708565b8152019201916107de565b9181601f8401121561000e5782359167ffffffffffffffff831161000e576020808501948460051b01011161000e57565b507f4e487b7100000000000000000000000000000000000000000000000000000000600052602160045260246000fd5b6006111561088657565b6101de61084c565b608090805161089c8161087c565b8352816001600160a01b03918260208201511660208601526040810151604086015260608101516060860152015116910152565b90815180825260208080930193019160005b8281106108f0575050505090565b909192938260e06001926040885161090983825161088e565b808501516001600160a01b031660a0840152015160c0820152019501939291016108e2565b50606060031936011261000e5767ffffffffffffffff60043581811161000e5761095c90369060040161079a565b9060243581811161000e5761097590369060040161081b565b60443592831161000e576102bf936109a16109976109a795369060040161081b565b9490933691611c68565b90613d9c565b6040519182916020835260208301906108d0565b503461000e57600060031936011261000e576109d5614f45565b3360005260016020526020604060002060018154018091556040518181527f7ab0fc7de8910a6100b24df423c3d0835534506dca9473d30c3e7df51241b2cf833392a2604051908152f35b503461000e5760031960208136011261000e5760043567ffffffffffffffff811161000e576101608160040192823603011261000e57610a5f82611522565b91610a6c60248301611522565b90610a7a6044840182611d47565b606485019291610a8a8484611d9b565b92909360848801610a9a90611df9565b95610aa491611d9b565b969050610aaf6103af565b6001600160a01b0390991689526001600160a01b031660208901523690610ad592610411565b60408701523690610ae5926104d0565b6060850152610af79060808501611e03565b60a482013560a084015260c482013560c084015260e482013560e08401526101048201356101008401526101248201356101208401526101408301526101440135610b41916126da565b604051908152602090f35b602060031982011261000e576004359067ffffffffffffffff821161000e57610b779160040161081b565b9091565b503461000e57610b8a36610b4c565b610b92614f45565b60005b818110610ba85760405160018152602090f35b80610bb66001928486613e8e565b610bc08180614681565b90610bca82611522565b91610bdd610bd836836105b4565b614ed7565b91610c15610c11610c00610bfb866000526002602052604060002090565b6147af565b610c0a8187615504565b5051151590565b1590565b610c24575b5050505001610b95565b610cb8610cd6917ffde361574a066b44b3b5fe98a87108b7565e327327954c4faeea56a4e6491a0a93610c70610c69610c626020948581019061160f565b3691610698565b878961522b565b610cb2610c87876000526002602052604060002090565b60017fffffffffffffffffffffffffffffffffffffffffffffffffffffffffffffff00825416179055565b01611522565b6040519384526001600160a01b039081169416929081906020820190565b0390a338808080610c1a565b50604060031936011261000e5767ffffffffffffffff60043581811161000e57610d1090369060040161081b565b60249291923591821161000e576102bf92610d3d610d356109a794369060040161081b565b939092614723565b60405190610d4a82610354565b60008252613d9c565b5060031960408136011261000e576004359067ffffffffffffffff821161000e57604090823603011261000e57610daa610d916020926004016146b4565b604051610d9d81610354565b600081526024359161417d565b6040519015158152f35b5060031960608136011261000e5760043567ffffffffffffffff9182821161000e5760a090823603011261000e5760243591821161000e57610e13610daa91610e1f610e06602095369060040161081b565b9390923690600401610708565b91604435933691611c68565b9061417d565b9092916040820191604081528451809352606081019260208096019060005b818110610e5e575050506104cd93948184039101526108d0565b8251151586529487019491870191600101610e44565b5060a060031936011261000e5767ffffffffffffffff60043581811161000e57610ea290369060040161081b565b60243583811161000e57610eba90369060040161081b565b91909260443594851161000e57610edb610d35610efa96369060040161081b565b9260405194610ee986610354565b600086526084359560643595612a58565b906102bf60405192839283610e25565b503461000e57600060031936011261000e57610f72610f27612804565b60405190610f3482610370565b600182527f31000000000000000000000000000000000000000000000000000000000000006020830152604051928392606084526060840190610148565b9060208301526001600160a01b037f00000000000000000000000000000000000000000000000000000000000000001660408301520390f35b5060031960208136011261000e576004359067ffffffffffffffff821161000e576102408260040191833603011261000e5761012435908160021c60018111903415820361123d5780600383921194600282149061105182600285117ffffffffffffffffffffffffffffffffffffffffffffffffffffffffffffffffe86010201851592600182018a028460011b870103968792600360a08d026024013593168b611660565b61106f61106060648a01611522565b9760051b6101c401359561087c565b156110d257505084926110b1604495936110bc9361109260a46110c69a01611522565b9060e48801359160c48901359133916001600160a01b038a1691611e1a565b610204840190611545565b9390920135611a69565b60405160018152602090f35b926111579694919592506110e461152c565b9586946110f08261087c565b1561115c575091849161112e856044956001600160a01b0361111760a46111529b01611522565b95169460e48701359060c488013590873391612110565b61114661113a82611522565b91610204850190611545565b94909301359133611bac565b61230c565b6110c6565b6111658161087c565b600381036111a6575091849161112e856044956001600160a01b0361118f60a46111529b01611522565b95169460e48701359060c488013590873391612206565b806111b260049261087c565b036112085791816111ec8560e4956001600160a01b036111d56111529a97611522565b951694604487013590866024890135913390612110565b6111fb61113a60a48501611522565b9490930135913390611b2d565b91816111ec8560e4956001600160a01b036112266111529a97611522565b951694604487013590866024890135913390612206565b6040517fa61be9f0000000000000000000000000000000000000000000000000000000008152346004820152602490fd5b0390fd5b5060c060031936011261000e5767ffffffffffffffff60043581811161000e576112a090369060040161079a565b60243582811161000e576112b890369060040161081b565b60449291923584811161000e576112d390369060040161081b565b60649291923595861161000e576112f1610efa96369060040161081b565b93909260a4359660843596611d2b565b503461000e5761131036610b4c565b611318614f45565b60005b81811061132e5760405160018152602090f35b611339818385614f10565b61134281611522565b602090611350828401611522565b6001600160a01b0391828116938433141580611516575b6114ec5760409561137a81880182611d47565b60608084019261138a8486611d9b565b90916080948a86890161139c90611df9565b976113a7908a611d9b565b9a90506113b26103af565b6001600160a01b03909c168c526001600160a01b03909116908b015236906113d992610411565b8c89015236906113e8926104d0565b908601528401906113f891611e03565b60a0808201359084015260c0808201359084015260e08082013590840152610100808201359084015261012080820135908401526101409182840152013561143f916126da565b93611454856000526002602052604060002090565b80547fffffffffffffffffffffffffffffffffffffffffffffffffffffffffffffff0016905561148e856000526002602052604060002090565b80547fffffffffffffffffffffffffffffffffffffffffffffffffffffffffffff00ff166101001790555193845216917f6bacc01dbe442496068f7d234edd811f1a5f833243e0aec824f86ab861f3c90d90602090a360010161131b565b60046040517f80ec7374000000000000000000000000000000000000000000000000000000008152fd5b50838316331415611367565b356104cd816101c2565b6040519061153982610370565b60208083523683820137565b9035907fffffffffffffffffffffffffffffffffffffffffffffffffffffffffffffffe18136030182121561000e570180359067ffffffffffffffff821161000e57602001918160061b3603831361000e57565b507f4e487b7100000000000000000000000000000000000000000000000000000000600052601160045260246000fd5b6001907ffffffffffffffffffffffffffffffffffffffffffffffffffffffffffffffffe81116115f7570190565b6115ff611599565b0190565b811981116115f7570190565b9035907fffffffffffffffffffffffffffffffffffffffffffffffffffffffffffffffe18136030182121561000e570180359067ffffffffffffffff821161000e5760200191813603831361000e57565b95919061166b614f36565b61167f6101408801356101208901356151be565b506116886119b9565b6116af6116a361169c6102008a018a611545565b90506115c9565b6101e089013590611988565b7f00000000000000000000000000000000000000000000000000000000000000006080528160a0526060602460c037604060646101203760e06080908120610160526001610264359081016102a060059290921b918201526102c081019384526024906102e00137610160928460a0528560c052600060e05260005b8394610204358210156117885790604060a0600193602090818560061b6102840161010037838560061b6102840161012037019660e0608020885201968888528960c08201526101008360061b610284019101370193929361172b565b5090929350969590966001610204350160051b610160206060525b83610264358210156117d65790604060a060019301958787528860c08201526101008360061b61028401910137016117a3565b505093509490506101de9391507f00000000000000000000000000000000000000000000000000000000000000006080528260a052606060c460c03760206101046101203760c0608020600052602060002060e05260016102643560051b610200015261022092836102643560051b0152606060c46102406102643560051b0137611980610c626084359361187e856001600160a01b03166000526001602052604060002090565b547f00000000000000000000000000000000000000000000000000000000000000006080526040608460a03760605161010052846101205260a0610144610140376101e0526101809485608020956102643560051b0190868252336101a06102643560051b015260806101c06102643560051b01526101206101e06102643560051b01527f9d9af8e38d66c62e2c12f0225249fd9d721c54b83f48d9352c97c6cacdcb6f3160a4359260a061026435026101e00190a360006060526119776060820161197261194c82611522565b9661195960808601611522565b906001600160a01b03809916906101608701358b61565f565b611522565b9581019061160f565b9216906147f9565b1061198f57565b60046040517f466aa616000000000000000000000000000000000000000000000000000000008152fd5b6102643560061b61026001610244351461024061022435146020600435141616156119e057565b60046040517f39f3e3fd000000000000000000000000000000000000000000000000000000008152fd5b507f4e487b7100000000000000000000000000000000000000000000000000000000600052603260045260246000fd5b9015611a435790565b6104cd611a0a565b9190811015611a5c575b60061b0190565b611a64611a0a565b611a55565b919234936000915b808310611adc57505050828211611ab25781611a8c91611ee2565b808211611aa0575b50506101de6001600055565b611aab910333611ee2565b3880611a94565b60046040517f1a783b8d000000000000000000000000000000000000000000000000000000008152fd5b909194611aea868385611a4b565b90813590808211611ab257611b0c82611b07602060019601611522565b611ee2565b0395019190611a71565b818110611b21570390565b611b29611599565b0390565b969594939190916101c4359460005b818110611b585750505095611b519596611f77565b6001600055565b80611b9989898d99611b6d600196888a611a4b565b9a6001600160a01b0360208d358481809610611b9f575b039d0135611b91816101c2565b16908a611f77565b01611b3c565b611ba7611599565b611b84565b909196959493966101e4359460005b818110611bcf575050611b51969750611f77565b80611c048989611be36001958f8890611a4b565b6001600160a01b03602082013591611bfa836101c2565b3591168989611f77565b01611bbb565b81601f8201121561000e57803591611c21836103dd565b92611c2f604051948561038c565b808452602092838086019260051b82010192831161000e578301905b828210611c59575050505090565b81358152908301908301611c4b565b909291611c74846103dd565b91604094611c848651948561038c565b839581855260208095019160051b83019380851161000e5783925b858410611caf5750505050505050565b67ffffffffffffffff90843582811161000e5786019060a08285031261000e578451611cda8161031c565b8235815289830135600281101561000e578a82015285830135868201526060808401359082015260808084013594851161000e57611d1c868c96879601611c0a565b90820152815201930192611c9f565b90611d4190610b77999897969594933691611c68565b90612a58565b9035907fffffffffffffffffffffffffffffffffffffffffffffffffffffffffffffffe18136030182121561000e570180359067ffffffffffffffff821161000e576020019160a082023603831361000e57565b9035907fffffffffffffffffffffffffffffffffffffffffffffffffffffffffffffffe18136030182121561000e570180359067ffffffffffffffff821161000e576020019160c082023603831361000e57565b6004111561088657565b356104cd8161059f565b6004821015611e0f5752565b611e1761084c565b52565b949290959391841515600014611e86576101de96604051967f4ce34aa2000000000000000000000000000000000000000000000000000000008852602060048901526001602489015260448801526064870152608486015260a485015260c484015260e483015261249d565b9291946002919450611e978161087c565b03611ed657600103611eac576101de93614f7b565b60046040517fefcc00b1000000000000000000000000000000000000000000000000000000008152fd5b9291906101de94615086565b90611eec81611f46565b600080808084865af115611efe575050565b60449250611f0a6128e5565b6001600160a01b03604051927f470c7c1d0000000000000000000000000000000000000000000000000000000084521660048301526024820152fd5b15611f4d57565b60046040517f91b3e514000000000000000000000000000000000000000000000000000000008152fd5b929193949094611f8683611f46565b611f9081836122f9565b80612102575050604051926000947f23b872dd00000000000000000000000000000000000000000000000000000000865280600452816024528260445260208660648180885af1803d15601f3d1160018a51141617163d1515811615611fff575b505050505050604052606052565b80863b151516611ff15790879596911561203f57602486887f5f15d672000000000000000000000000000000000000000000000000000000008252600452fd5b1561207957506084947f98891923000000000000000000000000000000000000000000000000000000008552600452602452604452606452fd5b3d6120b8575b5060a4947ff486bc8700000000000000000000000000000000000000000000000000000000855260045260245260445281606452608452fd5b3d60051c9060051c9080600302918082116120e9575b505060205a9101106120e0578561207f565b833d81803e3d90fd5b8080600392028380020360091c920302010186806120ce565b906101de9592949391612610565b9590929493919361212181836122f9565b80612138575050600103611eac576101de93614f7b565b9060649593916000979593975060208251146000146121f35760c0906001906040845260208401527f4ce34aa20000000000000000000000000000000000000000000000000000000060408401526020604484015280888401525b02019360027fffffffffffffffffffffffffffffffffffffffffffffffffffffffffffffffc48601527fffffffffffffffffffffffffffffffffffffffffffffffffffffffffffffffe48501526004840152602483015260448201520152565b5060c08682016001815101809152612193565b95909192939461221586611f46565b61221f81836122f9565b8061222f5750506101de94615086565b90606495969493929160208251146000146122e65760c0906001906040845260208401527f4ce34aa20000000000000000000000000000000000000000000000000000000060408401526020604484015280888401525b02019360037fffffffffffffffffffffffffffffffffffffffffffffffffffffffffffffffc48601527fffffffffffffffffffffffffffffffffffffffffffffffffffffffffffffffe48501526004840152602483015260448201520152565b5060c08682016001815101809152612286565b906020820151036123075750565b6101de905b60408082510361249957602082015160c0606484015102604401918051926123b560206001600160a01b036000938185927f00000000000000000000000000000000000000000000000000000000000000001674ff00000000000000000000000000000000000000001783528784527f000000000000000000000000000000000000000000000000000000000000000087526055600b201697865281805285890182895af11590565b61244e577fffffffff000000000000000000000000000000000000000000000000000000007f4ce34aa2000000000000000000000000000000000000000000000000000000009151160361240c5750505060209052565b517f1cf99b2600000000000000000000000000000000000000000000000000000000815260048101919091526001600160a01b03919091166024820152604490fd5b61126e848361245b6128e5565b517fd13d53d40000000000000000000000000000000000000000000000000000000081526001600160a01b0390911660048201529081906024820190565b5050565b6040519161252e60206001600160a01b036101046000948286937f00000000000000000000000000000000000000000000000000000000000000001674ff00000000000000000000000000000000000000001784528785527f00000000000000000000000000000000000000000000000000000000000000006040526055600b20169760405282805282885af11590565b6125c4577fffffffff000000000000000000000000000000000000000000000000000000007f4ce34aa20000000000000000000000000000000000000000000000000000000091511603612580575050565b6040517f1cf99b2600000000000000000000000000000000000000000000000000000000815260048101919091526001600160a01b03919091166024820152604490fd5b61126e836125d06128e5565b6040517fd13d53d40000000000000000000000000000000000000000000000000000000081526001600160a01b0390911660048201529081906024820190565b9060649492939160208251146000146126c75760c0906001906040845260208401527f4ce34aa20000000000000000000000000000000000000000000000000000000060408401526020604484015280878401525b02019260017fffffffffffffffffffffffffffffffffffffffffffffffffffffffffffffffc48501527fffffffffffffffffffffffffffffffffffffffffffffffffffffffffffffffe484015260048301526024820152600060448201520152565b5060c08582016001815101809152612665565b91909161014081018051917f0000000000000000000000000000000000000000000000000000000000000000604051604083018051928351926020809501906000915b868684106127e15750505050506040519160051b8220917f00000000000000000000000000000000000000000000000000000000000000009093606086019481865101906000915b8a83106127bd575050505050601f198660051b604051209401978851907f00000000000000000000000000000000000000000000000000000000000000008a5282519383528451958552865261018089209852525252565b838082601f19600194510180519089815260e0812087525201920192019190612765565b8082601f19600194510180519088815260c081208752520192019201919061271d565b467f00000000000000000000000000000000000000000000000000000000000000000361284f577f000000000000000000000000000000000000000000000000000000000000000090565b60405160208101907f000000000000000000000000000000000000000000000000000000000000000082527f000000000000000000000000000000000000000000000000000000000000000060408201527f000000000000000000000000000000000000000000000000000000000000000060608201524660808201523060a082015260a081526128df81610338565b51902090565b3d6128ec57565b3d60051c60405160051c90806003029180821161291c575b505060205a91011061291257565b3d6000803e3d6000fd5b8080600392028380020360091c92030201013880612904565b919082604091031261000e576040516040810181811067ffffffffffffffff82111761296f575b6040526020808294803584520135910152565b6129776102c3565b61295c565b929192612988826103dd565b6040926129978451928361038c565b819581835260208093019160061b84019381851161000e57915b8483106129c057505050505050565b8386916129cd8486612935565b8152019201916129b1565b929190926129e5846103dd565b916129f3604051938461038c565b829480845260208094019060051b83019282841161000e5780915b848310612a1d57505050505050565b823567ffffffffffffffff811161000e57820184601f8201121561000e578691612a4d868385809535910161297c565b815201920191612a0e565b95979692612a6f612a7e9594612a76949389612c8c565b36916129d8565b9236916129d8565b8151815190612a95612a908383611603565b613615565b9660009485905b838210612b9a5750506000935b838510612b0657505050505080612afb575b50825115612ad15782612acd91613ab4565b9190565b60046040517fd5da9a1b000000000000000000000000000000000000000000000000000000008152fd5b835103835238612abb565b909192939488612b2184612b1a8986612c6a565b518a6136e3565b8051608001516001600160a01b03166001600160a01b03612b5b612b4f60208501516001600160a01b031690565b6001600160a01b031690565b911603612b755750506001809101955b0193929190612aa9565b8791612b9491612b8d85896001979c01038093612c6a565b528b612c6a565b50612b6b565b909589612bb6612baf89859996979899612c6a565b518a613671565b8051608001516001600160a01b03166001600160a01b03612be4612b4f60208501516001600160a01b031690565b911603612c005750506001809101965b01909493929194612a9c565b8891612c1d91612c16856001969c038093612c6a565b528c612c6a565b50612bf4565b90612c2d826103dd565b612c3a604051918261038c565b828152601f19612c4a82946103dd565b0190602036910137565b602090805115612c62570190565b6115ff611a0a565b6020918151811015612c7f575b60051b010190565b612c87611a0a565b612c77565b612c94614f36565b805192612ca084612c23565b92600091828552825b868110612d3a575050612cbc908361321a565b838110612cc95750505050565b80612cd660019285612c6a565b5115612d3557612d2f612ce98285612c6a565b5151612cf58387612c6a565b5190612d0881516001600160a01b031690565b91612d1d60208301516001600160a01b031690565b606060408401519301519333926145b8565b01612cbc565b612d2f565b612d448186612c6a565b5191848115612ef15750612d59878585614d0f565b9091926001938486018b52888415612edd5750907fffffffffffffffffffffffffffffffffffffffffffffffffffffffffffffffff91612d99878d612c6a565b52019480519160a09283810151908160c0820151039142038b888281604082880396015193905b612e65575b5050505060608095510151888d905b612ded575b505050505050505050506001905b01612ca9565b8151811015612e605789818a8a8a8a612e438b8b8b612e0d8a9b8d612c6a565b51956080870198612e208a5188836131b2565b918801968751908b518214600014612e50575050508086525b808952855161315b565b9052015190520190612dd4565b612e59926131b2565b8652612e39565b612dd9565b878b88888751851015612ed45786956060612eb994612e84888c612c6a565b51906080820190612e9782518a836131b2565b938493019889519083518214600014612ec4575050508188525b528551613126565b905201839082612dc0565b612ecd926131b2565b8852612eb1565b50505050612dc5565b935050946001949350602091500152612de7565b6020600193929401528181018752612de7565b612f0c614f36565b805192612f1884612c23565b92600091828552825b868110612faa575050612f34908361321a565b838110612f415750505050565b80612f4e60019285612c6a565b5115612fa557612f9f612f618285612c6a565b5151612f6d8387612c6a565b5190612f8081516001600160a01b031690565b60208201516001600160a01b03169060606040840151930151936144e6565b01612f34565b612f9f565b612fb48186612c6a565b51918481156130d65750612fc9878585614e2f565b9091926001938486018b528884156130c25750907fffffffffffffffffffffffffffffffffffffffffffffffffffffffffffffffff91613009878d612c6a565b52019480519160a09283810151908160c0820151039142038b888281604082880396015193905b61308f575b5050505060608095510151888d905b61305d575b505050505050505050506001905b01612f21565b815181101561308a5789818a8a8a8a61307d8b8b8b612e0d8a9b8d612c6a565b9052015190520190613044565b613049565b878b888887518510156130b957869560606130ae94612e84888c612c6a565b905201839082613030565b50505050613035565b935050946001949350602091500152613057565b6020600193929401528181018752613057565b807fffffffffffffffffffffffffffffffffffffffffffffffffffffffffffffffff0482118115151661311a570290565b613122611599565b0290565b93929093848103613138575050505090565b9161314b613151926131579596946130e9565b926130e9565b90611603565b0490565b9392909384810361316d575050505090565b916131516131836131ad936131579697956130e9565b917fffffffffffffffffffffffffffffffffffffffffffffffffffffffffffffffff8701946130e9565b611603565b9190918281146131f757828183096131cd57613157916130e9565b60046040517fc63cf089000000000000000000000000000000000000000000000000000000008152fd5b50905090565b6002111561088657565b516104cd8161087c565b611e178261087c565b815181519260005b8281106133615750505060005b82811061323b57505050565b613278613264602061324d8486612c6a565b5101516effffffffffffffffffffffffffffff1690565b6effffffffffffffffffffffffffffff1690565b15613359576132878183612c6a565b5151606081018051519060005b828110613312575050506040809101908151519160005b8381106132c057505050506001905b0161322f565b6132dd6132d76132d1838551612c6a565b51613207565b60031090565b6132e9576001016132ab565b600483517fa6cfc673000000000000000000000000000000000000000000000000000000008152fd5b6133236132d76132d1838551612c6a565b61332f57600101613294565b60046040517fff75a340000000000000000000000000000000000000000000000000000000008152fd5b6001906132ba565b61336b8183612c6a565b518051908682101561350b5760209161338b6132648461324d848b612c6a565b156135005761339a9087612c6a565b51519160409283830151918301516133b1816131fd565b6133ba816131fd565b61348b57830151805182101561346257906133d491612c6a565b519160038351936133e48561087c565b84906133fb84820191600483519814850390613211565b606085015190525b1115613439575090600192918161341e575b50505b01613222565b613432916080606083015192015191613535565b3880613415565b600490517f94eb6af6000000000000000000000000000000000000000000000000000000008152fd5b600484517fbfb3f8ce000000000000000000000000000000000000000000000000000000008152fd5b929060608094015180518210156134d7576003916134a891612c6a565b51938451946134b68661087c565b85916134cd85830192600484519914860390613211565b8501519052613403565b600483517f6088d7de000000000000000000000000000000000000000000000000000000008152fd5b505050600190613418565b60046040517f869586c4000000000000000000000000000000000000000000000000000000008152fd5b9190919060208080830192805160051b01015b808310613583575050500361355957565b60046040517f09bde339000000000000000000000000000000000000000000000000000000008152fd5b90919283518082116000146135a75760005282525b81604060002093019190613548565b906000528252613598565b604051906060820182811067ffffffffffffffff821117613608575b806040526040836135de8361031c565b6000928381528360808301528360a08301528360c08301528360e083015281528260208201520152565b6136106102c3565b6135ce565b9061361f826103dd565b61362c604051918261038c565b828152601f1961363c82946103dd565b019060005b82811061364d57505050565b6020906136586135b2565b82828501015201613641565b906002821015611e0f5752565b919061367b6135b2565b928151156136b25761368e91849161377f565b815160608101511561369d5750565b60806001600160a01b03602085015116910152565b60246040517f375c24c100000000000000000000000000000000000000000000000000000000815260006004820152fd5b9291906136ee6135b2565b9381511561372357613701918591613940565b3360208401526040830152815160608101511561371b5750565b608033910152565b60246040517f375c24c100000000000000000000000000000000000000000000000000000000815260016004820152fd5b507f7fda72790000000000000000000000000000000000000000000000000000000060005260206000fd5b9060209283820191848351518551811015613933575b60051b850101519384519086604083015181875101518151811015613926575b60051b010151926000958887980151613910575b6040865195336080880152805187528a8101518b88015201516040860152886060610120865196838a01978852015196604089019788522092805160051b01915b82811061386157505050505050506060905101529081600114613839575060021461383157565b6101de611599565b7f91b3e514000000000000000000000000000000000000000000000000000000006000526000fd5b9897980190898251518551811015613903575b60051b850101518a810151156138fa575160608b6040830151818651015181518110156138ed575b60051b01015199818b01519081158d8381011060011b17179b0199600082820152208414908751610120820151149087519051141616156138e0575b90899061380a565b6138e8613754565b6138d8565b6138f5613754565b61389c565b509796976138d8565b61390b613754565b613874565b60608501805160009091528015985096506137c9565b61392e613754565b6137b5565b61393b613754565b613795565b909160209283810192835151938151851015613aa7575b85600595861b830101519460609387858851015181855101518151811015613a9a575b841b010151916000968988990151613a85575b519483518652898401518a8701526040840151604087015260a08094015194608087019586528a888820948051851b01915b8281106139e357505050505050505001529081600114613839575060021461383157565b9a999a01908b808351518551811015613a78575b861b850101518181015115613a6e57518a015183518201518151811015613a61575b861b01015160008a82019b8d8d518091019e8f9115911060011b17179c9b52898120861490878951910151141615613a54575b908b906139bf565b613a5c613754565b613a4c565b613a69613754565b613a19565b5050999899613a4c565b613a80613754565b6139f7565b8387018051600090915280159950975061398d565b613aa2613754565b61397a565b613aaf613754565b613957565b908151613ac081612c23565b926000905b828210613b88575050503490613ad961152c565b9360005b8251811015613b5b5785613af18285612c6a565b518051908151613b008161087c565b613b098161087c565b15613b3d575b91613b3791836040613b2e60206001989701516001600160a01b031690565b91015191613c60565b01613add565b95909291506060830181815111611ab2575190039490918791613b0f565b5093613b67915061230c565b80613b78575b506104cd6001600055565b613b829033611ee2565b38613b6d565b91949093613b968584612c6a565b5193613bb761326460208701516effffffffffffffffffffffffffffff1690565b15613c5157613bcf613bc98784612c6a565b60019052565b606080955101519660005b8851811015613c3e5786613bee828b612c6a565b51015180613bff5750600101613bda565b6040517fa5f54208000000000000000000000000000000000000000000000000000000008152600481018a905260248101929092526044820152606490fd5b50939296509350936001905b0190613ac5565b93509360019095929195613c4a565b9291908351613c6e8161087c565b613c778161087c565b613ca157505050806060613c9860806101de9401516001600160a01b031690565b91015190611ee2565b60018451613cae8161087c565b613cb78161087c565b03613cff57926101de93613cd560208301516001600160a01b031690565b906001600160a01b036060613cf460808601516001600160a01b031690565b940151931691611f77565b60028451613d0c8161087c565b613d158161087c565b03613d5b5783613d3260206101de9601516001600160a01b031690565b60808201516001600160a01b0316926001600160a01b0360606040850151940151941691612110565b83613d7360206101de9601516001600160a01b031690565b60808201516001600160a01b0316926001600160a01b0360606040850151940151941691612206565b90613dae909493929482519083612f04565b613db782613615565b9160009485915b808310613deb5750505090613ddc9184829495613de0575b50613ab4565b5090565b825103825238613dd6565b909195613df9878385613e8e565b613e1f613e068280611545565b90613e1660209485810190611545565b92909189613ee7565b906001600160a01b03613e54612b4f613e4460808651016001600160a01b0390511690565b938501516001600160a01b031690565b911603613e6b57506001809101965b019190613dbe565b96613e888298600193830390613e81828a612c6a565b5287612c6a565b50613e63565b9190811015613ecf575b60051b810135907fffffffffffffffffffffffffffffffffffffffffffffffffffffffffffffffc18136030182121561000e570190565b613ed7611a0a565b613e98565b6104cd903690612935565b929190613ef26135b2565b94821580156140de575b6140b457613f086135b2565b613f1d81613f1736858961297c565b88613940565b5191613f3487613f2e36878561297c565b8861377f565b613f3e8751613207565b835190613f4a8261087c565b613f538261087c565b613f5c8161087c565b1480159061407c575b8015614069575b61403f576104cd95613ff9956080958960609586938493848a0197885186865101511060001461400c57505092613fcd613fc4613fb6613fb1602095613fda98611a3a565b613edc565b94838a519151015190611b16565b96845190612c6a565b5151015191015190612c6a565b510152818751015181525b51908651015201516001600160a01b031690565b6080835101906001600160a01b03169052565b60209350604092506140379561402b613fb1613fcd94613fc494611a3a565b95510151895190611b16565b510152613fe5565b60046040517f09cfb455000000000000000000000000000000000000000000000000000000008152fd5b5060408751015160408401511415613f6c565b508651602001516001600160a01b03166001600160a01b036140ab612b4f60208701516001600160a01b031690565b91161415613f65565b60046040517f98e9db6e000000000000000000000000000000000000000000000000000000008152fd5b508015613efc565b604051906140f38261031c565b604051608083610160830167ffffffffffffffff811184821017614170575b6040526000808452806020850152606093846040820152848082015281848201528160a08201528160c08201528160e08201528161010082015281610120820152816101408201528252806020830152604082015282808201520152565b6141786102c3565b614112565b919091614188614f45565b60026000556141978382614956565b9093604051946141a686610370565b6001865260005b6020808210156141cf57906020916141c36140e6565b90828a010152016141ad565b505090919361421693956142016142269861420693835115614235575b60208401526141fa83612c54565b508261321a565b612c54565b5151936101208501519185614242565b80516001600160a01b0316612d08565b6142306001600055565b600190565b61423d611a0a565b6141ec565b909194939460c082015160a09661426961426189860193845190611b16565b925142611b16565b946142748684611b16565b92349361427f61152c565b9a60005b8c6040808b0151805184101561435e578b8b8f938f936142c18b8b6142aa8f948c90612c6a565b5197606089019687519560808b019687519061442b565b80935233905283516142d28161087c565b6142db8161087c565b15614309575b50509160019493916142fd61430394516001600160a01b031690565b90613c60565b01614283565b9295969798999a9b935080945083915011614335575003969594939291908d908c908b816142fd6142e1565b600490517f1a783b8d000000000000000000000000000000000000000000000000000000008152fd5b5050505093985090919394959660005b6060808a01518051831015614402578d918a896143a88f9489896143938a8e94612c6a565b5196870195865195608089019687519061446b565b80925289830151905281516143bc8161087c565b6143c58161087c565b156143e2575b50916143dc91600194933390613c60565b0161436e565b809493508a925099909911611ab25791909103968c908b906143dc6143cb565b50505050505050509394915050614419915061230c565b806144215750565b6101de9033611ee2565b95919293949094858714600014614449575050506104cd93506131b2565b9291948461445f6104cd986144659497866131b2565b936131b2565b90613126565b95919293949094858714600014614489575050506104cd93506131b2565b9291948461445f6104cd9861449f9497866131b2565b9061315b565b90815180825260208080930193019160005b8281106144c5575050505090565b909192938260a0826144da600194895161088e565b019501939291016144b7565b91939290936040805193608091828601918652602090600082880152838188015285518093528160a088019601936000915b84831061456d5750505050505091614568827f9d9af8e38d66c62e2c12f0225249fd9d721c54b83f48d9352c97c6cacdcb6f31948380950360608501526001600160a01b038091169716956144a5565b0390a3565b90919293949684836001928a5180516145858161087c565b8252808401516001600160a01b031684830152858101518683015260609081015190820152019801959493019190614518565b92909493916040918251946080918287019187526001600160a01b0394856020921682890152838189015286518093528160a089019701936000915b84831061463d57505050505050828285949361456893867f9d9af8e38d66c62e2c12f0225249fd9d721c54b83f48d9352c97c6cacdcb6f319896036060870152169716956144a5565b90919293949784836001928b5180516146558161087c565b8252808401518c16848301528581015186830152606090810151908201520199019594930191906145f4565b9035907ffffffffffffffffffffffffffffffffffffffffffffffffffffffffffffffea18136030182121561000e570190565b6146bc6140e6565b506147066146d86146cd8380614681565b92602081019061160f565b6146ef604051946146e88661031c565b36906105b4565b845260016020850152600160408501523691610698565b606082015260405161471781610354565b60008152608082015290565b61472c826103dd565b9161473a604051938461038c565b808352601f19614749826103dd565b0160005b81811061479857505060005b8181106147665750505090565b8061477c6147776001938587613e8e565b6146b4565b6147868287612c6a565b526147918186612c6a565b5001614759565b6020906147a36140e6565b8282880101520161474d565b906040516147bc816102f3565b606081935460ff81161515835260ff8160081c16151560208401526effffffffffffffffffffffffffffff8160101c16604084015260881c910152565b614918916101de9382600052600260205282614866610c11604060002060405190614823826102f3565b5460ff81161515825260ff8160081c16151560208301526effffffffffffffffffffffffffffff8160101c16604083015260881c6060820152610c0a81856155aa565b614945575b6148859250610c8791506000526002602052604060002090565b6148c461489c826000526002602052604060002090565b7fffffffffffffffffffffffffffffffffffffffffffffffffffffffffffff00ff8154169055565b6149086148db826000526002602052604060002090565b620100007fffffffffffffffffffffffffffffff000000000000000000000000000000ffff825416179055565b6000526002602052604060002090565b7101000000000000000000000000000000000070ffffffffffffffffffffffffffffffffff825416179055565b61494e9261522b565b38808261486b565b9091815192614971610c1160a086015160c0870151906151be565b614d035761499461326460208501516effffffffffffffffffffffffffffff1690565b6149b361326460408601516effffffffffffffffffffffffffffff1690565b948582118015614cfb575b614cd15785821080614cb9575b614c8f57614a176149db82614ed7565b9360e083015160808401516149ef81611def565b84516001600160a01b03169187614a1060208801516001600160a01b031690565b948b615c83565b614a2e610bfb846000526002602052604060002090565b94614a3c610c118786615504565b614c7f5783614a4e610c118851151590565b614c58575b505050614a946132646060614a7d61326460408901516effffffffffffffffffffffffffffff1690565b9601516effffffffffffffffffffffffffffff1690565b948515614bf95760018103614bc157505083925b83614ab38683611603565b11614bb7575b84614b5a614bb292614ad8610c87866000526002602052604060002090565b614aef61489c866000526002602052604060002090565b6effffffffffffffffffffffffffffff9283910116614b18856000526002602052604060002090565b907fffffffffffffffffffffffffffffff000000000000000000000000000000ffff70ffffffffffffffffffffffffffffff000083549260101b169116179055565b8416614b70836000526002602052604060002090565b9070ffffffffffffffffffffffffffffffffff7fffffffffffffffffffffffffffffff000000000000000000000000000000000083549260881b169116179055565b929190565b8084039450614ab9565b939094848103614bd2575b50614aa8565b614bec81614be687614bf2959998996130e9565b966130e9565b956130e9565b9238614bcc565b93509350614c14610c87826000526002602052604060002090565b614c2b61489c826000526002602052604060002090565b614bb26effffffffffffffffffffffffffffff614b5a818716614b18856000526002602052604060002090565b6060614c6e614c7794516001600160a01b031690565b9201519161522b565b388083614a53565b5050509150915090600090600090565b60046040517fa11b63ff000000000000000000000000000000000000000000000000000000008152fd5b5060016080820151614cca81611def565b16156149cb565b60046040517f5a052b32000000000000000000000000000000000000000000000000000000008152fd5b5081156149be565b50600092508291508190565b919290928251614d2b610c1160a083015160c084015190615207565b614e1f57614d4e61326460208601516effffffffffffffffffffffffffffff1690565b90614d6e61326460408701516effffffffffffffffffffffffffffff1690565b958683118015614e17575b614cd15786831080614dff575b614c8f57614dda90614d9783614ed7565b9460e0840151608085015190614dac82611def565b87614dbe87516001600160a01b031690565b93614dd360208901516001600160a01b031690565b958c615d56565b614df1610bfb846000526002602052604060002090565b94614a3c610c118786615604565b5060016080830151614e1081611def565b1615614d86565b508215614d79565b5050915050600090600090600090565b919290928251614e4b610c1160a083015160c0840151906151be565b614e1f57614e6e61326460208601516effffffffffffffffffffffffffffff1690565b90614e8e61326460408701516effffffffffffffffffffffffffffff1690565b958683118015614ecf575b614cd15786831080614eb7575b614c8f57614a1790614d9783614ed7565b5060016080830151614ec881611def565b1615614ea6565b508215614e99565b6104cd90614ef060608201515161014083015190611988565b80516001600160a01b0316600090815260016020526040902054906126da565b90916104cd92811015614f29575b60051b810190614681565b614f31611a0a565b614f1e565b614f3e614f45565b6002600055565b600160005403614f5157565b60046040517f7fa8a987000000000000000000000000000000000000000000000000000000008152fd5b9092813b1561505857604051926000947f23b872dd000000000000000000000000000000000000000000000000000000008652806004528160245282604452858060648180885af115614fd45750505050604052606052565b8593943d615017575b5060a4947ff486bc870000000000000000000000000000000000000000000000000000000085526004526024526044526064526001608452fd5b3d60051c9060051c90806003029180821161503f575b505060205a9101106120e05785614fdd565b8080600392028380020360091c9203020101868061502d565b507f5f15d6720000000000000000000000000000000000000000000000000000000060005260045260246000fd5b929093833b1561519057604051936080519160a0519360c051956000987ff242432a000000000000000000000000000000000000000000000000000000008a528060045281602452826044528360645260a06084528960a452898060c48180895af11561510357505050505060805260a05260c052604052606052565b89949550883d615146575b5060a4957ff486bc87000000000000000000000000000000000000000000000000000000008652600452602452604452606452608452fd5b3d60051c9060051c908060030291808211615177575b505060205a91011061516e578661510e565b843d81803e3d90fd5b8080600392028380020360091c9203020101878061515c565b837f5f15d6720000000000000000000000000000000000000000000000000000000060005260045260246000fd5b42109081156151fc575b506151d257600190565b60046040517f6f7eac26000000000000000000000000000000000000000000000000000000008152fd5b9050421015386151c8565b4210908115615220575b5061521b57600190565b600090565b905042101538615211565b919091336001600160a01b03821614615284576101de9261524a612804565b7f19010000000000000000000000000000000000000000000000000000000000006000526002526022526042600020906000602252615296565b505050565b506040513d6000823e3d90fd5b825160409391929084810361537e5750602060008184015186850151615307601b7f7fffffffffffffffffffffffffffffffffffffffffffffffffffffffffffffff83169260ff1c01915b895193849388859094939260ff6060936080840197845216602083015260408201520152565b838052039060015afa15615371575b6001600160a01b03806000511690811560001461535657600486517f8baa579f000000000000000000000000000000000000000000000000000000008152fd5b90919293809550160361536857505050565b6101de926153fb565b615379615289565b615316565b6041036153f357602082015184830151606084015160001a90601b821415806153e8575b6153b557916000916153076020946152e1565b86517f1f003d0a00000000000000000000000000000000000000000000000000000000815260ff83166004820152602490fd5b50601c8214156153a2565b90916101de93505b90916040516154558161544760208201947f1626ba7e00000000000000000000000000000000000000000000000000000000978887526024840152604060448401526064830190610148565b03601f19810183528261038c565b6000928392839251915afa156154d2577fffffffff0000000000000000000000000000000000000000000000000000000090803d6020146154c4575b50160361549a57565b60046040517f815e1d64000000000000000000000000000000000000000000000000000000008152fd5b9050602081803e5138615491565b6154da6128e5565b60046040517f4f7fb80d000000000000000000000000000000000000000000000000000000008152fd5b906020810151615579576effffffffffffffffffffffffffffff806040830151169182615535575b50505050600190565b606001511611156155485780808061552c565b602490604051907f10fda3e10000000000000000000000000000000000000000000000000000000082526004820152fd5b602482604051907f1a5155740000000000000000000000000000000000000000000000000000000082526004820152fd5b90602081015161557957604001516effffffffffffffffffffffffffffff166155d35750600190565b602490604051907fee9e0e630000000000000000000000000000000000000000000000000000000082526004820152fd5b906000906020810151615656576effffffffffffffffffffffffffffff806040830151169182615639575b5050505050600190565b6060015116111561564c5780808061562f565b6155485750600090565b50905050600090565b90929160019060048110156156bf575b11806156ac575b80615699575b615687575b50505050565b615690936156cc565b38808080615681565b506001600160a01b03821633141561567c565b506001600160a01b038416331415615676565b6156c761084c565b61566f565b600091929082916101de95604051906001600160a01b0360208301937f0e1d31dc00000000000000000000000000000000000000000000000000000000855288602485015233604485015216606483015260848201526084815261572f81610338565b51915afa615e2c565b90815180825260208080930193019160005b828110615758575050505090565b909192938260a06001928751805161576f8161087c565b8252808401516001600160a01b0316848301526040808201519083015260608082015190830152608090810151908201520195019392910161574a565b90815180825260208080930193019160005b8281106157cc575050505090565b909192938260c0600192875180516157e38161087c565b8252808401516001600160a01b039081168584015260408083015190840152606080830151908401526080808301519084015260a0918201511690820152019501939291016157be565b906004821015611e0f5752565b6060519081815260208091019160809160005b82811061585b575050505090565b83518552938101939281019260010161584d565b90815180825260208080930193019160005b82811061588f575050505090565b835185529381019392810192600101615881565b90815180825260208092019182818360051b85019501936000915b8483106158ce5750505050505090565b909192939495848061592083856001950387528a51805182526158f78482015185840190613664565b60408082015190830152606080820151908301526080809101519160a08092820152019061586f565b98019301930191949392906158be565b92615ac4906001600160a01b036104cd9694615ad194875216602086015260a06040860152805160a0808701526101409061597682880182516001600160a01b03169052565b6080615ab36159ea6159b58a61599e6020870151610160809301906001600160a01b03169052565b6040860151906101808d01526102a08c0190615738565b60608501517ffffffffffffffffffffffffffffffffffffffffffffffffffffffffffffffec08c8303016101a08d01526157ac565b6159fc838501516101c08c019061582d565b60a08401516101e08b015260c08401516102008b015260e08401516102208b015261010094858501516102408c015261012094858101516102608d015201516102808b0152615a63602087015160c08c01906effffffffffffffffffffffffffffff169052565b60408601516effffffffffffffffffffffffffffff1660e08b015260608601517fffffffffffffffffffffffffffffffffffffffffffffffffffffffffffffff6095868c840301908c0152610148565b930151918784030190870152610148565b838103606085015261583a565b9160808184039101526158a3565b93906104cd95936001600160a01b03615ad194615c7593885216602087015260a06040870152805160a08088015261014090615b2682890182516001600160a01b03169052565b6080615c64615b9a615b658b6020860151615b4f61016091828401906001600160a01b03169052565b61018060408801519201526102a08d0190615738565b60608501518c82037ffffffffffffffffffffffffffffffffffffffffffffffffffffffffffffffec0016101a08e01526157ac565b615bac838501516101c08d019061582d565b60a08401516101e08c015260c08401516102008c015260e08401516102208c015261010094858501516102408d0152610120948c6102608783015191015201516102808c0152615c14602087015160c08d01906effffffffffffffffffffffffffffff169052565b60408601516effffffffffffffffffffffffffffff1660e08c015260608601517fffffffffffffffffffffffffffffffffffffffffffffffffffffffffffffff6095868d840301908d0152610148565b930151918884030190880152610148565b90848203606086015261586f565b909591929493600190615c9581611def565b1180615d43575b80615d30575b615caf575b505050505050565b6080810151511580615d27575b15615cd75750615ccc94506156cc565b388080808080615ca7565b600093508392945061544761572f615d229760405192839160208301957f33131570000000000000000000000000000000000000000000000000000000008752338b60248601615930565b615ccc565b50855115615cbc565b506001600160a01b038416331415615ca2565b506001600160a01b038216331415615c9c565b919692939594600190615d6881611def565b1180615e19575b80615e06575b615d83575b50505050505050565b6080820151511580615dfd575b15615dad575050615da194506156cc565b38808080808080615d7a565b600094508493955061572f615df89761544760405193849260208401967f33131570000000000000000000000000000000000000000000000000000000008852338c60248701615adf565b615da1565b50805115615d90565b506001600160a01b038516331415615d75565b506001600160a01b038316331415615d6f565b15615ec3577f0e1d31dc000000000000000000000000000000000000000000000000000000007fffffffff00000000000000000000000000000000000000000000000000000000600060203d14615eb8575b1603615e875750565b602490604051907ffb5014fc0000000000000000000000000000000000000000000000000000000082526004820152fd5b602081803e51615e7e565b602490615ece6128e5565b604051907ffb5014fc0000000000000000000000000000000000000000000000000000000082526004820152fdfea2646970667358221220376d0dbe095a55509e4325012c7c120a4a0499e30c185b78746aea7f56052dfc64736f6c634300080d0033",
  "linkReferences": {},
  "deployedLinkReferences": {}
}