{
  "_format": "hh-sol-artifact-1",
  "contractName": "Conduit",
  "sourceName": "contracts/conduit/Conduit.sol",
  "abi": [
    {
      "inputs": [],
      "stateMutability": "nonpayable",
      "type": "constructor"
    },
    {
      "inputs": [
        {
          "internalType": "address",
          "name": "token",
          "type": "address"
        },
        {
          "internalType": "address",
          "name": "from",
          "type": "address"
        },
        {
          "internalType": "address",
          "name": "to",
          "type": "address"
        },
        {
          "internalType": "uint256",
          "name": "amount",
          "type": "uint256"
        }
      ],
      "name": "BadReturnValueFromERC20OnTransfer",
      "type": "error"
    },
    {
      "inputs": [],
      "name": "ChannelClosed",
      "type": "error"
    },
    {
      "inputs": [
        {
          "internalType": "address",
          "name": "token",
          "type": "address"
        },
        {
          "internalType": "address",
          "name": "from",
          "type": "address"
        },
        {
          "internalType": "address",
          "name": "to",
          "type": "address"
        },
        {
          "internalType": "uint256[]",
          "name": "identifiers",
          "type": "uint256[]"
        },
        {
          "internalType": "uint256[]",
          "name": "amounts",
          "type": "uint256[]"
        }
      ],
      "name": "ERC1155BatchTransferGenericFailure",
      "type": "error"
    },
    {
      "inputs": [],
      "name": "Invalid1155BatchTransferEncoding",
      "type": "error"
    },
    {
      "inputs": [],
      "name": "InvalidController",
      "type": "error"
    },
    {
      "inputs": [],
      "name": "InvalidERC721TransferAmount",
      "type": "error"
    },
    {
      "inputs": [],
      "name": "InvalidItemType",
      "type": "error"
    },
    {
      "inputs": [],
      "name": "MissingItemAmount",
      "type": "error"
    },
    {
      "inputs": [
        {
          "internalType": "address",
          "name": "account",
          "type": "address"
        }
      ],
      "name": "NoContract",
      "type": "error"
    },
    {
      "inputs": [
        {
          "internalType": "address",
          "name": "token",
          "type": "address"
        },
        {
          "internalType": "address",
          "name": "from",
          "type": "address"
        },
        {
          "internalType": "address",
          "name": "to",
          "type": "address"
        },
        {
          "internalType": "uint256",
          "name": "identifier",
          "type": "uint256"
        },
        {
          "internalType": "uint256",
          "name": "amount",
          "type": "uint256"
        }
      ],
      "name": "TokenTransferGenericFailure",
      "type": "error"
    },
    {
      "anonymous": false,
      "inputs": [
        {
          "indexed": false,
          "internalType": "address",
          "name": "channel",
          "type": "address"
        },
        {
          "indexed": false,
          "internalType": "bool",
          "name": "open",
          "type": "bool"
        }
      ],
      "name": "ChannelUpdated",
      "type": "event"
    },
    {
      "inputs": [
        {
          "components": [
            {
              "internalType": "enum ConduitItemType",
              "name": "itemType",
              "type": "uint8"
            },
            {
              "internalType": "address",
              "name": "token",
              "type": "address"
            },
            {
              "internalType": "address",
              "name": "from",
              "type": "address"
            },
            {
              "internalType": "address",
              "name": "to",
              "type": "address"
            },
            {
              "internalType": "uint256",
              "name": "identifier",
              "type": "uint256"
            },
            {
              "internalType": "uint256",
              "name": "amount",
              "type": "uint256"
            }
          ],
          "internalType": "struct ConduitTransfer[]",
          "name": "transfers",
          "type": "tuple[]"
        }
      ],
      "name": "execute",
      "outputs": [
        {
          "internalType": "bytes4",
          "name": "magicValue",
          "type": "bytes4"
        }
      ],
      "stateMutability": "nonpayable",
      "type": "function"
    },
    {
      "inputs": [
        {
          "components": [
            {
              "internalType": "address",
              "name": "token",
              "type": "address"
            },
            {
              "internalType": "address",
              "name": "from",
              "type": "address"
            },
            {
              "internalType": "address",
              "name": "to",
              "type": "address"
            },
            {
              "internalType": "uint256[]",
              "name": "ids",
              "type": "uint256[]"
            },
            {
              "internalType": "uint256[]",
              "name": "amounts",
              "type": "uint256[]"
            }
          ],
          "internalType": "struct ConduitBatch1155Transfer[]",
          "name": "batchTransfers",
          "type": "tuple[]"
        }
      ],
      "name": "executeBatch1155",
      "outputs": [
        {
          "internalType": "bytes4",
          "name": "magicValue",
          "type": "bytes4"
        }
      ],
      "stateMutability": "nonpayable",
      "type": "function"
    },
    {
      "inputs": [
        {
          "components": [
            {
              "internalType": "enum ConduitItemType",
              "name": "itemType",
              "type": "uint8"
            },
            {
              "internalType": "address",
              "name": "token",
              "type": "address"
            },
            {
              "internalType": "address",
              "name": "from",
              "type": "address"
            },
            {
              "internalType": "address",
              "name": "to",
              "type": "address"
            },
            {
              "internalType": "uint256",
              "name": "identifier",
              "type": "uint256"
            },
            {
              "internalType": "uint256",
              "name": "amount",
              "type": "uint256"
            }
          ],
          "internalType": "struct ConduitTransfer[]",
          "name": "standardTransfers",
          "type": "tuple[]"
        },
        {
          "components": [
            {
              "internalType": "address",
              "name": "token",
              "type": "address"
            },
            {
              "internalType": "address",
              "name": "from",
              "type": "address"
            },
            {
              "internalType": "address",
              "name": "to",
              "type": "address"
            },
            {
              "internalType": "uint256[]",
              "name": "ids",
              "type": "uint256[]"
            },
            {
              "internalType": "uint256[]",
              "name": "amounts",
              "type": "uint256[]"
            }
          ],
          "internalType": "struct ConduitBatch1155Transfer[]",
          "name": "batchTransfers",
          "type": "tuple[]"
        }
      ],
      "name": "executeWithBatch1155",
      "outputs": [
        {
          "internalType": "bytes4",
          "name": "magicValue",
          "type": "bytes4"
        }
      ],
      "stateMutability": "nonpayable",
      "type": "function"
    },
    {
      "inputs": [
        {
          "internalType": "address",
          "name": "channel",
          "type": "address"
        },
        {
          "internalType": "bool",
          "name": "isOpen",
          "type": "bool"
        }
      ],
      "name": "updateChannel",
      "outputs": [],
      "stateMutability": "nonpayable",
      "type": "function"
    }
  ],
  "bytecode": "0x60a080604052346100235733608052610c0b90816100298239608051816103dd0152f35b600080fdfe60806040526004361015610013575b600080fd5b6000803560e01c9081634ce34aa21461006657508063899e104c1461005d5780638df25d92146100545763c4e8fcb51461004c57600080fd5b61000e610378565b5061000e6102c0565b5061000e6101b4565b3461014f5760207ffffffffffffffffffffffffffffffffffffffffffffffffffffffffffffffffc36011261014f5760043567ffffffffffffffff811161014b576100b5903690600401610152565b91338152806020526100ce60ff60408320541615151590565b610121575b828110610105576040517f4ce34aa2000000000000000000000000000000000000000000000000000000008152602090f35b8061011b6101166001938686610498565b61052a565b016100d3565b7f6821b7df0000000000000000000000000000000000000000000000000000000060805260046080fd5b5080fd5b80fd5b9181601f8401121561000e5782359167ffffffffffffffff831161000e5760208085019460c0850201011161000e57565b9181601f8401121561000e5782359167ffffffffffffffff831161000e576020808501948460051b01011161000e57565b503461000e5760407ffffffffffffffffffffffffffffffffffffffffffffffffffffffffffffffffc36011261000e5767ffffffffffffffff60043581811161000e57610205903690600401610152565b9160243590811161000e5761021e903690600401610183565b91909233600052600060205261023c60ff6040600020541615151590565b6102965760005b81811061027f576102548486610a28565b6040517f899e104c000000000000000000000000000000000000000000000000000000008152602090f35b806102906101166001938587610498565b01610243565b60046040517f6821b7df000000000000000000000000000000000000000000000000000000008152fd5b503461000e5760207ffffffffffffffffffffffffffffffffffffffffffffffffffffffffffffffffc36011261000e5760043567ffffffffffffffff811161000e57610310903690600401610183565b33600052600060205260ff60406000205416156102965761033091610a28565b60206040517f8df25d92000000000000000000000000000000000000000000000000000000008152f35b73ffffffffffffffffffffffffffffffffffffffff81160361000e57565b503461000e576040807ffffffffffffffffffffffffffffffffffffffffffffffffffffffffffffffffc36011261000e57600435906103b68261035a565b6024359182151580930361000e5773ffffffffffffffffffffffffffffffffffffffff90817f000000000000000000000000000000000000000000000000000000000000000016330361046f576000937fae63067d43ac07563b7eb8db6595635fc77f1578a2a5ea06ba91b63e2afa37e29284921690818652856020528286207fffffffffffffffffffffffffffffffffffffffffffffffffffffffffffffff0081541660ff831617905582519182526020820152a151f35b600483517f6d5769be000000000000000000000000000000000000000000000000000000008152fd5b91908110156104a85760c0020190565b7f4e487b7100000000000000000000000000000000000000000000000000000000600052603260045260246000fd5b600411156104e157565b7f4e487b7100000000000000000000000000000000000000000000000000000000600052602160045260246000fd5b35600481101561000e5790565b356105278161035a565b90565b600161053582610510565b61053e816104d7565b0361057957806105536020610577930161051d565b906105606040820161051d565b60a061056e6060840161051d565b92013592610678565b565b600261058482610510565b61058d816104d7565b036105fc57600160a0820135036105d257806105ae6020610577930161051d565b906105bb6040820161051d565b60806105c96060840161051d565b920135926107e5565b60046040517fefcc00b1000000000000000000000000000000000000000000000000000000008152fd5b600361060782610510565b610610816104d7565b0361064e57806106256020610577930161051d565b6106316040830161051d565b61063d6060840161051d565b90608060a0850135940135926108f0565b60046040517f7932f1fc000000000000000000000000000000000000000000000000000000008152fd5b9092604051926000947f23b872dd00000000000000000000000000000000000000000000000000000000865280600452816024528260445260208660648180885af1803d15601f3d1160018a51141617163d15158116156106e2575b505050505050604052606052565b80863b1515166106d45790879596911561072257602486887f5f15d672000000000000000000000000000000000000000000000000000000008252600452fd5b1561075c57506084947f98891923000000000000000000000000000000000000000000000000000000008552600452602452604452606452fd5b3d61079b575b5060a4947ff486bc8700000000000000000000000000000000000000000000000000000000855260045260245260445281606452608452fd5b3d60051c9060051c9080600302918082116107cc575b505060205a9101106107c35785610762565b833d81803e3d90fd5b8080600392028380020360091c920302010186806107b1565b9092813b156108c257604051926000947f23b872dd000000000000000000000000000000000000000000000000000000008652806004528160245282604452858060648180885af11561083e5750505050604052606052565b8593943d610881575b5060a4947ff486bc870000000000000000000000000000000000000000000000000000000085526004526024526044526064526001608452fd5b3d60051c9060051c9080600302918082116108a9575b505060205a9101106107c35785610847565b8080600392028380020360091c92030201018680610897565b507f5f15d6720000000000000000000000000000000000000000000000000000000060005260045260246000fd5b929093833b156109fa57604051936080519160a0519360c051956000987ff242432a000000000000000000000000000000000000000000000000000000008a528060045281602452826044528360645260a06084528960a452898060c48180895af11561096d57505050505060805260a05260c052604052606052565b89949550883d6109b0575b5060a4957ff486bc87000000000000000000000000000000000000000000000000000000008652600452602452604452606452608452fd5b3d60051c9060051c9080600302918082116109e1575b505060205a9101106109d85786610978565b843d81803e3d90fd5b8080600392028380020360091c920302010187806109c6565b837f5f15d6720000000000000000000000000000000000000000000000000000000060005260045260246000fd5b9190826020937f2eb2c2d600000000000000000000000000000000000000000000000000000000855260005b838110610a68575050505090506080604052565b82860192602490358301608080828a01843760a0918281018035918260061b9460e0860160a4526000610144870152856101040192866040019060c43760059380851b9160c090838201888601351490606086013514169284010135141615610bab573594853b15610b7f5750600080828d82895af115610af0575050505050600101610a54565b908a92913d610b37575b5050610128937fafc445e2000000000000000000000000000000000000000000000000000000006000526004526044526084908151019052016000fd5b3d821c911c90600381810292808311610b68575b505050825a910110610b5e578480610afa565b3d6000803e3d6000fd5b8080028380020360091c9203020101858080610b4b565b857f5f15d672000000000000000000000000000000000000000000000000000000006000526004526000fd5b7feba2084c0000000000000000000000000000000000000000000000000000000060005260046000fdfea26469706673582212202e490d93d744ec3c60513ff515e1b5ba4801751166dfb42cd53a25d76767d3ae64736f6c634300080d0033",
  "linkReferences": {},
  "deployedLinkReferences": {}
}